
NUCLEO_L476RG/navigation_leds.elf:     file format elf32-littlearm
architecture: arm, flags 0x00000112:
EXEC_P, HAS_SYMS, D_PAGED
start address 0x08003f61


Disassembly of section .text:

08000000 <g_pfnVectors>:
 8000000:	00 80 01 20 61 3f 00 08 95 3f 00 08 95 3f 00 08     ... a?...?...?..
 8000010:	95 3f 00 08 95 3f 00 08 95 3f 00 08 00 00 00 00     .?...?...?......
	...
 800002c:	25 3e 00 08 95 3f 00 08 00 00 00 00 cb 3e 00 08     %>...?.......>..
 800003c:	2b 3f 00 08 95 3f 00 08 95 3f 00 08 95 3f 00 08     +?...?...?...?..
 800004c:	95 3f 00 08 95 3f 00 08 95 3f 00 08 95 3f 00 08     .?...?...?...?..
 800005c:	95 3f 00 08 95 3f 00 08 95 3f 00 08 95 3f 00 08     .?...?...?...?..
 800006c:	95 3f 00 08 95 3f 00 08 95 3f 00 08 95 3f 00 08     .?...?...?...?..
 800007c:	95 3f 00 08 95 3f 00 08 95 3f 00 08 95 3f 00 08     .?...?...?...?..
 800008c:	35 1d 00 08 39 1d 00 08 95 3f 00 08 35 1c 00 08     5...9....?..5...
 800009c:	95 3f 00 08 95 3f 00 08 95 3f 00 08 95 3f 00 08     .?...?...?...?..
 80000ac:	95 3f 00 08 95 3f 00 08 95 3f 00 08 95 3f 00 08     .?...?...?...?..
 80000bc:	95 3f 00 08 95 3f 00 08 95 3f 00 08 95 3f 00 08     .?...?...?...?..
 80000cc:	95 3f 00 08 95 3f 00 08 95 3f 00 08 95 3f 00 08     .?...?...?...?..
 80000dc:	95 3f 00 08 95 3f 00 08 95 3f 00 08 95 3f 00 08     .?...?...?...?..
 80000ec:	95 3f 00 08 95 3f 00 08 95 3f 00 08 95 3f 00 08     .?...?...?...?..
 80000fc:	95 3f 00 08 95 3f 00 08 95 3f 00 08 95 3f 00 08     .?...?...?...?..
 800010c:	95 3f 00 08 95 3f 00 08 95 3f 00 08 95 3f 00 08     .?...?...?...?..
 800011c:	95 3f 00 08 95 3f 00 08 95 3f 00 08 95 3f 00 08     .?...?...?...?..
 800012c:	95 3f 00 08 95 3f 00 08 95 3f 00 08 95 3f 00 08     .?...?...?...?..
 800013c:	95 3f 00 08 95 3f 00 08 95 3f 00 08 95 3f 00 08     .?...?...?...?..
 800014c:	95 3f 00 08 95 3f 00 08 95 3f 00 08 95 3f 00 08     .?...?...?...?..
 800015c:	95 3f 00 08 95 3f 00 08 95 3f 00 08 95 3f 00 08     .?...?...?...?..
 800016c:	95 3f 00 08 95 3f 00 08 95 3f 00 08 95 3f 00 08     .?...?...?...?..
 800017c:	00 00 00 00 95 3f 00 08 95 3f 00 08                 .....?...?..

08000188 <__do_global_dtors_aux>:
 8000188:	b510      	push	{r4, lr}
 800018a:	4c05      	ldr	r4, [pc, #20]	; (80001a0 <__do_global_dtors_aux+0x18>)
 800018c:	7823      	ldrb	r3, [r4, #0]
 800018e:	b933      	cbnz	r3, 800019e <__do_global_dtors_aux+0x16>
 8000190:	4b04      	ldr	r3, [pc, #16]	; (80001a4 <__do_global_dtors_aux+0x1c>)
 8000192:	b113      	cbz	r3, 800019a <__do_global_dtors_aux+0x12>
 8000194:	4804      	ldr	r0, [pc, #16]	; (80001a8 <__do_global_dtors_aux+0x20>)
 8000196:	f3af 8000 	nop.w
 800019a:	2301      	movs	r3, #1
 800019c:	7023      	strb	r3, [r4, #0]
 800019e:	bd10      	pop	{r4, pc}
 80001a0:	20000098 	.word	0x20000098
 80001a4:	00000000 	.word	0x00000000
 80001a8:	08004bfc 	.word	0x08004bfc

080001ac <frame_dummy>:
 80001ac:	4b0c      	ldr	r3, [pc, #48]	; (80001e0 <frame_dummy+0x34>)
 80001ae:	b143      	cbz	r3, 80001c2 <frame_dummy+0x16>
 80001b0:	480c      	ldr	r0, [pc, #48]	; (80001e4 <frame_dummy+0x38>)
 80001b2:	490d      	ldr	r1, [pc, #52]	; (80001e8 <frame_dummy+0x3c>)
 80001b4:	b510      	push	{r4, lr}
 80001b6:	f3af 8000 	nop.w
 80001ba:	480c      	ldr	r0, [pc, #48]	; (80001ec <frame_dummy+0x40>)
 80001bc:	6803      	ldr	r3, [r0, #0]
 80001be:	b923      	cbnz	r3, 80001ca <frame_dummy+0x1e>
 80001c0:	bd10      	pop	{r4, pc}
 80001c2:	480a      	ldr	r0, [pc, #40]	; (80001ec <frame_dummy+0x40>)
 80001c4:	6803      	ldr	r3, [r0, #0]
 80001c6:	b933      	cbnz	r3, 80001d6 <frame_dummy+0x2a>
 80001c8:	4770      	bx	lr
 80001ca:	4b09      	ldr	r3, [pc, #36]	; (80001f0 <frame_dummy+0x44>)
 80001cc:	2b00      	cmp	r3, #0
 80001ce:	d0f7      	beq.n	80001c0 <frame_dummy+0x14>
 80001d0:	e8bd 4010 	ldmia.w	sp!, {r4, lr}
 80001d4:	4718      	bx	r3
 80001d6:	4b06      	ldr	r3, [pc, #24]	; (80001f0 <frame_dummy+0x44>)
 80001d8:	2b00      	cmp	r3, #0
 80001da:	d0f5      	beq.n	80001c8 <frame_dummy+0x1c>
 80001dc:	4718      	bx	r3
 80001de:	bf00      	nop
 80001e0:	00000000 	.word	0x00000000
 80001e4:	08004bfc 	.word	0x08004bfc
 80001e8:	2000009c 	.word	0x2000009c
 80001ec:	20000094 	.word	0x20000094
 80001f0:	00000000 	.word	0x00000000

080001f4 <mbed::DigitalOut::DigitalOut(PinName)>:
 80001f4:	b538      	push	{r3, r4, r5, lr}
 80001f6:	221c      	movs	r2, #28
 80001f8:	4604      	mov	r4, r0
 80001fa:	460d      	mov	r5, r1
 80001fc:	2100      	movs	r1, #0
 80001fe:	f004 fa16 	bl	800462e <memset>
 8000202:	4620      	mov	r0, r4
 8000204:	4629      	mov	r1, r5
 8000206:	f000 f862 	bl	80002ce <gpio_init_out>
 800020a:	4620      	mov	r0, r4
 800020c:	bd38      	pop	{r3, r4, r5, pc}

0800020e <main>:
 800020e:	b500      	push	{lr}
 8000210:	b097      	sub	sp, #92	; 0x5c
 8000212:	2105      	movs	r1, #5
 8000214:	a801      	add	r0, sp, #4
 8000216:	f7ff ffed 	bl	80001f4 <mbed::DigitalOut::DigitalOut(PinName)>
 800021a:	2105      	movs	r1, #5
 800021c:	a808      	add	r0, sp, #32
 800021e:	f7ff ffe9 	bl	80001f4 <mbed::DigitalOut::DigitalOut(PinName)>
 8000222:	2105      	movs	r1, #5
 8000224:	a80f      	add	r0, sp, #60	; 0x3c
 8000226:	f7ff ffe5 	bl	80001f4 <mbed::DigitalOut::DigitalOut(PinName)>
 800022a:	9b04      	ldr	r3, [sp, #16]
 800022c:	9a01      	ldr	r2, [sp, #4]
 800022e:	601a      	str	r2, [r3, #0]
 8000230:	9b0b      	ldr	r3, [sp, #44]	; 0x2c
 8000232:	9a08      	ldr	r2, [sp, #32]
 8000234:	601a      	str	r2, [r3, #0]
 8000236:	9b12      	ldr	r3, [sp, #72]	; 0x48
 8000238:	9a0f      	ldr	r2, [sp, #60]	; 0x3c
 800023a:	601a      	str	r2, [r3, #0]
 800023c:	f04f 507c 	mov.w	r0, #1056964608	; 0x3f000000
 8000240:	f003 fc9a 	bl	8003b78 <wait>
 8000244:	9b03      	ldr	r3, [sp, #12]
 8000246:	9a01      	ldr	r2, [sp, #4]
 8000248:	601a      	str	r2, [r3, #0]
 800024a:	9b0a      	ldr	r3, [sp, #40]	; 0x28
 800024c:	9a08      	ldr	r2, [sp, #32]
 800024e:	601a      	str	r2, [r3, #0]
 8000250:	9b11      	ldr	r3, [sp, #68]	; 0x44
 8000252:	9a0f      	ldr	r2, [sp, #60]	; 0x3c
 8000254:	601a      	str	r2, [r3, #0]
 8000256:	f04f 507c 	mov.w	r0, #1056964608	; 0x3f000000
 800025a:	f003 fc8d 	bl	8003b78 <wait>
 800025e:	e7e4      	b.n	800022a <main+0x1c>

08000260 <_start>:
 8000260:	4807      	ldr	r0, [pc, #28]	; (8000280 <_start+0x20>)
 8000262:	4a08      	ldr	r2, [pc, #32]	; (8000284 <_start+0x24>)
 8000264:	b508      	push	{r3, lr}
 8000266:	1a12      	subs	r2, r2, r0
 8000268:	2100      	movs	r1, #0
 800026a:	f004 f9e0 	bl	800462e <memset>
 800026e:	f003 fd51 	bl	8003d14 <software_init_hook>
 8000272:	f004 f9ad 	bl	80045d0 <__libc_init_array>
 8000276:	f003 fd54 	bl	8003d22 <__wrap_main>
 800027a:	f003 fd8f 	bl	8003d9c <__wrap_exit>
 800027e:	bf00      	nop
 8000280:	20000098 	.word	0x20000098
 8000284:	20002098 	.word	0x20002098

08000288 <_gpio_init_out.part.1>:
 8000288:	b538      	push	{r3, r4, r5, lr}
 800028a:	4604      	mov	r4, r0
 800028c:	460d      	mov	r5, r1
 800028e:	6803      	ldr	r3, [r0, #0]
 8000290:	b15a      	cbz	r2, 80002aa <_gpio_init_out.part.1+0x22>
 8000292:	6882      	ldr	r2, [r0, #8]
 8000294:	6013      	str	r3, [r2, #0]
 8000296:	4620      	mov	r0, r4
 8000298:	2101      	movs	r1, #1
 800029a:	f001 fc97 	bl	8001bcc <gpio_dir>
 800029e:	4629      	mov	r1, r5
 80002a0:	4620      	mov	r0, r4
 80002a2:	e8bd 4038 	ldmia.w	sp!, {r3, r4, r5, lr}
 80002a6:	f001 bc8d 	b.w	8001bc4 <gpio_mode>
 80002aa:	68c2      	ldr	r2, [r0, #12]
 80002ac:	e7f2      	b.n	8000294 <_gpio_init_out.part.1+0xc>

080002ae <gpio_init_out_ex>:
 80002ae:	b570      	push	{r4, r5, r6, lr}
 80002b0:	460e      	mov	r6, r1
 80002b2:	4604      	mov	r4, r0
 80002b4:	4615      	mov	r5, r2
 80002b6:	f001 fc63 	bl	8001b80 <gpio_init>
 80002ba:	3601      	adds	r6, #1
 80002bc:	d006      	beq.n	80002cc <gpio_init_out_ex+0x1e>
 80002be:	462a      	mov	r2, r5
 80002c0:	4620      	mov	r0, r4
 80002c2:	2100      	movs	r1, #0
 80002c4:	e8bd 4070 	ldmia.w	sp!, {r4, r5, r6, lr}
 80002c8:	f7ff bfde 	b.w	8000288 <_gpio_init_out.part.1>
 80002cc:	bd70      	pop	{r4, r5, r6, pc}

080002ce <gpio_init_out>:
 80002ce:	2200      	movs	r2, #0
 80002d0:	f7ff bfed 	b.w	80002ae <gpio_init_out_ex>

080002d4 <us_ticker_irq_handler>:
 80002d4:	4801      	ldr	r0, [pc, #4]	; (80002dc <us_ticker_irq_handler+0x8>)
 80002d6:	f000 b803 	b.w	80002e0 <ticker_irq_handler>
 80002da:	bf00      	nop
 80002dc:	080048e4 	.word	0x080048e4

080002e0 <ticker_irq_handler>:
 80002e0:	6803      	ldr	r3, [r0, #0]
 80002e2:	b570      	push	{r4, r5, r6, lr}
 80002e4:	68db      	ldr	r3, [r3, #12]
 80002e6:	4604      	mov	r4, r0
 80002e8:	4798      	blx	r3
 80002ea:	6863      	ldr	r3, [r4, #4]
 80002ec:	685a      	ldr	r2, [r3, #4]
 80002ee:	6823      	ldr	r3, [r4, #0]
 80002f0:	b91a      	cbnz	r2, 80002fa <ticker_irq_handler+0x1a>
 80002f2:	689b      	ldr	r3, [r3, #8]
 80002f4:	e8bd 4070 	ldmia.w	sp!, {r4, r5, r6, lr}
 80002f8:	4718      	bx	r3
 80002fa:	685b      	ldr	r3, [r3, #4]
 80002fc:	6815      	ldr	r5, [r2, #0]
 80002fe:	4798      	blx	r3
 8000300:	6863      	ldr	r3, [r4, #4]
 8000302:	1a28      	subs	r0, r5, r0
 8000304:	2800      	cmp	r0, #0
 8000306:	685a      	ldr	r2, [r3, #4]
 8000308:	dc07      	bgt.n	800031a <ticker_irq_handler+0x3a>
 800030a:	6891      	ldr	r1, [r2, #8]
 800030c:	6059      	str	r1, [r3, #4]
 800030e:	681b      	ldr	r3, [r3, #0]
 8000310:	2b00      	cmp	r3, #0
 8000312:	d0ea      	beq.n	80002ea <ticker_irq_handler+0xa>
 8000314:	6850      	ldr	r0, [r2, #4]
 8000316:	4798      	blx	r3
 8000318:	e7e7      	b.n	80002ea <ticker_irq_handler+0xa>
 800031a:	6823      	ldr	r3, [r4, #0]
 800031c:	6810      	ldr	r0, [r2, #0]
 800031e:	691b      	ldr	r3, [r3, #16]
 8000320:	e8bd 4070 	ldmia.w	sp!, {r4, r5, r6, lr}
 8000324:	4718      	bx	r3
	...

08000328 <pinmap_pinout>:
 8000328:	b510      	push	{r4, lr}
 800032a:	4604      	mov	r4, r0
 800032c:	3001      	adds	r0, #1
 800032e:	d10d      	bne.n	800034c <pinmap_pinout+0x24>
 8000330:	bd10      	pop	{r4, pc}
 8000332:	429c      	cmp	r4, r3
 8000334:	d109      	bne.n	800034a <pinmap_pinout+0x22>
 8000336:	4620      	mov	r0, r4
 8000338:	6889      	ldr	r1, [r1, #8]
 800033a:	f001 fd63 	bl	8001e04 <pin_function>
 800033e:	4620      	mov	r0, r4
 8000340:	2100      	movs	r1, #0
 8000342:	e8bd 4010 	ldmia.w	sp!, {r4, lr}
 8000346:	f001 bde7 	b.w	8001f18 <pin_mode>
 800034a:	310c      	adds	r1, #12
 800034c:	f9b1 3000 	ldrsh.w	r3, [r1]
 8000350:	1c5a      	adds	r2, r3, #1
 8000352:	d1ee      	bne.n	8000332 <pinmap_pinout+0xa>
 8000354:	4802      	ldr	r0, [pc, #8]	; (8000360 <pinmap_pinout+0x38>)
 8000356:	e8bd 4010 	ldmia.w	sp!, {r4, lr}
 800035a:	f000 b857 	b.w	800040c <error>
 800035e:	bf00      	nop
 8000360:	08004931 	.word	0x08004931

08000364 <pinmap_merge>:
 8000364:	4288      	cmp	r0, r1
 8000366:	b508      	push	{r3, lr}
 8000368:	d008      	beq.n	800037c <pinmap_merge+0x18>
 800036a:	1c43      	adds	r3, r0, #1
 800036c:	d006      	beq.n	800037c <pinmap_merge+0x18>
 800036e:	3101      	adds	r1, #1
 8000370:	d006      	beq.n	8000380 <pinmap_merge+0x1c>
 8000372:	4804      	ldr	r0, [pc, #16]	; (8000384 <pinmap_merge+0x20>)
 8000374:	f000 f84a 	bl	800040c <error>
 8000378:	f04f 31ff 	mov.w	r1, #4294967295	; 0xffffffff
 800037c:	4608      	mov	r0, r1
 800037e:	bd08      	pop	{r3, pc}
 8000380:	4601      	mov	r1, r0
 8000382:	e7fb      	b.n	800037c <pinmap_merge+0x18>
 8000384:	08004900 	.word	0x08004900

08000388 <pinmap_find_peripheral>:
 8000388:	f9b1 3000 	ldrsh.w	r3, [r1]
 800038c:	1c5a      	adds	r2, r3, #1
 800038e:	d101      	bne.n	8000394 <pinmap_find_peripheral+0xc>
 8000390:	4618      	mov	r0, r3
 8000392:	4770      	bx	lr
 8000394:	4283      	cmp	r3, r0
 8000396:	d101      	bne.n	800039c <pinmap_find_peripheral+0x14>
 8000398:	6848      	ldr	r0, [r1, #4]
 800039a:	4770      	bx	lr
 800039c:	310c      	adds	r1, #12
 800039e:	e7f3      	b.n	8000388 <pinmap_find_peripheral>

080003a0 <pinmap_peripheral>:
 80003a0:	1c42      	adds	r2, r0, #1
 80003a2:	b510      	push	{r4, lr}
 80003a4:	4604      	mov	r4, r0
 80003a6:	d007      	beq.n	80003b8 <pinmap_peripheral+0x18>
 80003a8:	f7ff ffee 	bl	8000388 <pinmap_find_peripheral>
 80003ac:	1c43      	adds	r3, r0, #1
 80003ae:	4604      	mov	r4, r0
 80003b0:	d102      	bne.n	80003b8 <pinmap_peripheral+0x18>
 80003b2:	4802      	ldr	r0, [pc, #8]	; (80003bc <pinmap_peripheral+0x1c>)
 80003b4:	f000 f82a 	bl	800040c <error>
 80003b8:	4620      	mov	r0, r4
 80003ba:	bd10      	pop	{r4, pc}
 80003bc:	08004911 	.word	0x08004911

080003c0 <mbed_die>:
 80003c0:	b508      	push	{r3, lr}
 80003c2:	f000 f80d 	bl	80003e0 <core_util_critical_section_enter>
 80003c6:	2096      	movs	r0, #150	; 0x96
 80003c8:	f003 fbe4 	bl	8003b94 <wait_ms>
 80003cc:	2096      	movs	r0, #150	; 0x96
 80003ce:	f003 fbe1 	bl	8003b94 <wait_ms>
 80003d2:	e7f8      	b.n	80003c6 <mbed_die+0x6>

080003d4 <core_util_are_interrupts_enabled>:
 80003d4:	f3ef 8010 	mrs	r0, PRIMASK
 80003d8:	43c0      	mvns	r0, r0
 80003da:	f000 0001 	and.w	r0, r0, #1
 80003de:	4770      	bx	lr

080003e0 <core_util_critical_section_enter>:
 80003e0:	b508      	push	{r3, lr}
 80003e2:	f7ff fff7 	bl	80003d4 <core_util_are_interrupts_enabled>
 80003e6:	b672      	cpsid	i
 80003e8:	4b06      	ldr	r3, [pc, #24]	; (8000404 <core_util_critical_section_enter+0x24>)
 80003ea:	681a      	ldr	r2, [r3, #0]
 80003ec:	b922      	cbnz	r2, 80003f8 <core_util_critical_section_enter+0x18>
 80003ee:	f080 0001 	eor.w	r0, r0, #1
 80003f2:	4a05      	ldr	r2, [pc, #20]	; (8000408 <core_util_critical_section_enter+0x28>)
 80003f4:	b2c0      	uxtb	r0, r0
 80003f6:	7010      	strb	r0, [r2, #0]
 80003f8:	681a      	ldr	r2, [r3, #0]
 80003fa:	681a      	ldr	r2, [r3, #0]
 80003fc:	3201      	adds	r2, #1
 80003fe:	601a      	str	r2, [r3, #0]
 8000400:	bd08      	pop	{r3, pc}
 8000402:	bf00      	nop
 8000404:	200000c0 	.word	0x200000c0
 8000408:	200000bc 	.word	0x200000bc

0800040c <error>:
 800040c:	b40f      	push	{r0, r1, r2, r3}
 800040e:	2001      	movs	r0, #1
 8000410:	b508      	push	{r3, lr}
 8000412:	f003 fcc3 	bl	8003d9c <__wrap_exit>

08000416 <default_idle_hook>:
 8000416:	f001 bc02 	b.w	8001c1e <hal_sleep>
	...

0800041c <rtos_idle_loop>:
 800041c:	b508      	push	{r3, lr}
 800041e:	4c02      	ldr	r4, [pc, #8]	; (8000428 <rtos_idle_loop+0xc>)
 8000420:	6823      	ldr	r3, [r4, #0]
 8000422:	4798      	blx	r3
 8000424:	e7fc      	b.n	8000420 <rtos_idle_loop+0x4>
 8000426:	bf00      	nop
 8000428:	20000004 	.word	0x20000004

0800042c <pre_main>:
 800042c:	b508      	push	{r3, lr}
 800042e:	480b      	ldr	r0, [pc, #44]	; (800045c <pre_main+0x30>)
 8000430:	f000 fd9c 	bl	8000f6c <osMutexCreate>
 8000434:	4b0a      	ldr	r3, [pc, #40]	; (8000460 <pre_main+0x34>)
 8000436:	6018      	str	r0, [r3, #0]
 8000438:	480a      	ldr	r0, [pc, #40]	; (8000464 <pre_main+0x38>)
 800043a:	f000 fd97 	bl	8000f6c <osMutexCreate>
 800043e:	4b0a      	ldr	r3, [pc, #40]	; (8000468 <pre_main+0x3c>)
 8000440:	6018      	str	r0, [r3, #0]
 8000442:	480a      	ldr	r0, [pc, #40]	; (800046c <pre_main+0x40>)
 8000444:	f000 fd92 	bl	8000f6c <osMutexCreate>
 8000448:	4b09      	ldr	r3, [pc, #36]	; (8000470 <pre_main+0x44>)
 800044a:	6018      	str	r0, [r3, #0]
 800044c:	f004 f8c0 	bl	80045d0 <__libc_init_array>
 8000450:	2100      	movs	r1, #0
 8000452:	4608      	mov	r0, r1
 8000454:	e8bd 4008 	ldmia.w	sp!, {r3, lr}
 8000458:	f003 bc63 	b.w	8003d22 <__wrap_main>
 800045c:	08004990 	.word	0x08004990
 8000460:	20001630 	.word	0x20001630
 8000464:	0800498c 	.word	0x0800498c
 8000468:	200000cc 	.word	0x200000cc
 800046c:	08004988 	.word	0x08004988
 8000470:	200000c4 	.word	0x200000c4

08000474 <os_idle_demon>:
 8000474:	f7ff bfd2 	b.w	800041c <rtos_idle_loop>

08000478 <os_error>:
 8000478:	b510      	push	{r4, lr}
 800047a:	4604      	mov	r4, r0
 800047c:	f000 fce4 	bl	8000e48 <svcThreadGetId>
 8000480:	4621      	mov	r1, r4
 8000482:	4602      	mov	r2, r0
 8000484:	e8bd 4010 	ldmia.w	sp!, {r4, lr}
 8000488:	4801      	ldr	r0, [pc, #4]	; (8000490 <os_error+0x18>)
 800048a:	f7ff bfbf 	b.w	800040c <error>
 800048e:	bf00      	nop
 8000490:	08004950 	.word	0x08004950

08000494 <sysThreadTerminate>:
 8000494:	f003 bc8e 	b.w	8003db4 <thread_terminate_hook>

08000498 <set_stack_heap>:
 8000498:	4a0b      	ldr	r2, [pc, #44]	; (80004c8 <set_stack_heap+0x30>)
 800049a:	4b0c      	ldr	r3, [pc, #48]	; (80004cc <set_stack_heap+0x34>)
 800049c:	480c      	ldr	r0, [pc, #48]	; (80004d0 <set_stack_heap+0x38>)
 800049e:	b430      	push	{r4, r5}
 80004a0:	601a      	str	r2, [r3, #0]
 80004a2:	f1c2 5300 	rsb	r3, r2, #536870912	; 0x20000000
 80004a6:	f503 33c0 	add.w	r3, r3, #98304	; 0x18000
 80004aa:	f5b3 6f80 	cmp.w	r3, #1024	; 0x400
 80004ae:	4619      	mov	r1, r3
 80004b0:	bf28      	it	cs
 80004b2:	f44f 6180 	movcs.w	r1, #1024	; 0x400
 80004b6:	4d07      	ldr	r5, [pc, #28]	; (80004d4 <set_stack_heap+0x3c>)
 80004b8:	4c07      	ldr	r4, [pc, #28]	; (80004d8 <set_stack_heap+0x40>)
 80004ba:	6001      	str	r1, [r0, #0]
 80004bc:	1a5b      	subs	r3, r3, r1
 80004be:	441a      	add	r2, r3
 80004c0:	602a      	str	r2, [r5, #0]
 80004c2:	6023      	str	r3, [r4, #0]
 80004c4:	bc30      	pop	{r4, r5}
 80004c6:	4770      	bx	lr
 80004c8:	20002098 	.word	0x20002098
 80004cc:	20001598 	.word	0x20001598
 80004d0:	200000d0 	.word	0x200000d0
 80004d4:	200000d4 	.word	0x200000d4
 80004d8:	20001594 	.word	0x20001594

080004dc <software_init_hook_rtos>:
 80004dc:	f000 fe1a 	bl	8001114 <osKernelInitialize>
 80004e0:	f7ff ffda 	bl	8000498 <set_stack_heap>
 80004e4:	4803      	ldr	r0, [pc, #12]	; (80004f4 <software_init_hook_rtos+0x18>)
 80004e6:	2100      	movs	r1, #0
 80004e8:	f000 fdc8 	bl	800107c <osThreadCreate>
 80004ec:	f000 fc2e 	bl	8000d4c <osKernelStart>
 80004f0:	e7fe      	b.n	80004f0 <software_init_hook_rtos+0x14>
 80004f2:	0000      	.short	0x0000
 80004f4:	20000008 	.word	0x20000008

080004f8 <__rtos_malloc_lock>:
 80004f8:	4b02      	ldr	r3, [pc, #8]	; (8000504 <__rtos_malloc_lock+0xc>)
 80004fa:	f04f 31ff 	mov.w	r1, #4294967295	; 0xffffffff
 80004fe:	6818      	ldr	r0, [r3, #0]
 8000500:	f000 bd52 	b.w	8000fa8 <osMutexWait>
 8000504:	200000cc 	.word	0x200000cc

08000508 <__rtos_malloc_unlock>:
 8000508:	4b01      	ldr	r3, [pc, #4]	; (8000510 <__rtos_malloc_unlock+0x8>)
 800050a:	6818      	ldr	r0, [r3, #0]
 800050c:	f000 bd74 	b.w	8000ff8 <osMutexRelease>
 8000510:	200000cc 	.word	0x200000cc

08000514 <rt_put_prio>:
 8000514:	b530      	push	{r4, r5, lr}
 8000516:	7802      	ldrb	r2, [r0, #0]
 8000518:	788c      	ldrb	r4, [r1, #2]
 800051a:	6843      	ldr	r3, [r0, #4]
 800051c:	3a01      	subs	r2, #1
 800051e:	b2d2      	uxtb	r2, r2
 8000520:	b113      	cbz	r3, 8000528 <rt_put_prio+0x14>
 8000522:	789d      	ldrb	r5, [r3, #2]
 8000524:	42a5      	cmp	r5, r4
 8000526:	d207      	bcs.n	8000538 <rt_put_prio+0x24>
 8000528:	2a02      	cmp	r2, #2
 800052a:	604b      	str	r3, [r1, #4]
 800052c:	6041      	str	r1, [r0, #4]
 800052e:	d806      	bhi.n	800053e <rt_put_prio+0x2a>
 8000530:	b103      	cbz	r3, 8000534 <rt_put_prio+0x20>
 8000532:	6099      	str	r1, [r3, #8]
 8000534:	6088      	str	r0, [r1, #8]
 8000536:	bd30      	pop	{r4, r5, pc}
 8000538:	4618      	mov	r0, r3
 800053a:	685b      	ldr	r3, [r3, #4]
 800053c:	e7f0      	b.n	8000520 <rt_put_prio+0xc>
 800053e:	2300      	movs	r3, #0
 8000540:	608b      	str	r3, [r1, #8]
 8000542:	bd30      	pop	{r4, r5, pc}

08000544 <rt_get_first>:
 8000544:	7802      	ldrb	r2, [r0, #0]
 8000546:	6843      	ldr	r3, [r0, #4]
 8000548:	3a01      	subs	r2, #1
 800054a:	6859      	ldr	r1, [r3, #4]
 800054c:	6041      	str	r1, [r0, #4]
 800054e:	2a02      	cmp	r2, #2
 8000550:	f04f 0200 	mov.w	r2, #0
 8000554:	d805      	bhi.n	8000562 <rt_get_first+0x1e>
 8000556:	b109      	cbz	r1, 800055c <rt_get_first+0x18>
 8000558:	6088      	str	r0, [r1, #8]
 800055a:	605a      	str	r2, [r3, #4]
 800055c:	609a      	str	r2, [r3, #8]
 800055e:	4618      	mov	r0, r3
 8000560:	4770      	bx	lr
 8000562:	605a      	str	r2, [r3, #4]
 8000564:	e7fb      	b.n	800055e <rt_get_first+0x1a>
	...

08000568 <rt_put_rdy_first>:
 8000568:	4b03      	ldr	r3, [pc, #12]	; (8000578 <rt_put_rdy_first+0x10>)
 800056a:	685a      	ldr	r2, [r3, #4]
 800056c:	6042      	str	r2, [r0, #4]
 800056e:	2200      	movs	r2, #0
 8000570:	6082      	str	r2, [r0, #8]
 8000572:	6058      	str	r0, [r3, #4]
 8000574:	4770      	bx	lr
 8000576:	bf00      	nop
 8000578:	20001f70 	.word	0x20001f70

0800057c <rt_put_dly>:
 800057c:	4b10      	ldr	r3, [pc, #64]	; (80005c0 <rt_put_dly+0x44>)
 800057e:	68da      	ldr	r2, [r3, #12]
 8000580:	b510      	push	{r4, lr}
 8000582:	b18a      	cbz	r2, 80005a8 <rt_put_dly+0x2c>
 8000584:	8a9a      	ldrh	r2, [r3, #20]
 8000586:	68dc      	ldr	r4, [r3, #12]
 8000588:	428a      	cmp	r2, r1
 800058a:	d30c      	bcc.n	80005a6 <rt_put_dly+0x2a>
 800058c:	60c4      	str	r4, [r0, #12]
 800058e:	60d8      	str	r0, [r3, #12]
 8000590:	68c4      	ldr	r4, [r0, #12]
 8000592:	6103      	str	r3, [r0, #16]
 8000594:	b104      	cbz	r4, 8000598 <rt_put_dly+0x1c>
 8000596:	6120      	str	r0, [r4, #16]
 8000598:	1a52      	subs	r2, r2, r1
 800059a:	b292      	uxth	r2, r2
 800059c:	8282      	strh	r2, [r0, #20]
 800059e:	8a99      	ldrh	r1, [r3, #20]
 80005a0:	1a8a      	subs	r2, r1, r2
 80005a2:	829a      	strh	r2, [r3, #20]
 80005a4:	bd10      	pop	{r4, pc}
 80005a6:	b93c      	cbnz	r4, 80005b8 <rt_put_dly+0x3c>
 80005a8:	2400      	movs	r4, #0
 80005aa:	1a8a      	subs	r2, r1, r2
 80005ac:	60c4      	str	r4, [r0, #12]
 80005ae:	60d8      	str	r0, [r3, #12]
 80005b0:	6103      	str	r3, [r0, #16]
 80005b2:	829a      	strh	r2, [r3, #20]
 80005b4:	8284      	strh	r4, [r0, #20]
 80005b6:	bd10      	pop	{r4, pc}
 80005b8:	8aa3      	ldrh	r3, [r4, #20]
 80005ba:	441a      	add	r2, r3
 80005bc:	4623      	mov	r3, r4
 80005be:	e7e2      	b.n	8000586 <rt_put_dly+0xa>
 80005c0:	20001f88 	.word	0x20001f88

080005c4 <rt_dec_dly>:
 80005c4:	e92d 41f0 	stmdb	sp!, {r4, r5, r6, r7, r8, lr}
 80005c8:	4d17      	ldr	r5, [pc, #92]	; (8000628 <rt_dec_dly+0x64>)
 80005ca:	68eb      	ldr	r3, [r5, #12]
 80005cc:	b153      	cbz	r3, 80005e4 <rt_dec_dly+0x20>
 80005ce:	8aab      	ldrh	r3, [r5, #20]
 80005d0:	4f16      	ldr	r7, [pc, #88]	; (800062c <rt_dec_dly+0x68>)
 80005d2:	f8df 805c 	ldr.w	r8, [pc, #92]	; 8000630 <rt_dec_dly+0x6c>
 80005d6:	3b01      	subs	r3, #1
 80005d8:	82ab      	strh	r3, [r5, #20]
 80005da:	2600      	movs	r6, #0
 80005dc:	8aaa      	ldrh	r2, [r5, #20]
 80005de:	b90a      	cbnz	r2, 80005e4 <rt_dec_dly+0x20>
 80005e0:	68ec      	ldr	r4, [r5, #12]
 80005e2:	b90c      	cbnz	r4, 80005e8 <rt_dec_dly+0x24>
 80005e4:	e8bd 81f0 	ldmia.w	sp!, {r4, r5, r6, r7, r8, pc}
 80005e8:	68a3      	ldr	r3, [r4, #8]
 80005ea:	b133      	cbz	r3, 80005fa <rt_dec_dly+0x36>
 80005ec:	6861      	ldr	r1, [r4, #4]
 80005ee:	6059      	str	r1, [r3, #4]
 80005f0:	6861      	ldr	r1, [r4, #4]
 80005f2:	b109      	cbz	r1, 80005f8 <rt_dec_dly+0x34>
 80005f4:	608b      	str	r3, [r1, #8]
 80005f6:	6062      	str	r2, [r4, #4]
 80005f8:	60a6      	str	r6, [r4, #8]
 80005fa:	4621      	mov	r1, r4
 80005fc:	4638      	mov	r0, r7
 80005fe:	f7ff ff89 	bl	8000514 <rt_put_prio>
 8000602:	8aa3      	ldrh	r3, [r4, #20]
 8000604:	82ab      	strh	r3, [r5, #20]
 8000606:	7863      	ldrb	r3, [r4, #1]
 8000608:	2b04      	cmp	r3, #4
 800060a:	bf01      	itttt	eq
 800060c:	f8d8 3000 	ldreq.w	r3, [r8]
 8000610:	8ae2      	ldrheq	r2, [r4, #22]
 8000612:	189b      	addeq	r3, r3, r2
 8000614:	82a3      	strheq	r3, [r4, #20]
 8000616:	2301      	movs	r3, #1
 8000618:	7063      	strb	r3, [r4, #1]
 800061a:	68e3      	ldr	r3, [r4, #12]
 800061c:	60eb      	str	r3, [r5, #12]
 800061e:	b10b      	cbz	r3, 8000624 <rt_dec_dly+0x60>
 8000620:	611d      	str	r5, [r3, #16]
 8000622:	60e6      	str	r6, [r4, #12]
 8000624:	6126      	str	r6, [r4, #16]
 8000626:	e7d9      	b.n	80005dc <rt_dec_dly+0x18>
 8000628:	20001f88 	.word	0x20001f88
 800062c:	20001f70 	.word	0x20001f70
 8000630:	20002004 	.word	0x20002004

08000634 <rt_rmv_list>:
 8000634:	6883      	ldr	r3, [r0, #8]
 8000636:	b12b      	cbz	r3, 8000644 <rt_rmv_list+0x10>
 8000638:	6842      	ldr	r2, [r0, #4]
 800063a:	605a      	str	r2, [r3, #4]
 800063c:	6842      	ldr	r2, [r0, #4]
 800063e:	b15a      	cbz	r2, 8000658 <rt_rmv_list+0x24>
 8000640:	6093      	str	r3, [r2, #8]
 8000642:	4770      	bx	lr
 8000644:	4b05      	ldr	r3, [pc, #20]	; (800065c <rt_rmv_list+0x28>)
 8000646:	685a      	ldr	r2, [r3, #4]
 8000648:	4290      	cmp	r0, r2
 800064a:	d102      	bne.n	8000652 <rt_rmv_list+0x1e>
 800064c:	6842      	ldr	r2, [r0, #4]
 800064e:	605a      	str	r2, [r3, #4]
 8000650:	4770      	bx	lr
 8000652:	4613      	mov	r3, r2
 8000654:	2a00      	cmp	r2, #0
 8000656:	d1f6      	bne.n	8000646 <rt_rmv_list+0x12>
 8000658:	4770      	bx	lr
 800065a:	bf00      	nop
 800065c:	20001f70 	.word	0x20001f70

08000660 <rt_resort_prio>:
 8000660:	b510      	push	{r4, lr}
 8000662:	6884      	ldr	r4, [r0, #8]
 8000664:	4601      	mov	r1, r0
 8000666:	b92c      	cbnz	r4, 8000674 <rt_resort_prio+0x14>
 8000668:	7843      	ldrb	r3, [r0, #1]
 800066a:	2b01      	cmp	r3, #1
 800066c:	d10d      	bne.n	800068a <rt_resort_prio+0x2a>
 800066e:	4c07      	ldr	r4, [pc, #28]	; (800068c <rt_resort_prio+0x2c>)
 8000670:	e003      	b.n	800067a <rt_resort_prio+0x1a>
 8000672:	68a4      	ldr	r4, [r4, #8]
 8000674:	7823      	ldrb	r3, [r4, #0]
 8000676:	2b00      	cmp	r3, #0
 8000678:	d0fb      	beq.n	8000672 <rt_resort_prio+0x12>
 800067a:	4608      	mov	r0, r1
 800067c:	f7ff ffda 	bl	8000634 <rt_rmv_list>
 8000680:	4620      	mov	r0, r4
 8000682:	e8bd 4010 	ldmia.w	sp!, {r4, lr}
 8000686:	f7ff bf45 	b.w	8000514 <rt_put_prio>
 800068a:	bd10      	pop	{r4, pc}
 800068c:	20001f70 	.word	0x20001f70

08000690 <rt_rmv_dly>:
 8000690:	6903      	ldr	r3, [r0, #16]
 8000692:	b510      	push	{r4, lr}
 8000694:	b163      	cbz	r3, 80006b0 <rt_rmv_dly+0x20>
 8000696:	68c2      	ldr	r2, [r0, #12]
 8000698:	60da      	str	r2, [r3, #12]
 800069a:	68c2      	ldr	r2, [r0, #12]
 800069c:	b14a      	cbz	r2, 80006b2 <rt_rmv_dly+0x22>
 800069e:	8a99      	ldrh	r1, [r3, #20]
 80006a0:	8a84      	ldrh	r4, [r0, #20]
 80006a2:	4421      	add	r1, r4
 80006a4:	8299      	strh	r1, [r3, #20]
 80006a6:	6113      	str	r3, [r2, #16]
 80006a8:	2300      	movs	r3, #0
 80006aa:	60c3      	str	r3, [r0, #12]
 80006ac:	2300      	movs	r3, #0
 80006ae:	6103      	str	r3, [r0, #16]
 80006b0:	bd10      	pop	{r4, pc}
 80006b2:	829a      	strh	r2, [r3, #20]
 80006b4:	e7fa      	b.n	80006ac <rt_rmv_dly+0x1c>
	...

080006b8 <rt_psq_enq>:
 80006b8:	b470      	push	{r4, r5, r6}
 80006ba:	4b11      	ldr	r3, [pc, #68]	; (8000700 <rt_psq_enq+0x48>)
 80006bc:	78dd      	ldrb	r5, [r3, #3]
 80006be:	f3ef 8610 	mrs	r6, PRIMASK
 80006c2:	f3ef 8210 	mrs	r2, PRIMASK
 80006c6:	b672      	cpsid	i
 80006c8:	789a      	ldrb	r2, [r3, #2]
 80006ca:	4295      	cmp	r5, r2
 80006cc:	d911      	bls.n	80006f2 <rt_psq_enq+0x3a>
 80006ce:	3201      	adds	r2, #1
 80006d0:	709a      	strb	r2, [r3, #2]
 80006d2:	781a      	ldrb	r2, [r3, #0]
 80006d4:	1c54      	adds	r4, r2, #1
 80006d6:	42a5      	cmp	r5, r4
 80006d8:	bf08      	it	eq
 80006da:	2400      	moveq	r4, #0
 80006dc:	701c      	strb	r4, [r3, #0]
 80006de:	b906      	cbnz	r6, 80006e2 <rt_psq_enq+0x2a>
 80006e0:	b662      	cpsie	i
 80006e2:	4295      	cmp	r5, r2
 80006e4:	d907      	bls.n	80006f6 <rt_psq_enq+0x3e>
 80006e6:	eb03 03c2 	add.w	r3, r3, r2, lsl #3
 80006ea:	bc70      	pop	{r4, r5, r6}
 80006ec:	6058      	str	r0, [r3, #4]
 80006ee:	6099      	str	r1, [r3, #8]
 80006f0:	4770      	bx	lr
 80006f2:	2e00      	cmp	r6, #0
 80006f4:	d0f4      	beq.n	80006e0 <rt_psq_enq+0x28>
 80006f6:	2002      	movs	r0, #2
 80006f8:	bc70      	pop	{r4, r5, r6}
 80006fa:	f7ff bebd 	b.w	8000478 <os_error>
 80006fe:	bf00      	nop
 8000700:	200015a8 	.word	0x200015a8

08000704 <rt_psh_req>:
 8000704:	4b05      	ldr	r3, [pc, #20]	; (800071c <rt_psh_req+0x18>)
 8000706:	781b      	ldrb	r3, [r3, #0]
 8000708:	b923      	cbnz	r3, 8000714 <rt_psh_req+0x10>
 800070a:	4b05      	ldr	r3, [pc, #20]	; (8000720 <rt_psh_req+0x1c>)
 800070c:	f04f 5280 	mov.w	r2, #268435456	; 0x10000000
 8000710:	601a      	str	r2, [r3, #0]
 8000712:	4770      	bx	lr
 8000714:	4b03      	ldr	r3, [pc, #12]	; (8000724 <rt_psh_req+0x20>)
 8000716:	2201      	movs	r2, #1
 8000718:	701a      	strb	r2, [r3, #0]
 800071a:	4770      	bx	lr
 800071c:	20001128 	.word	0x20001128
 8000720:	e000ed04 	.word	0xe000ed04
 8000724:	20001129 	.word	0x20001129

08000728 <rt_pop_req>:
 8000728:	b538      	push	{r3, r4, r5, lr}
 800072a:	4b1a      	ldr	r3, [pc, #104]	; (8000794 <rt_pop_req+0x6c>)
 800072c:	4c1a      	ldr	r4, [pc, #104]	; (8000798 <rt_pop_req+0x70>)
 800072e:	6818      	ldr	r0, [r3, #0]
 8000730:	2301      	movs	r3, #1
 8000732:	7043      	strb	r3, [r0, #1]
 8000734:	f7ff ff18 	bl	8000568 <rt_put_rdy_first>
 8000738:	7865      	ldrb	r5, [r4, #1]
 800073a:	78a3      	ldrb	r3, [r4, #2]
 800073c:	b93b      	cbnz	r3, 800074e <rt_pop_req+0x26>
 800073e:	4817      	ldr	r0, [pc, #92]	; (800079c <rt_pop_req+0x74>)
 8000740:	7065      	strb	r5, [r4, #1]
 8000742:	f7ff feff 	bl	8000544 <rt_get_first>
 8000746:	e8bd 4038 	ldmia.w	sp!, {r3, r4, r5, lr}
 800074a:	f000 bdbd 	b.w	80012c8 <rt_switch_req>
 800074e:	eb04 03c5 	add.w	r3, r4, r5, lsl #3
 8000752:	6858      	ldr	r0, [r3, #4]
 8000754:	7802      	ldrb	r2, [r0, #0]
 8000756:	b99a      	cbnz	r2, 8000780 <rt_pop_req+0x58>
 8000758:	8919      	ldrh	r1, [r3, #8]
 800075a:	f000 fa1b 	bl	8000b94 <rt_evt_psh>
 800075e:	78e3      	ldrb	r3, [r4, #3]
 8000760:	3501      	adds	r5, #1
 8000762:	429d      	cmp	r5, r3
 8000764:	bf08      	it	eq
 8000766:	2500      	moveq	r5, #0
 8000768:	f3ef 8310 	mrs	r3, PRIMASK
 800076c:	f3ef 8210 	mrs	r2, PRIMASK
 8000770:	b672      	cpsid	i
 8000772:	78a2      	ldrb	r2, [r4, #2]
 8000774:	3a01      	subs	r2, #1
 8000776:	70a2      	strb	r2, [r4, #2]
 8000778:	2b00      	cmp	r3, #0
 800077a:	d1de      	bne.n	800073a <rt_pop_req+0x12>
 800077c:	b662      	cpsie	i
 800077e:	e7dc      	b.n	800073a <rt_pop_req+0x12>
 8000780:	2a01      	cmp	r2, #1
 8000782:	d103      	bne.n	800078c <rt_pop_req+0x64>
 8000784:	6899      	ldr	r1, [r3, #8]
 8000786:	f000 f993 	bl	8000ab0 <rt_mbx_psh>
 800078a:	e7e8      	b.n	800075e <rt_pop_req+0x36>
 800078c:	f001 f8a4 	bl	80018d8 <rt_sem_psh>
 8000790:	e7e5      	b.n	800075e <rt_pop_req+0x36>
 8000792:	bf00      	nop
 8000794:	20001fbc 	.word	0x20001fbc
 8000798:	200015a8 	.word	0x200015a8
 800079c:	20001f70 	.word	0x20001f70

080007a0 <os_tick_init>:
 80007a0:	4b08      	ldr	r3, [pc, #32]	; (80007c4 <os_tick_init+0x24>)
 80007a2:	681a      	ldr	r2, [r3, #0]
 80007a4:	4b08      	ldr	r3, [pc, #32]	; (80007c8 <os_tick_init+0x28>)
 80007a6:	601a      	str	r2, [r3, #0]
 80007a8:	2200      	movs	r2, #0
 80007aa:	605a      	str	r2, [r3, #4]
 80007ac:	2207      	movs	r2, #7
 80007ae:	f843 2c04 	str.w	r2, [r3, #-4]
 80007b2:	4a06      	ldr	r2, [pc, #24]	; (80007cc <os_tick_init+0x2c>)
 80007b4:	6813      	ldr	r3, [r2, #0]
 80007b6:	f043 437f 	orr.w	r3, r3, #4278190080	; 0xff000000
 80007ba:	6013      	str	r3, [r2, #0]
 80007bc:	f04f 30ff 	mov.w	r0, #4294967295	; 0xffffffff
 80007c0:	4770      	bx	lr
 80007c2:	bf00      	nop
 80007c4:	080049b0 	.word	0x080049b0
 80007c8:	e000e014 	.word	0xe000e014
 80007cc:	e000ed20 	.word	0xe000ed20

080007d0 <os_tick_irqack>:
 80007d0:	4770      	bx	lr
	...

080007d4 <rt_systick>:
 80007d4:	b508      	push	{r3, lr}
 80007d6:	4b0b      	ldr	r3, [pc, #44]	; (8000804 <rt_systick+0x30>)
 80007d8:	6818      	ldr	r0, [r3, #0]
 80007da:	2301      	movs	r3, #1
 80007dc:	7043      	strb	r3, [r0, #1]
 80007de:	f7ff fec3 	bl	8000568 <rt_put_rdy_first>
 80007e2:	f000 fa0d 	bl	8000c00 <rt_chk_robin>
 80007e6:	4a08      	ldr	r2, [pc, #32]	; (8000808 <rt_systick+0x34>)
 80007e8:	6813      	ldr	r3, [r2, #0]
 80007ea:	3301      	adds	r3, #1
 80007ec:	6013      	str	r3, [r2, #0]
 80007ee:	f7ff fee9 	bl	80005c4 <rt_dec_dly>
 80007f2:	f000 fcf1 	bl	80011d8 <sysTimerTick>
 80007f6:	4805      	ldr	r0, [pc, #20]	; (800080c <rt_systick+0x38>)
 80007f8:	f7ff fea4 	bl	8000544 <rt_get_first>
 80007fc:	e8bd 4008 	ldmia.w	sp!, {r3, lr}
 8000800:	f000 bd62 	b.w	80012c8 <rt_switch_req>
 8000804:	20001fbc 	.word	0x20001fbc
 8000808:	20002004 	.word	0x20002004
 800080c:	20001f70 	.word	0x20001f70

08000810 <rt_stk_check>:
 8000810:	4b06      	ldr	r3, [pc, #24]	; (800082c <rt_stk_check+0x1c>)
 8000812:	681a      	ldr	r2, [r3, #0]
 8000814:	6b13      	ldr	r3, [r2, #48]	; 0x30
 8000816:	6ad2      	ldr	r2, [r2, #44]	; 0x2c
 8000818:	4293      	cmp	r3, r2
 800081a:	d803      	bhi.n	8000824 <rt_stk_check+0x14>
 800081c:	681a      	ldr	r2, [r3, #0]
 800081e:	4b04      	ldr	r3, [pc, #16]	; (8000830 <rt_stk_check+0x20>)
 8000820:	429a      	cmp	r2, r3
 8000822:	d002      	beq.n	800082a <rt_stk_check+0x1a>
 8000824:	2001      	movs	r0, #1
 8000826:	f7ff be27 	b.w	8000478 <os_error>
 800082a:	4770      	bx	lr
 800082c:	20001fbc 	.word	0x20001fbc
 8000830:	e25a2ea5 	.word	0xe25a2ea5

08000834 <rt_init_stack>:
 8000834:	6a83      	ldr	r3, [r0, #40]	; 0x28
 8000836:	089b      	lsrs	r3, r3, #2
 8000838:	bf04      	itt	eq
 800083a:	4b22      	ldreq	r3, [pc, #136]	; (80008c4 <rt_init_stack+0x90>)
 800083c:	881b      	ldrheq	r3, [r3, #0]
 800083e:	b5f0      	push	{r4, r5, r6, r7, lr}
 8000840:	6b05      	ldr	r5, [r0, #48]	; 0x30
 8000842:	bf08      	it	eq
 8000844:	089b      	lsreq	r3, r3, #2
 8000846:	eb05 0283 	add.w	r2, r5, r3, lsl #2
 800084a:	0754      	lsls	r4, r2, #29
 800084c:	bf48      	it	mi
 800084e:	3a04      	submi	r2, #4
 8000850:	f04f 7680 	mov.w	r6, #16777216	; 0x1000000
 8000854:	e902 0042 	stmdb	r2, {r1, r6}
 8000858:	f1a2 0440 	sub.w	r4, r2, #64	; 0x40
 800085c:	f1a2 0644 	sub.w	r6, r2, #68	; 0x44
 8000860:	f1a2 070c 	sub.w	r7, r2, #12
 8000864:	f04f 0e00 	mov.w	lr, #0
 8000868:	f846 ef04 	str.w	lr, [r6, #4]!
 800086c:	42be      	cmp	r6, r7
 800086e:	d1fb      	bne.n	8000868 <rt_init_stack+0x34>
 8000870:	69c6      	ldr	r6, [r0, #28]
 8000872:	f842 6c20 	str.w	r6, [r2, #-32]
 8000876:	6341      	str	r1, [r0, #52]	; 0x34
 8000878:	4912      	ldr	r1, [pc, #72]	; (80008c4 <rt_init_stack+0x90>)
 800087a:	62c4      	str	r4, [r0, #44]	; 0x2c
 800087c:	6809      	ldr	r1, [r1, #0]
 800087e:	00c9      	lsls	r1, r1, #3
 8000880:	d517      	bpl.n	80008b2 <rt_init_stack+0x7e>
 8000882:	2b11      	cmp	r3, #17
 8000884:	d915      	bls.n	80008b2 <rt_init_stack+0x7e>
 8000886:	3b10      	subs	r3, #16
 8000888:	f06f 0107 	mvn.w	r1, #7
 800088c:	085b      	lsrs	r3, r3, #1
 800088e:	434b      	muls	r3, r1
 8000890:	f1a3 0138 	sub.w	r1, r3, #56	; 0x38
 8000894:	440a      	add	r2, r1
 8000896:	f04f 30cc 	mov.w	r0, #3435973836	; 0xcccccccc
 800089a:	4621      	mov	r1, r4
 800089c:	4291      	cmp	r1, r2
 800089e:	d10b      	bne.n	80008b8 <rt_init_stack+0x84>
 80008a0:	3308      	adds	r3, #8
 80008a2:	441c      	add	r4, r3
 80008a4:	1f23      	subs	r3, r4, #4
 80008a6:	429d      	cmp	r5, r3
 80008a8:	bf3c      	itt	cc
 80008aa:	f04f 33cc 	movcc.w	r3, #3435973836	; 0xcccccccc
 80008ae:	f844 3c04 	strcc.w	r3, [r4, #-4]
 80008b2:	4b05      	ldr	r3, [pc, #20]	; (80008c8 <rt_init_stack+0x94>)
 80008b4:	602b      	str	r3, [r5, #0]
 80008b6:	bdf0      	pop	{r4, r5, r6, r7, pc}
 80008b8:	f841 0c04 	str.w	r0, [r1, #-4]
 80008bc:	f841 0d08 	str.w	r0, [r1, #-8]!
 80008c0:	e7ec      	b.n	800089c <rt_init_stack+0x68>
 80008c2:	bf00      	nop
 80008c4:	08004998 	.word	0x08004998
 80008c8:	e25a2ea5 	.word	0xe25a2ea5

080008cc <rt_ret_val>:
 80008cc:	f890 2025 	ldrb.w	r2, [r0, #37]	; 0x25
 80008d0:	6ac3      	ldr	r3, [r0, #44]	; 0x2c
 80008d2:	b112      	cbz	r2, 80008da <rt_ret_val+0xe>
 80008d4:	3360      	adds	r3, #96	; 0x60
 80008d6:	6019      	str	r1, [r3, #0]
 80008d8:	4770      	bx	lr
 80008da:	3320      	adds	r3, #32
 80008dc:	e7fb      	b.n	80008d6 <rt_ret_val+0xa>

080008de <rt_ret_val2>:
 80008de:	b510      	push	{r4, lr}
 80008e0:	f890 4025 	ldrb.w	r4, [r0, #37]	; 0x25
 80008e4:	6ac3      	ldr	r3, [r0, #44]	; 0x2c
 80008e6:	b11c      	cbz	r4, 80008f0 <rt_ret_val2+0x12>
 80008e8:	3360      	adds	r3, #96	; 0x60
 80008ea:	e883 0006 	stmia.w	r3, {r1, r2}
 80008ee:	bd10      	pop	{r4, pc}
 80008f0:	3320      	adds	r3, #32
 80008f2:	e7fa      	b.n	80008ea <rt_ret_val2+0xc>

080008f4 <_init_box>:
 80008f4:	2a00      	cmp	r2, #0
 80008f6:	bfbb      	ittet	lt
 80008f8:	f022 4200 	biclt.w	r2, r2, #2147483648	; 0x80000000
 80008fc:	3207      	addlt	r2, #7
 80008fe:	3203      	addge	r2, #3
 8000900:	f022 0207 	biclt.w	r2, r2, #7
 8000904:	bfa8      	it	ge
 8000906:	f022 0203 	bicge.w	r2, r2, #3
 800090a:	b510      	push	{r4, lr}
 800090c:	bfb4      	ite	lt
 800090e:	2310      	movlt	r3, #16
 8000910:	230c      	movge	r3, #12
 8000912:	b192      	cbz	r2, 800093a <_init_box+0x46>
 8000914:	18d4      	adds	r4, r2, r3
 8000916:	428c      	cmp	r4, r1
 8000918:	d80f      	bhi.n	800093a <_init_box+0x46>
 800091a:	4401      	add	r1, r0
 800091c:	4403      	add	r3, r0
 800091e:	4254      	negs	r4, r2
 8000920:	6041      	str	r1, [r0, #4]
 8000922:	6003      	str	r3, [r0, #0]
 8000924:	6082      	str	r2, [r0, #8]
 8000926:	4421      	add	r1, r4
 8000928:	1898      	adds	r0, r3, r2
 800092a:	4281      	cmp	r1, r0
 800092c:	d302      	bcc.n	8000934 <_init_box+0x40>
 800092e:	5100      	str	r0, [r0, r4]
 8000930:	4603      	mov	r3, r0
 8000932:	e7f9      	b.n	8000928 <_init_box+0x34>
 8000934:	2000      	movs	r0, #0
 8000936:	6018      	str	r0, [r3, #0]
 8000938:	bd10      	pop	{r4, pc}
 800093a:	2001      	movs	r0, #1
 800093c:	bd10      	pop	{r4, pc}

0800093e <rt_alloc_box>:
 800093e:	f3ef 8310 	mrs	r3, PRIMASK
 8000942:	b672      	cpsid	i
 8000944:	6802      	ldr	r2, [r0, #0]
 8000946:	f003 0301 	and.w	r3, r3, #1
 800094a:	b10a      	cbz	r2, 8000950 <rt_alloc_box+0x12>
 800094c:	6811      	ldr	r1, [r2, #0]
 800094e:	6001      	str	r1, [r0, #0]
 8000950:	b903      	cbnz	r3, 8000954 <rt_alloc_box+0x16>
 8000952:	b662      	cpsie	i
 8000954:	4610      	mov	r0, r2
 8000956:	4770      	bx	lr

08000958 <rt_free_box>:
 8000958:	4281      	cmp	r1, r0
 800095a:	d30d      	bcc.n	8000978 <rt_free_box+0x20>
 800095c:	6843      	ldr	r3, [r0, #4]
 800095e:	4299      	cmp	r1, r3
 8000960:	d20a      	bcs.n	8000978 <rt_free_box+0x20>
 8000962:	f3ef 8310 	mrs	r3, PRIMASK
 8000966:	b672      	cpsid	i
 8000968:	6802      	ldr	r2, [r0, #0]
 800096a:	600a      	str	r2, [r1, #0]
 800096c:	6001      	str	r1, [r0, #0]
 800096e:	f013 0001 	ands.w	r0, r3, #1
 8000972:	d103      	bne.n	800097c <rt_free_box+0x24>
 8000974:	b662      	cpsie	i
 8000976:	4770      	bx	lr
 8000978:	2001      	movs	r0, #1
 800097a:	4770      	bx	lr
 800097c:	2000      	movs	r0, #0
 800097e:	4770      	bx	lr

08000980 <rt_mbx_init>:
 8000980:	2301      	movs	r3, #1
 8000982:	3910      	subs	r1, #16
 8000984:	7003      	strb	r3, [r0, #0]
 8000986:	0889      	lsrs	r1, r1, #2
 8000988:	2300      	movs	r3, #0
 800098a:	7043      	strb	r3, [r0, #1]
 800098c:	7083      	strb	r3, [r0, #2]
 800098e:	6043      	str	r3, [r0, #4]
 8000990:	8103      	strh	r3, [r0, #8]
 8000992:	8143      	strh	r3, [r0, #10]
 8000994:	8183      	strh	r3, [r0, #12]
 8000996:	81c1      	strh	r1, [r0, #14]
 8000998:	4770      	bx	lr
	...

0800099c <rt_mbx_wait>:
 800099c:	b570      	push	{r4, r5, r6, lr}
 800099e:	8985      	ldrh	r5, [r0, #12]
 80009a0:	4604      	mov	r4, r0
 80009a2:	4616      	mov	r6, r2
 80009a4:	2d00      	cmp	r5, #0
 80009a6:	d038      	beq.n	8000a1a <rt_mbx_wait+0x7e>
 80009a8:	8943      	ldrh	r3, [r0, #10]
 80009aa:	1d1a      	adds	r2, r3, #4
 80009ac:	3301      	adds	r3, #1
 80009ae:	f850 2022 	ldr.w	r2, [r0, r2, lsl #2]
 80009b2:	600a      	str	r2, [r1, #0]
 80009b4:	89c2      	ldrh	r2, [r0, #14]
 80009b6:	b29b      	uxth	r3, r3
 80009b8:	429a      	cmp	r2, r3
 80009ba:	8143      	strh	r3, [r0, #10]
 80009bc:	bf04      	itt	eq
 80009be:	2300      	moveq	r3, #0
 80009c0:	8143      	strheq	r3, [r0, #10]
 80009c2:	6843      	ldr	r3, [r0, #4]
 80009c4:	b1f3      	cbz	r3, 8000a04 <rt_mbx_wait+0x68>
 80009c6:	7843      	ldrb	r3, [r0, #1]
 80009c8:	2b02      	cmp	r3, #2
 80009ca:	d11b      	bne.n	8000a04 <rt_mbx_wait+0x68>
 80009cc:	f7ff fdba 	bl	8000544 <rt_get_first>
 80009d0:	2100      	movs	r1, #0
 80009d2:	4605      	mov	r5, r0
 80009d4:	f7ff ff7a 	bl	80008cc <rt_ret_val>
 80009d8:	8923      	ldrh	r3, [r4, #8]
 80009da:	69e9      	ldr	r1, [r5, #28]
 80009dc:	1d1a      	adds	r2, r3, #4
 80009de:	3301      	adds	r3, #1
 80009e0:	f844 1022 	str.w	r1, [r4, r2, lsl #2]
 80009e4:	89e2      	ldrh	r2, [r4, #14]
 80009e6:	b29b      	uxth	r3, r3
 80009e8:	429a      	cmp	r2, r3
 80009ea:	8123      	strh	r3, [r4, #8]
 80009ec:	bf08      	it	eq
 80009ee:	2300      	moveq	r3, #0
 80009f0:	4628      	mov	r0, r5
 80009f2:	bf08      	it	eq
 80009f4:	8123      	strheq	r3, [r4, #8]
 80009f6:	f7ff fe4b 	bl	8000690 <rt_rmv_dly>
 80009fa:	4628      	mov	r0, r5
 80009fc:	f000 fc7e 	bl	80012fc <rt_dispatch>
 8000a00:	2000      	movs	r0, #0
 8000a02:	bd70      	pop	{r4, r5, r6, pc}
 8000a04:	f3ef 8010 	mrs	r0, PRIMASK
 8000a08:	f3ef 8310 	mrs	r3, PRIMASK
 8000a0c:	b672      	cpsid	i
 8000a0e:	3d01      	subs	r5, #1
 8000a10:	81a5      	strh	r5, [r4, #12]
 8000a12:	2800      	cmp	r0, #0
 8000a14:	d1f4      	bne.n	8000a00 <rt_mbx_wait+0x64>
 8000a16:	b662      	cpsie	i
 8000a18:	bd70      	pop	{r4, r5, r6, pc}
 8000a1a:	b14a      	cbz	r2, 8000a30 <rt_mbx_wait+0x94>
 8000a1c:	6842      	ldr	r2, [r0, #4]
 8000a1e:	4b09      	ldr	r3, [pc, #36]	; (8000a44 <rt_mbx_wait+0xa8>)
 8000a20:	b142      	cbz	r2, 8000a34 <rt_mbx_wait+0x98>
 8000a22:	6819      	ldr	r1, [r3, #0]
 8000a24:	f7ff fd76 	bl	8000514 <rt_put_prio>
 8000a28:	2108      	movs	r1, #8
 8000a2a:	4630      	mov	r0, r6
 8000a2c:	f000 fc8a 	bl	8001344 <rt_block>
 8000a30:	2001      	movs	r0, #1
 8000a32:	bd70      	pop	{r4, r5, r6, pc}
 8000a34:	681b      	ldr	r3, [r3, #0]
 8000a36:	6043      	str	r3, [r0, #4]
 8000a38:	605a      	str	r2, [r3, #4]
 8000a3a:	6098      	str	r0, [r3, #8]
 8000a3c:	2301      	movs	r3, #1
 8000a3e:	7043      	strb	r3, [r0, #1]
 8000a40:	e7f2      	b.n	8000a28 <rt_mbx_wait+0x8c>
 8000a42:	bf00      	nop
 8000a44:	20001fbc 	.word	0x20001fbc

08000a48 <rt_mbx_check>:
 8000a48:	89c2      	ldrh	r2, [r0, #14]
 8000a4a:	8980      	ldrh	r0, [r0, #12]
 8000a4c:	1a10      	subs	r0, r2, r0
 8000a4e:	4770      	bx	lr

08000a50 <isr_mbx_send>:
 8000a50:	b508      	push	{r3, lr}
 8000a52:	f7ff fe31 	bl	80006b8 <rt_psq_enq>
 8000a56:	e8bd 4008 	ldmia.w	sp!, {r3, lr}
 8000a5a:	f7ff be53 	b.w	8000704 <rt_psh_req>

08000a5e <isr_mbx_receive>:
 8000a5e:	8983      	ldrh	r3, [r0, #12]
 8000a60:	b510      	push	{r4, lr}
 8000a62:	4604      	mov	r4, r0
 8000a64:	b30b      	cbz	r3, 8000aaa <isr_mbx_receive+0x4c>
 8000a66:	8943      	ldrh	r3, [r0, #10]
 8000a68:	3304      	adds	r3, #4
 8000a6a:	f850 3023 	ldr.w	r3, [r0, r3, lsl #2]
 8000a6e:	600b      	str	r3, [r1, #0]
 8000a70:	7843      	ldrb	r3, [r0, #1]
 8000a72:	2b02      	cmp	r3, #2
 8000a74:	d104      	bne.n	8000a80 <isr_mbx_receive+0x22>
 8000a76:	2100      	movs	r1, #0
 8000a78:	f7ff fe1e 	bl	80006b8 <rt_psq_enq>
 8000a7c:	f7ff fe42 	bl	8000704 <rt_psh_req>
 8000a80:	f3ef 8310 	mrs	r3, PRIMASK
 8000a84:	f3ef 8210 	mrs	r2, PRIMASK
 8000a88:	b672      	cpsid	i
 8000a8a:	89a2      	ldrh	r2, [r4, #12]
 8000a8c:	3a01      	subs	r2, #1
 8000a8e:	81a2      	strh	r2, [r4, #12]
 8000a90:	b903      	cbnz	r3, 8000a94 <isr_mbx_receive+0x36>
 8000a92:	b662      	cpsie	i
 8000a94:	8963      	ldrh	r3, [r4, #10]
 8000a96:	89e2      	ldrh	r2, [r4, #14]
 8000a98:	3301      	adds	r3, #1
 8000a9a:	b29b      	uxth	r3, r3
 8000a9c:	429a      	cmp	r2, r3
 8000a9e:	8163      	strh	r3, [r4, #10]
 8000aa0:	d101      	bne.n	8000aa6 <isr_mbx_receive+0x48>
 8000aa2:	2300      	movs	r3, #0
 8000aa4:	8163      	strh	r3, [r4, #10]
 8000aa6:	2004      	movs	r0, #4
 8000aa8:	bd10      	pop	{r4, pc}
 8000aaa:	4618      	mov	r0, r3
 8000aac:	bd10      	pop	{r4, pc}
	...

08000ab0 <rt_mbx_psh>:
 8000ab0:	6843      	ldr	r3, [r0, #4]
 8000ab2:	b570      	push	{r4, r5, r6, lr}
 8000ab4:	4604      	mov	r4, r0
 8000ab6:	460e      	mov	r6, r1
 8000ab8:	2b00      	cmp	r3, #0
 8000aba:	d04b      	beq.n	8000b54 <rt_mbx_psh+0xa4>
 8000abc:	7845      	ldrb	r5, [r0, #1]
 8000abe:	2d02      	cmp	r5, #2
 8000ac0:	d020      	beq.n	8000b04 <rt_mbx_psh+0x54>
 8000ac2:	2d03      	cmp	r5, #3
 8000ac4:	d00a      	beq.n	8000adc <rt_mbx_psh+0x2c>
 8000ac6:	2d01      	cmp	r5, #1
 8000ac8:	d161      	bne.n	8000b8e <rt_mbx_psh+0xde>
 8000aca:	f7ff fd3b 	bl	8000544 <rt_get_first>
 8000ace:	4604      	mov	r4, r0
 8000ad0:	4632      	mov	r2, r6
 8000ad2:	2110      	movs	r1, #16
 8000ad4:	f7ff ff03 	bl	80008de <rt_ret_val2>
 8000ad8:	7065      	strb	r5, [r4, #1]
 8000ada:	e00e      	b.n	8000afa <rt_mbx_psh+0x4a>
 8000adc:	4608      	mov	r0, r1
 8000ade:	f7ff ff2e 	bl	800093e <rt_alloc_box>
 8000ae2:	4605      	mov	r5, r0
 8000ae4:	2800      	cmp	r0, #0
 8000ae6:	d052      	beq.n	8000b8e <rt_mbx_psh+0xde>
 8000ae8:	4620      	mov	r0, r4
 8000aea:	f7ff fd2b 	bl	8000544 <rt_get_first>
 8000aee:	4629      	mov	r1, r5
 8000af0:	4604      	mov	r4, r0
 8000af2:	f7ff feeb 	bl	80008cc <rt_ret_val>
 8000af6:	2301      	movs	r3, #1
 8000af8:	7063      	strb	r3, [r4, #1]
 8000afa:	4620      	mov	r0, r4
 8000afc:	f7ff fdc8 	bl	8000690 <rt_rmv_dly>
 8000b00:	4621      	mov	r1, r4
 8000b02:	e022      	b.n	8000b4a <rt_mbx_psh+0x9a>
 8000b04:	f7ff fd1e 	bl	8000544 <rt_get_first>
 8000b08:	2100      	movs	r1, #0
 8000b0a:	4605      	mov	r5, r0
 8000b0c:	f7ff fede 	bl	80008cc <rt_ret_val>
 8000b10:	8923      	ldrh	r3, [r4, #8]
 8000b12:	69e9      	ldr	r1, [r5, #28]
 8000b14:	1d1a      	adds	r2, r3, #4
 8000b16:	f844 1022 	str.w	r1, [r4, r2, lsl #2]
 8000b1a:	f3ef 8210 	mrs	r2, PRIMASK
 8000b1e:	f3ef 8110 	mrs	r1, PRIMASK
 8000b22:	b672      	cpsid	i
 8000b24:	89a1      	ldrh	r1, [r4, #12]
 8000b26:	3101      	adds	r1, #1
 8000b28:	81a1      	strh	r1, [r4, #12]
 8000b2a:	b902      	cbnz	r2, 8000b2e <rt_mbx_psh+0x7e>
 8000b2c:	b662      	cpsie	i
 8000b2e:	89e2      	ldrh	r2, [r4, #14]
 8000b30:	3301      	adds	r3, #1
 8000b32:	b29b      	uxth	r3, r3
 8000b34:	429a      	cmp	r2, r3
 8000b36:	8123      	strh	r3, [r4, #8]
 8000b38:	bf04      	itt	eq
 8000b3a:	2300      	moveq	r3, #0
 8000b3c:	8123      	strheq	r3, [r4, #8]
 8000b3e:	2301      	movs	r3, #1
 8000b40:	706b      	strb	r3, [r5, #1]
 8000b42:	4628      	mov	r0, r5
 8000b44:	f7ff fda4 	bl	8000690 <rt_rmv_dly>
 8000b48:	4629      	mov	r1, r5
 8000b4a:	4811      	ldr	r0, [pc, #68]	; (8000b90 <rt_mbx_psh+0xe0>)
 8000b4c:	e8bd 4070 	ldmia.w	sp!, {r4, r5, r6, lr}
 8000b50:	f7ff bce0 	b.w	8000514 <rt_put_prio>
 8000b54:	8980      	ldrh	r0, [r0, #12]
 8000b56:	89e1      	ldrh	r1, [r4, #14]
 8000b58:	4288      	cmp	r0, r1
 8000b5a:	d213      	bcs.n	8000b84 <rt_mbx_psh+0xd4>
 8000b5c:	8923      	ldrh	r3, [r4, #8]
 8000b5e:	1d1a      	adds	r2, r3, #4
 8000b60:	f844 6022 	str.w	r6, [r4, r2, lsl #2]
 8000b64:	f3ef 8210 	mrs	r2, PRIMASK
 8000b68:	f3ef 8510 	mrs	r5, PRIMASK
 8000b6c:	b672      	cpsid	i
 8000b6e:	3001      	adds	r0, #1
 8000b70:	81a0      	strh	r0, [r4, #12]
 8000b72:	b902      	cbnz	r2, 8000b76 <rt_mbx_psh+0xc6>
 8000b74:	b662      	cpsie	i
 8000b76:	3301      	adds	r3, #1
 8000b78:	b29b      	uxth	r3, r3
 8000b7a:	4299      	cmp	r1, r3
 8000b7c:	bf08      	it	eq
 8000b7e:	2300      	moveq	r3, #0
 8000b80:	8123      	strh	r3, [r4, #8]
 8000b82:	bd70      	pop	{r4, r5, r6, pc}
 8000b84:	2003      	movs	r0, #3
 8000b86:	e8bd 4070 	ldmia.w	sp!, {r4, r5, r6, lr}
 8000b8a:	f7ff bc75 	b.w	8000478 <os_error>
 8000b8e:	bd70      	pop	{r4, r5, r6, pc}
 8000b90:	20001f70 	.word	0x20001f70

08000b94 <rt_evt_psh>:
 8000b94:	b510      	push	{r4, lr}
 8000b96:	8b03      	ldrh	r3, [r0, #24]
 8000b98:	7842      	ldrb	r2, [r0, #1]
 8000b9a:	4319      	orrs	r1, r3
 8000b9c:	2a06      	cmp	r2, #6
 8000b9e:	4604      	mov	r4, r0
 8000ba0:	8301      	strh	r1, [r0, #24]
 8000ba2:	8b43      	ldrh	r3, [r0, #26]
 8000ba4:	d115      	bne.n	8000bd2 <rt_evt_psh+0x3e>
 8000ba6:	ea33 0201 	bics.w	r2, r3, r1
 8000baa:	d119      	bne.n	8000be0 <rt_evt_psh+0x4c>
 8000bac:	ea21 0103 	bic.w	r1, r1, r3
 8000bb0:	8321      	strh	r1, [r4, #24]
 8000bb2:	4620      	mov	r0, r4
 8000bb4:	f7ff fd6c 	bl	8000690 <rt_rmv_dly>
 8000bb8:	2301      	movs	r3, #1
 8000bba:	4620      	mov	r0, r4
 8000bbc:	7063      	strb	r3, [r4, #1]
 8000bbe:	8b62      	ldrh	r2, [r4, #26]
 8000bc0:	2108      	movs	r1, #8
 8000bc2:	f7ff fe8c 	bl	80008de <rt_ret_val2>
 8000bc6:	4621      	mov	r1, r4
 8000bc8:	4806      	ldr	r0, [pc, #24]	; (8000be4 <rt_evt_psh+0x50>)
 8000bca:	e8bd 4010 	ldmia.w	sp!, {r4, lr}
 8000bce:	f7ff bca1 	b.w	8000514 <rt_put_prio>
 8000bd2:	2a05      	cmp	r2, #5
 8000bd4:	d104      	bne.n	8000be0 <rt_evt_psh+0x4c>
 8000bd6:	ea11 0203 	ands.w	r2, r1, r3
 8000bda:	d001      	beq.n	8000be0 <rt_evt_psh+0x4c>
 8000bdc:	8342      	strh	r2, [r0, #26]
 8000bde:	e7e5      	b.n	8000bac <rt_evt_psh+0x18>
 8000be0:	bd10      	pop	{r4, pc}
 8000be2:	bf00      	nop
 8000be4:	20001f70 	.word	0x20001f70

08000be8 <rt_init_robin>:
 8000be8:	4b03      	ldr	r3, [pc, #12]	; (8000bf8 <rt_init_robin+0x10>)
 8000bea:	2200      	movs	r2, #0
 8000bec:	601a      	str	r2, [r3, #0]
 8000bee:	4a03      	ldr	r2, [pc, #12]	; (8000bfc <rt_init_robin+0x14>)
 8000bf0:	6812      	ldr	r2, [r2, #0]
 8000bf2:	80da      	strh	r2, [r3, #6]
 8000bf4:	4770      	bx	lr
 8000bf6:	bf00      	nop
 8000bf8:	20001fa8 	.word	0x20001fa8
 8000bfc:	08004994 	.word	0x08004994

08000c00 <rt_chk_robin>:
 8000c00:	b508      	push	{r3, lr}
 8000c02:	4b0e      	ldr	r3, [pc, #56]	; (8000c3c <rt_chk_robin+0x3c>)
 8000c04:	685a      	ldr	r2, [r3, #4]
 8000c06:	4b0e      	ldr	r3, [pc, #56]	; (8000c40 <rt_chk_robin+0x40>)
 8000c08:	6819      	ldr	r1, [r3, #0]
 8000c0a:	4291      	cmp	r1, r2
 8000c0c:	490d      	ldr	r1, [pc, #52]	; (8000c44 <rt_chk_robin+0x44>)
 8000c0e:	d005      	beq.n	8000c1c <rt_chk_robin+0x1c>
 8000c10:	601a      	str	r2, [r3, #0]
 8000c12:	88da      	ldrh	r2, [r3, #6]
 8000c14:	6808      	ldr	r0, [r1, #0]
 8000c16:	3a01      	subs	r2, #1
 8000c18:	4402      	add	r2, r0
 8000c1a:	809a      	strh	r2, [r3, #4]
 8000c1c:	8898      	ldrh	r0, [r3, #4]
 8000c1e:	880a      	ldrh	r2, [r1, #0]
 8000c20:	4290      	cmp	r0, r2
 8000c22:	d10a      	bne.n	8000c3a <rt_chk_robin+0x3a>
 8000c24:	2200      	movs	r2, #0
 8000c26:	4805      	ldr	r0, [pc, #20]	; (8000c3c <rt_chk_robin+0x3c>)
 8000c28:	601a      	str	r2, [r3, #0]
 8000c2a:	f7ff fc8b 	bl	8000544 <rt_get_first>
 8000c2e:	e8bd 4008 	ldmia.w	sp!, {r3, lr}
 8000c32:	4601      	mov	r1, r0
 8000c34:	4801      	ldr	r0, [pc, #4]	; (8000c3c <rt_chk_robin+0x3c>)
 8000c36:	f7ff bc6d 	b.w	8000514 <rt_put_prio>
 8000c3a:	bd08      	pop	{r3, pc}
 8000c3c:	20001f70 	.word	0x20001f70
 8000c40:	20001fa8 	.word	0x20001fa8
 8000c44:	20002004 	.word	0x20002004

08000c48 <rt_timer_insert>:
 8000c48:	4a0b      	ldr	r2, [pc, #44]	; (8000c78 <rt_timer_insert+0x30>)
 8000c4a:	6813      	ldr	r3, [r2, #0]
 8000c4c:	b530      	push	{r4, r5, lr}
 8000c4e:	2400      	movs	r4, #0
 8000c50:	b943      	cbnz	r3, 8000c64 <rt_timer_insert+0x1c>
 8000c52:	6003      	str	r3, [r0, #0]
 8000c54:	6081      	str	r1, [r0, #8]
 8000c56:	b113      	cbz	r3, 8000c5e <rt_timer_insert+0x16>
 8000c58:	689d      	ldr	r5, [r3, #8]
 8000c5a:	1a69      	subs	r1, r5, r1
 8000c5c:	6099      	str	r1, [r3, #8]
 8000c5e:	b144      	cbz	r4, 8000c72 <rt_timer_insert+0x2a>
 8000c60:	6020      	str	r0, [r4, #0]
 8000c62:	bd30      	pop	{r4, r5, pc}
 8000c64:	689d      	ldr	r5, [r3, #8]
 8000c66:	42a9      	cmp	r1, r5
 8000c68:	d3f3      	bcc.n	8000c52 <rt_timer_insert+0xa>
 8000c6a:	461c      	mov	r4, r3
 8000c6c:	1b49      	subs	r1, r1, r5
 8000c6e:	681b      	ldr	r3, [r3, #0]
 8000c70:	e7ee      	b.n	8000c50 <rt_timer_insert+0x8>
 8000c72:	6010      	str	r0, [r2, #0]
 8000c74:	bd30      	pop	{r4, r5, pc}
 8000c76:	bf00      	nop
 8000c78:	20001fb8 	.word	0x20001fb8

08000c7c <rt_ms2tick>:
 8000c7c:	b1c0      	cbz	r0, 8000cb0 <rt_ms2tick+0x34>
 8000c7e:	1c43      	adds	r3, r0, #1
 8000c80:	d011      	beq.n	8000ca6 <rt_ms2tick+0x2a>
 8000c82:	4b0c      	ldr	r3, [pc, #48]	; (8000cb4 <rt_ms2tick+0x38>)
 8000c84:	4298      	cmp	r0, r3
 8000c86:	d811      	bhi.n	8000cac <rt_ms2tick+0x30>
 8000c88:	4b0b      	ldr	r3, [pc, #44]	; (8000cb8 <rt_ms2tick+0x3c>)
 8000c8a:	681b      	ldr	r3, [r3, #0]
 8000c8c:	f44f 717a 	mov.w	r1, #1000	; 0x3e8
 8000c90:	1e5a      	subs	r2, r3, #1
 8000c92:	fb01 2000 	mla	r0, r1, r0, r2
 8000c96:	fbb0 f3f3 	udiv	r3, r0, r3
 8000c9a:	f64f 70fe 	movw	r0, #65534	; 0xfffe
 8000c9e:	4283      	cmp	r3, r0
 8000ca0:	d806      	bhi.n	8000cb0 <rt_ms2tick+0x34>
 8000ca2:	b298      	uxth	r0, r3
 8000ca4:	4770      	bx	lr
 8000ca6:	f64f 70ff 	movw	r0, #65535	; 0xffff
 8000caa:	4770      	bx	lr
 8000cac:	f64f 70fe 	movw	r0, #65534	; 0xfffe
 8000cb0:	4770      	bx	lr
 8000cb2:	bf00      	nop
 8000cb4:	003d0900 	.word	0x003d0900
 8000cb8:	0800494c 	.word	0x0800494c

08000cbc <rt_tid2ptcb>:
 8000cbc:	b138      	cbz	r0, 8000cce <rt_tid2ptcb+0x12>
 8000cbe:	0783      	lsls	r3, r0, #30
 8000cc0:	d104      	bne.n	8000ccc <rt_tid2ptcb+0x10>
 8000cc2:	7803      	ldrb	r3, [r0, #0]
 8000cc4:	2b00      	cmp	r3, #0
 8000cc6:	bf18      	it	ne
 8000cc8:	2000      	movne	r0, #0
 8000cca:	4770      	bx	lr
 8000ccc:	2000      	movs	r0, #0
 8000cce:	4770      	bx	lr

08000cd0 <svcKernelStart>:
 8000cd0:	b5b0      	push	{r4, r5, r7, lr}
 8000cd2:	4d0e      	ldr	r5, [pc, #56]	; (8000d0c <svcKernelStart+0x3c>)
 8000cd4:	7828      	ldrb	r0, [r5, #0]
 8000cd6:	af00      	add	r7, sp, #0
 8000cd8:	b9a8      	cbnz	r0, 8000d06 <svcKernelStart+0x36>
 8000cda:	4c0d      	ldr	r4, [pc, #52]	; (8000d10 <svcKernelStart+0x40>)
 8000cdc:	6823      	ldr	r3, [r4, #0]
 8000cde:	f893 1024 	ldrb.w	r1, [r3, #36]	; 0x24
 8000ce2:	f000 fb51 	bl	8001388 <rt_tsk_prio>
 8000ce6:	6823      	ldr	r3, [r4, #0]
 8000ce8:	78da      	ldrb	r2, [r3, #3]
 8000cea:	2aff      	cmp	r2, #255	; 0xff
 8000cec:	d103      	bne.n	8000cf6 <svcKernelStart+0x26>
 8000cee:	6ada      	ldr	r2, [r3, #44]	; 0x2c
 8000cf0:	3220      	adds	r2, #32
 8000cf2:	f382 8809 	msr	PSP, r2
 8000cf6:	6862      	ldr	r2, [r4, #4]
 8000cf8:	b90a      	cbnz	r2, 8000cfe <svcKernelStart+0x2e>
 8000cfa:	e884 000c 	stmia.w	r4, {r2, r3}
 8000cfe:	f000 fcfb 	bl	80016f8 <rt_sys_start>
 8000d02:	2301      	movs	r3, #1
 8000d04:	702b      	strb	r3, [r5, #0]
 8000d06:	2000      	movs	r0, #0
 8000d08:	bdb0      	pop	{r4, r5, r7, pc}
 8000d0a:	bf00      	nop
 8000d0c:	20001fb5 	.word	0x20001fb5
 8000d10:	20001fbc 	.word	0x20001fbc

08000d14 <svcKernelRunning>:
 8000d14:	4b01      	ldr	r3, [pc, #4]	; (8000d1c <svcKernelRunning+0x8>)
 8000d16:	7818      	ldrb	r0, [r3, #0]
 8000d18:	4770      	bx	lr
 8000d1a:	bf00      	nop
 8000d1c:	20001fb5 	.word	0x20001fb5

08000d20 <osKernelRunning>:
 8000d20:	b510      	push	{r4, lr}
 8000d22:	f3ef 8410 	mrs	r4, PRIMASK
 8000d26:	b934      	cbnz	r4, 8000d36 <osKernelRunning+0x16>
 8000d28:	f3ef 8405 	mrs	r4, IPSR
 8000d2c:	b91c      	cbnz	r4, 8000d36 <osKernelRunning+0x16>
 8000d2e:	f3ef 8414 	mrs	r4, CONTROL
 8000d32:	07e4      	lsls	r4, r4, #31
 8000d34:	d402      	bmi.n	8000d3c <osKernelRunning+0x1c>
 8000d36:	4b03      	ldr	r3, [pc, #12]	; (8000d44 <osKernelRunning+0x24>)
 8000d38:	7818      	ldrb	r0, [r3, #0]
 8000d3a:	bd10      	pop	{r4, pc}
 8000d3c:	f8df c008 	ldr.w	r12, [pc, #8]	; 8000d48 <osKernelRunning+0x28>
 8000d40:	df00      	svc	0
 8000d42:	bd10      	pop	{r4, pc}
 8000d44:	20001fb5 	.word	0x20001fb5
 8000d48:	08000d15 	.word	0x08000d15

08000d4c <osKernelStart>:
 8000d4c:	b590      	push	{r4, r7, lr}
 8000d4e:	b089      	sub	sp, #36	; 0x24
 8000d50:	af00      	add	r7, sp, #0
 8000d52:	f3ef 8310 	mrs	r3, PRIMASK
 8000d56:	2b00      	cmp	r3, #0
 8000d58:	d137      	bne.n	8000dca <osKernelStart+0x7e>
 8000d5a:	f3ef 8305 	mrs	r3, IPSR
 8000d5e:	2b00      	cmp	r3, #0
 8000d60:	d133      	bne.n	8000dca <osKernelStart+0x7e>
 8000d62:	f7ff ffdd 	bl	8000d20 <osKernelRunning>
 8000d66:	b928      	cbnz	r0, 8000d74 <osKernelStart+0x28>
 8000d68:	4c19      	ldr	r4, [pc, #100]	; (8000dd0 <osKernelStart+0x84>)
 8000d6a:	6824      	ldr	r4, [r4, #0]
 8000d6c:	b114      	cbz	r4, 8000d74 <osKernelStart+0x28>
 8000d6e:	6864      	ldr	r4, [r4, #4]
 8000d70:	b104      	cbz	r4, 8000d74 <osKernelStart+0x28>
 8000d72:	47a0      	blx	r4
 8000d74:	f3ef 8414 	mrs	r4, CONTROL
 8000d78:	f004 0403 	and.w	r4, r4, #3
 8000d7c:	2c02      	cmp	r4, #2
 8000d7e:	d018      	beq.n	8000db2 <osKernelStart+0x66>
 8000d80:	2c03      	cmp	r4, #3
 8000d82:	d01c      	beq.n	8000dbe <osKernelStart+0x72>
 8000d84:	2c01      	cmp	r4, #1
 8000d86:	d01e      	beq.n	8000dc6 <osKernelStart+0x7a>
 8000d88:	f107 0420 	add.w	r4, r7, #32
 8000d8c:	f384 8809 	msr	PSP, r4
 8000d90:	4c10      	ldr	r4, [pc, #64]	; (8000dd4 <osKernelStart+0x88>)
 8000d92:	7824      	ldrb	r4, [r4, #0]
 8000d94:	07e4      	lsls	r4, r4, #31
 8000d96:	d510      	bpl.n	8000dba <osKernelStart+0x6e>
 8000d98:	2402      	movs	r4, #2
 8000d9a:	f384 8814 	msr	CONTROL, r4
 8000d9e:	f3bf 8f4f 	dsb	sy
 8000da2:	f3bf 8f6f 	isb	sy
 8000da6:	f8df c030 	ldr.w	r12, [pc, #48]	; 8000dd8 <osKernelStart+0x8c>
 8000daa:	df00      	svc	0
 8000dac:	3724      	adds	r7, #36	; 0x24
 8000dae:	46bd      	mov	sp, r7
 8000db0:	bd90      	pop	{r4, r7, pc}
 8000db2:	4c08      	ldr	r4, [pc, #32]	; (8000dd4 <osKernelStart+0x88>)
 8000db4:	7824      	ldrb	r4, [r4, #0]
 8000db6:	07e4      	lsls	r4, r4, #31
 8000db8:	d4f5      	bmi.n	8000da6 <osKernelStart+0x5a>
 8000dba:	2403      	movs	r4, #3
 8000dbc:	e7ed      	b.n	8000d9a <osKernelStart+0x4e>
 8000dbe:	4c05      	ldr	r4, [pc, #20]	; (8000dd4 <osKernelStart+0x88>)
 8000dc0:	7824      	ldrb	r4, [r4, #0]
 8000dc2:	07e4      	lsls	r4, r4, #31
 8000dc4:	d5ef      	bpl.n	8000da6 <osKernelStart+0x5a>
 8000dc6:	20ff      	movs	r0, #255	; 0xff
 8000dc8:	e7f0      	b.n	8000dac <osKernelStart+0x60>
 8000dca:	2082      	movs	r0, #130	; 0x82
 8000dcc:	e7ee      	b.n	8000dac <osKernelStart+0x60>
 8000dce:	bf00      	nop
 8000dd0:	20001fa4 	.word	0x20001fa4
 8000dd4:	0800497a 	.word	0x0800497a
 8000dd8:	08000cd1 	.word	0x08000cd1

08000ddc <svcThreadCreate>:
 8000ddc:	b570      	push	{r4, r5, r6, lr}
 8000dde:	460b      	mov	r3, r1
 8000de0:	4616      	mov	r6, r2
 8000de2:	4602      	mov	r2, r0
 8000de4:	b910      	cbnz	r0, 8000dec <svcThreadCreate+0x10>
 8000de6:	2400      	movs	r4, #0
 8000de8:	4620      	mov	r0, r4
 8000dea:	bd70      	pop	{r4, r5, r6, pc}
 8000dec:	6800      	ldr	r0, [r0, #0]
 8000dee:	2800      	cmp	r0, #0
 8000df0:	d0f9      	beq.n	8000de6 <svcThreadCreate+0xa>
 8000df2:	f9b2 4004 	ldrsh.w	r4, [r2, #4]
 8000df6:	1ce5      	adds	r5, r4, #3
 8000df8:	b2ad      	uxth	r5, r5
 8000dfa:	2d06      	cmp	r5, #6
 8000dfc:	d8f3      	bhi.n	8000de6 <svcThreadCreate+0xa>
 8000dfe:	68d1      	ldr	r1, [r2, #12]
 8000e00:	b1c1      	cbz	r1, 8000e34 <svcThreadCreate+0x58>
 8000e02:	6912      	ldr	r2, [r2, #16]
 8000e04:	3404      	adds	r4, #4
 8000e06:	ea44 2101 	orr.w	r1, r4, r1, lsl #8
 8000e0a:	f000 fafb 	bl	8001404 <rt_tsk_create>
 8000e0e:	2800      	cmp	r0, #0
 8000e10:	d0e9      	beq.n	8000de6 <svcThreadCreate+0xa>
 8000e12:	4b0a      	ldr	r3, [pc, #40]	; (8000e3c <svcThreadCreate+0x60>)
 8000e14:	4a0a      	ldr	r2, [pc, #40]	; (8000e40 <svcThreadCreate+0x64>)
 8000e16:	3801      	subs	r0, #1
 8000e18:	f853 4020 	ldr.w	r4, [r3, r0, lsl #2]
 8000e1c:	6ae3      	ldr	r3, [r4, #44]	; 0x2c
 8000e1e:	635a      	str	r2, [r3, #52]	; 0x34
 8000e20:	4b08      	ldr	r3, [pc, #32]	; (8000e44 <svcThreadCreate+0x68>)
 8000e22:	681b      	ldr	r3, [r3, #0]
 8000e24:	b143      	cbz	r3, 8000e38 <svcThreadCreate+0x5c>
 8000e26:	689b      	ldr	r3, [r3, #8]
 8000e28:	b133      	cbz	r3, 8000e38 <svcThreadCreate+0x5c>
 8000e2a:	4631      	mov	r1, r6
 8000e2c:	78e0      	ldrb	r0, [r4, #3]
 8000e2e:	4798      	blx	r3
 8000e30:	63e0      	str	r0, [r4, #60]	; 0x3c
 8000e32:	e7d9      	b.n	8000de8 <svcThreadCreate+0xc>
 8000e34:	460a      	mov	r2, r1
 8000e36:	e7e5      	b.n	8000e04 <svcThreadCreate+0x28>
 8000e38:	63e6      	str	r6, [r4, #60]	; 0x3c
 8000e3a:	e7d5      	b.n	8000de8 <svcThreadCreate+0xc>
 8000e3c:	20001958 	.word	0x20001958
 8000e40:	08000fc9 	.word	0x08000fc9
 8000e44:	20001fa4 	.word	0x20001fa4

08000e48 <svcThreadGetId>:
 8000e48:	b508      	push	{r3, lr}
 8000e4a:	f000 fa95 	bl	8001378 <rt_tsk_self>
 8000e4e:	b118      	cbz	r0, 8000e58 <svcThreadGetId+0x10>
 8000e50:	3801      	subs	r0, #1
 8000e52:	4b02      	ldr	r3, [pc, #8]	; (8000e5c <svcThreadGetId+0x14>)
 8000e54:	f853 0020 	ldr.w	r0, [r3, r0, lsl #2]
 8000e58:	bd08      	pop	{r3, pc}
 8000e5a:	bf00      	nop
 8000e5c:	20001958 	.word	0x20001958

08000e60 <svcThreadTerminate>:
 8000e60:	b510      	push	{r4, lr}
 8000e62:	f7ff ff2b 	bl	8000cbc <rt_tid2ptcb>
 8000e66:	4604      	mov	r4, r0
 8000e68:	b170      	cbz	r0, 8000e88 <svcThreadTerminate+0x28>
 8000e6a:	4b08      	ldr	r3, [pc, #32]	; (8000e8c <svcThreadTerminate+0x2c>)
 8000e6c:	681b      	ldr	r3, [r3, #0]
 8000e6e:	b11b      	cbz	r3, 8000e78 <svcThreadTerminate+0x18>
 8000e70:	68db      	ldr	r3, [r3, #12]
 8000e72:	b10b      	cbz	r3, 8000e78 <svcThreadTerminate+0x18>
 8000e74:	6bc0      	ldr	r0, [r0, #60]	; 0x3c
 8000e76:	4798      	blx	r3
 8000e78:	78e0      	ldrb	r0, [r4, #3]
 8000e7a:	f000 fb19 	bl	80014b0 <rt_tsk_delete>
 8000e7e:	28ff      	cmp	r0, #255	; 0xff
 8000e80:	bf0c      	ite	eq
 8000e82:	2081      	moveq	r0, #129	; 0x81
 8000e84:	2000      	movne	r0, #0
 8000e86:	bd10      	pop	{r4, pc}
 8000e88:	2080      	movs	r0, #128	; 0x80
 8000e8a:	bd10      	pop	{r4, pc}
 8000e8c:	20001fa4 	.word	0x20001fa4

08000e90 <svcDelay>:
 8000e90:	b508      	push	{r3, lr}
 8000e92:	b128      	cbz	r0, 8000ea0 <svcDelay+0x10>
 8000e94:	f7ff fef2 	bl	8000c7c <rt_ms2tick>
 8000e98:	f000 fd1a 	bl	80018d0 <rt_dly_wait>
 8000e9c:	2040      	movs	r0, #64	; 0x40
 8000e9e:	bd08      	pop	{r3, pc}
 8000ea0:	bd08      	pop	{r3, pc}
	...

08000ea4 <osDelay>:
 8000ea4:	b510      	push	{r4, lr}
 8000ea6:	f3ef 8410 	mrs	r4, PRIMASK
 8000eaa:	b934      	cbnz	r4, 8000eba <osDelay+0x16>
 8000eac:	f3ef 8405 	mrs	r4, IPSR
 8000eb0:	b91c      	cbnz	r4, 8000eba <osDelay+0x16>
 8000eb2:	f8df c00c 	ldr.w	r12, [pc, #12]	; 8000ec0 <osDelay+0x1c>
 8000eb6:	df00      	svc	0
 8000eb8:	bd10      	pop	{r4, pc}
 8000eba:	2082      	movs	r0, #130	; 0x82
 8000ebc:	bd10      	pop	{r4, pc}
 8000ebe:	0000      	.short	0x0000
 8000ec0:	08000e91 	.word	0x08000e91

08000ec4 <svcTimerCall>:
 8000ec4:	0783      	lsls	r3, r0, #30
 8000ec6:	d105      	bne.n	8000ed4 <svcTimerCall+0x10>
 8000ec8:	b138      	cbz	r0, 8000eda <svcTimerCall+0x16>
 8000eca:	6943      	ldr	r3, [r0, #20]
 8000ecc:	6901      	ldr	r1, [r0, #16]
 8000ece:	681b      	ldr	r3, [r3, #0]
 8000ed0:	4618      	mov	r0, r3
 8000ed2:	4770      	bx	lr
 8000ed4:	2300      	movs	r3, #0
 8000ed6:	4619      	mov	r1, r3
 8000ed8:	e7fa      	b.n	8000ed0 <svcTimerCall+0xc>
 8000eda:	4603      	mov	r3, r0
 8000edc:	e7fb      	b.n	8000ed6 <svcTimerCall+0x12>
	...

08000ee0 <osTimerCall>:
 8000ee0:	b510      	push	{r4, lr}
 8000ee2:	4604      	mov	r4, r0
 8000ee4:	4608      	mov	r0, r1
 8000ee6:	f8df c00c 	ldr.w	r12, [pc, #12]	; 8000ef4 <osTimerCall+0x14>
 8000eea:	df00      	svc	0
 8000eec:	e884 0003 	stmia.w	r4, {r0, r1}
 8000ef0:	4620      	mov	r0, r4
 8000ef2:	bd10      	pop	{r4, pc}
 8000ef4:	08000ec5 	.word	0x08000ec5

08000ef8 <svcMutexCreate>:
 8000ef8:	b510      	push	{r4, lr}
 8000efa:	b148      	cbz	r0, 8000f10 <svcMutexCreate+0x18>
 8000efc:	6804      	ldr	r4, [r0, #0]
 8000efe:	b124      	cbz	r4, 8000f0a <svcMutexCreate+0x12>
 8000f00:	7823      	ldrb	r3, [r4, #0]
 8000f02:	b923      	cbnz	r3, 8000f0e <svcMutexCreate+0x16>
 8000f04:	4620      	mov	r0, r4
 8000f06:	f000 fc3d 	bl	8001784 <rt_mut_init>
 8000f0a:	4620      	mov	r0, r4
 8000f0c:	bd10      	pop	{r4, pc}
 8000f0e:	2000      	movs	r0, #0
 8000f10:	bd10      	pop	{r4, pc}

08000f12 <svcMutexWait>:
 8000f12:	b570      	push	{r4, r5, r6, lr}
 8000f14:	f010 0403 	ands.w	r4, r0, #3
 8000f18:	4605      	mov	r5, r0
 8000f1a:	460e      	mov	r6, r1
 8000f1c:	d111      	bne.n	8000f42 <svcMutexWait+0x30>
 8000f1e:	b180      	cbz	r0, 8000f42 <svcMutexWait+0x30>
 8000f20:	7803      	ldrb	r3, [r0, #0]
 8000f22:	2b03      	cmp	r3, #3
 8000f24:	d10d      	bne.n	8000f42 <svcMutexWait+0x30>
 8000f26:	4608      	mov	r0, r1
 8000f28:	f7ff fea8 	bl	8000c7c <rt_ms2tick>
 8000f2c:	4601      	mov	r1, r0
 8000f2e:	4628      	mov	r0, r5
 8000f30:	f000 fca0 	bl	8001874 <rt_mut_wait>
 8000f34:	2801      	cmp	r0, #1
 8000f36:	d106      	bne.n	8000f46 <svcMutexWait+0x34>
 8000f38:	2e00      	cmp	r6, #0
 8000f3a:	bf14      	ite	ne
 8000f3c:	20c1      	movne	r0, #193	; 0xc1
 8000f3e:	2081      	moveq	r0, #129	; 0x81
 8000f40:	bd70      	pop	{r4, r5, r6, pc}
 8000f42:	2080      	movs	r0, #128	; 0x80
 8000f44:	bd70      	pop	{r4, r5, r6, pc}
 8000f46:	4620      	mov	r0, r4
 8000f48:	bd70      	pop	{r4, r5, r6, pc}

08000f4a <svcMutexRelease>:
 8000f4a:	0782      	lsls	r2, r0, #30
 8000f4c:	b508      	push	{r3, lr}
 8000f4e:	d10a      	bne.n	8000f66 <svcMutexRelease+0x1c>
 8000f50:	b148      	cbz	r0, 8000f66 <svcMutexRelease+0x1c>
 8000f52:	7803      	ldrb	r3, [r0, #0]
 8000f54:	2b03      	cmp	r3, #3
 8000f56:	d106      	bne.n	8000f66 <svcMutexRelease+0x1c>
 8000f58:	f000 fc1c 	bl	8001794 <rt_mut_release>
 8000f5c:	28ff      	cmp	r0, #255	; 0xff
 8000f5e:	bf0c      	ite	eq
 8000f60:	2081      	moveq	r0, #129	; 0x81
 8000f62:	2000      	movne	r0, #0
 8000f64:	bd08      	pop	{r3, pc}
 8000f66:	2080      	movs	r0, #128	; 0x80
 8000f68:	bd08      	pop	{r3, pc}
	...

08000f6c <osMutexCreate>:
 8000f6c:	b570      	push	{r4, r5, r6, lr}
 8000f6e:	4605      	mov	r5, r0
 8000f70:	f3ef 8410 	mrs	r4, PRIMASK
 8000f74:	b994      	cbnz	r4, 8000f9c <osMutexCreate+0x30>
 8000f76:	f3ef 8605 	mrs	r6, IPSR
 8000f7a:	b97e      	cbnz	r6, 8000f9c <osMutexCreate+0x30>
 8000f7c:	f3ef 8414 	mrs	r4, CONTROL
 8000f80:	07e4      	lsls	r4, r4, #31
 8000f82:	d406      	bmi.n	8000f92 <osMutexCreate+0x26>
 8000f84:	4c06      	ldr	r4, [pc, #24]	; (8000fa0 <osMutexCreate+0x34>)
 8000f86:	7824      	ldrb	r4, [r4, #0]
 8000f88:	b91c      	cbnz	r4, 8000f92 <osMutexCreate+0x26>
 8000f8a:	e8bd 4070 	ldmia.w	sp!, {r4, r5, r6, lr}
 8000f8e:	f7ff bfb3 	b.w	8000ef8 <svcMutexCreate>
 8000f92:	4628      	mov	r0, r5
 8000f94:	f8df c00c 	ldr.w	r12, [pc, #12]	; 8000fa4 <osMutexCreate+0x38>
 8000f98:	df00      	svc	0
 8000f9a:	bd70      	pop	{r4, r5, r6, pc}
 8000f9c:	2000      	movs	r0, #0
 8000f9e:	bd70      	pop	{r4, r5, r6, pc}
 8000fa0:	20001fb5 	.word	0x20001fb5
 8000fa4:	08000ef9 	.word	0x08000ef9

08000fa8 <osMutexWait>:
 8000fa8:	b510      	push	{r4, lr}
 8000faa:	f3ef 8410 	mrs	r4, PRIMASK
 8000fae:	b934      	cbnz	r4, 8000fbe <osMutexWait+0x16>
 8000fb0:	f3ef 8405 	mrs	r4, IPSR
 8000fb4:	b91c      	cbnz	r4, 8000fbe <osMutexWait+0x16>
 8000fb6:	f8df c00c 	ldr.w	r12, [pc, #12]	; 8000fc4 <osMutexWait+0x1c>
 8000fba:	df00      	svc	0
 8000fbc:	bd10      	pop	{r4, pc}
 8000fbe:	2082      	movs	r0, #130	; 0x82
 8000fc0:	bd10      	pop	{r4, pc}
 8000fc2:	0000      	.short	0x0000
 8000fc4:	08000f13 	.word	0x08000f13

08000fc8 <osThreadExit>:
 8000fc8:	4808      	ldr	r0, [pc, #32]	; (8000fec <osThreadExit+0x24>)
 8000fca:	b508      	push	{r3, lr}
 8000fcc:	f04f 31ff 	mov.w	r1, #4294967295	; 0xffffffff
 8000fd0:	6800      	ldr	r0, [r0, #0]
 8000fd2:	f7ff ffe9 	bl	8000fa8 <osMutexWait>
 8000fd6:	f8df c018 	ldr.w	r12, [pc, #24]	; 8000ff0 <osThreadExit+0x28>
 8000fda:	df00      	svc	0
 8000fdc:	4604      	mov	r4, r0
 8000fde:	f7ff fa59 	bl	8000494 <sysThreadTerminate>
 8000fe2:	4620      	mov	r0, r4
 8000fe4:	f8df c00c 	ldr.w	r12, [pc, #12]	; 8000ff4 <osThreadExit+0x2c>
 8000fe8:	df00      	svc	0
 8000fea:	e7fe      	b.n	8000fea <osThreadExit+0x22>
 8000fec:	20001fb0 	.word	0x20001fb0
 8000ff0:	08000e49 	.word	0x08000e49
 8000ff4:	08000e61 	.word	0x08000e61

08000ff8 <osMutexRelease>:
 8000ff8:	b510      	push	{r4, lr}
 8000ffa:	f3ef 8410 	mrs	r4, PRIMASK
 8000ffe:	b934      	cbnz	r4, 800100e <osMutexRelease+0x16>
 8001000:	f3ef 8405 	mrs	r4, IPSR
 8001004:	b91c      	cbnz	r4, 800100e <osMutexRelease+0x16>
 8001006:	f8df c00c 	ldr.w	r12, [pc, #12]	; 8001014 <osMutexRelease+0x1c>
 800100a:	df00      	svc	0
 800100c:	bd10      	pop	{r4, pc}
 800100e:	2082      	movs	r0, #130	; 0x82
 8001010:	bd10      	pop	{r4, pc}
 8001012:	0000      	.short	0x0000
 8001014:	08000f4b 	.word	0x08000f4b

08001018 <osThreadContextCreate>:
 8001018:	e92d 41f0 	stmdb	sp!, {r4, r5, r6, r7, r8, lr}
 800101c:	4680      	mov	r8, r0
 800101e:	460f      	mov	r7, r1
 8001020:	4616      	mov	r6, r2
 8001022:	f3ef 8410 	mrs	r4, PRIMASK
 8001026:	bb04      	cbnz	r4, 800106a <osThreadContextCreate+0x52>
 8001028:	f3ef 8305 	mrs	r3, IPSR
 800102c:	b9d3      	cbnz	r3, 8001064 <osThreadContextCreate+0x4c>
 800102e:	f3ef 8314 	mrs	r3, CONTROL
 8001032:	07db      	lsls	r3, r3, #31
 8001034:	d406      	bmi.n	8001044 <osThreadContextCreate+0x2c>
 8001036:	4b0e      	ldr	r3, [pc, #56]	; (8001070 <osThreadContextCreate+0x58>)
 8001038:	781b      	ldrb	r3, [r3, #0]
 800103a:	b91b      	cbnz	r3, 8001044 <osThreadContextCreate+0x2c>
 800103c:	e8bd 41f0 	ldmia.w	sp!, {r4, r5, r6, r7, r8, lr}
 8001040:	f7ff becc 	b.w	8000ddc <svcThreadCreate>
 8001044:	4d0b      	ldr	r5, [pc, #44]	; (8001074 <osThreadContextCreate+0x5c>)
 8001046:	f04f 31ff 	mov.w	r1, #4294967295	; 0xffffffff
 800104a:	6828      	ldr	r0, [r5, #0]
 800104c:	f7ff ffac 	bl	8000fa8 <osMutexWait>
 8001050:	4640      	mov	r0, r8
 8001052:	4639      	mov	r1, r7
 8001054:	4632      	mov	r2, r6
 8001056:	f8df c020 	ldr.w	r12, [pc, #32]	; 8001078 <osThreadContextCreate+0x60>
 800105a:	df00      	svc	0
 800105c:	4604      	mov	r4, r0
 800105e:	6828      	ldr	r0, [r5, #0]
 8001060:	f7ff ffca 	bl	8000ff8 <osMutexRelease>
 8001064:	4620      	mov	r0, r4
 8001066:	e8bd 81f0 	ldmia.w	sp!, {r4, r5, r6, r7, r8, pc}
 800106a:	2400      	movs	r4, #0
 800106c:	e7fa      	b.n	8001064 <osThreadContextCreate+0x4c>
 800106e:	bf00      	nop
 8001070:	20001fb5 	.word	0x20001fb5
 8001074:	20001fb0 	.word	0x20001fb0
 8001078:	08000ddd 	.word	0x08000ddd

0800107c <osThreadCreate>:
 800107c:	2200      	movs	r2, #0
 800107e:	f7ff bfcb 	b.w	8001018 <osThreadContextCreate>

08001082 <svcMessageCreate>:
 8001082:	b510      	push	{r4, lr}
 8001084:	4604      	mov	r4, r0
 8001086:	b160      	cbz	r0, 80010a2 <svcMessageCreate+0x20>
 8001088:	6801      	ldr	r1, [r0, #0]
 800108a:	b151      	cbz	r1, 80010a2 <svcMessageCreate+0x20>
 800108c:	6840      	ldr	r0, [r0, #4]
 800108e:	b148      	cbz	r0, 80010a4 <svcMessageCreate+0x22>
 8001090:	7803      	ldrb	r3, [r0, #0]
 8001092:	b933      	cbnz	r3, 80010a2 <svcMessageCreate+0x20>
 8001094:	3104      	adds	r1, #4
 8001096:	0089      	lsls	r1, r1, #2
 8001098:	b289      	uxth	r1, r1
 800109a:	f7ff fc71 	bl	8000980 <rt_mbx_init>
 800109e:	6860      	ldr	r0, [r4, #4]
 80010a0:	bd10      	pop	{r4, pc}
 80010a2:	2000      	movs	r0, #0
 80010a4:	bd10      	pop	{r4, pc}
	...

080010a8 <svcKernelInitialize>:
 80010a8:	b538      	push	{r3, r4, r5, lr}
 80010aa:	4c11      	ldr	r4, [pc, #68]	; (80010f0 <svcKernelInitialize+0x48>)
 80010ac:	7823      	ldrb	r3, [r4, #0]
 80010ae:	b90b      	cbnz	r3, 80010b4 <svcKernelInitialize+0xc>
 80010b0:	f000 faa8 	bl	8001604 <rt_sys_init>
 80010b4:	4b0f      	ldr	r3, [pc, #60]	; (80010f4 <svcKernelInitialize+0x4c>)
 80010b6:	7825      	ldrb	r5, [r4, #0]
 80010b8:	681b      	ldr	r3, [r3, #0]
 80010ba:	22ff      	movs	r2, #255	; 0xff
 80010bc:	709a      	strb	r2, [r3, #2]
 80010be:	b98d      	cbnz	r5, 80010e4 <svcKernelInitialize+0x3c>
 80010c0:	4629      	mov	r1, r5
 80010c2:	480d      	ldr	r0, [pc, #52]	; (80010f8 <svcKernelInitialize+0x50>)
 80010c4:	f7ff ffdd 	bl	8001082 <svcMessageCreate>
 80010c8:	4b0c      	ldr	r3, [pc, #48]	; (80010fc <svcKernelInitialize+0x54>)
 80010ca:	462a      	mov	r2, r5
 80010cc:	6018      	str	r0, [r3, #0]
 80010ce:	4629      	mov	r1, r5
 80010d0:	480b      	ldr	r0, [pc, #44]	; (8001100 <svcKernelInitialize+0x58>)
 80010d2:	f7ff fe83 	bl	8000ddc <svcThreadCreate>
 80010d6:	4b0b      	ldr	r3, [pc, #44]	; (8001104 <svcKernelInitialize+0x5c>)
 80010d8:	6018      	str	r0, [r3, #0]
 80010da:	480b      	ldr	r0, [pc, #44]	; (8001108 <svcKernelInitialize+0x60>)
 80010dc:	f7ff ff46 	bl	8000f6c <osMutexCreate>
 80010e0:	4b0a      	ldr	r3, [pc, #40]	; (800110c <svcKernelInitialize+0x64>)
 80010e2:	6018      	str	r0, [r3, #0]
 80010e4:	2301      	movs	r3, #1
 80010e6:	7023      	strb	r3, [r4, #0]
 80010e8:	4b09      	ldr	r3, [pc, #36]	; (8001110 <svcKernelInitialize+0x68>)
 80010ea:	2000      	movs	r0, #0
 80010ec:	7018      	strb	r0, [r3, #0]
 80010ee:	bd38      	pop	{r3, r4, r5, pc}
 80010f0:	20001fb4 	.word	0x20001fb4
 80010f4:	20001fbc 	.word	0x20001fbc
 80010f8:	08004980 	.word	0x08004980
 80010fc:	20001634 	.word	0x20001634
 8001100:	0800499c 	.word	0x0800499c
 8001104:	2000162c 	.word	0x2000162c
 8001108:	080049b4 	.word	0x080049b4
 800110c:	20001fb0 	.word	0x20001fb0
 8001110:	20001fb5 	.word	0x20001fb5

08001114 <osKernelInitialize>:
 8001114:	b510      	push	{r4, lr}
 8001116:	f3ef 8410 	mrs	r4, PRIMASK
 800111a:	b974      	cbnz	r4, 800113a <osKernelInitialize+0x26>
 800111c:	f3ef 8405 	mrs	r4, IPSR
 8001120:	b95c      	cbnz	r4, 800113a <osKernelInitialize+0x26>
 8001122:	f3ef 8414 	mrs	r4, CONTROL
 8001126:	07e4      	lsls	r4, r4, #31
 8001128:	d403      	bmi.n	8001132 <osKernelInitialize+0x1e>
 800112a:	e8bd 4010 	ldmia.w	sp!, {r4, lr}
 800112e:	f7ff bfbb 	b.w	80010a8 <svcKernelInitialize>
 8001132:	f8df c00c 	ldr.w	r12, [pc, #12]	; 8001140 <osKernelInitialize+0x2c>
 8001136:	df00      	svc	0
 8001138:	bd10      	pop	{r4, pc}
 800113a:	2082      	movs	r0, #130	; 0x82
 800113c:	bd10      	pop	{r4, pc}
 800113e:	0000      	.short	0x0000
 8001140:	080010a9 	.word	0x080010a9

08001144 <svcMessageGet>:
 8001144:	e92d 41ff 	stmdb	sp!, {r0, r1, r2, r3, r4, r5, r6, r7, r8, lr}
 8001148:	460c      	mov	r4, r1
 800114a:	4680      	mov	r8, r0
 800114c:	b318      	cbz	r0, 8001196 <svcMessageGet+0x52>
 800114e:	7803      	ldrb	r3, [r0, #0]
 8001150:	2b01      	cmp	r3, #1
 8001152:	d125      	bne.n	80011a0 <svcMessageGet+0x5c>
 8001154:	4608      	mov	r0, r1
 8001156:	f7ff fd91 	bl	8000c7c <rt_ms2tick>
 800115a:	a902      	add	r1, sp, #8
 800115c:	4602      	mov	r2, r0
 800115e:	4640      	mov	r0, r8
 8001160:	f7ff fc1c 	bl	800099c <rt_mbx_wait>
 8001164:	2801      	cmp	r0, #1
 8001166:	d111      	bne.n	800118c <svcMessageGet+0x48>
 8001168:	2000      	movs	r0, #0
 800116a:	2c00      	cmp	r4, #0
 800116c:	4602      	mov	r2, r0
 800116e:	4603      	mov	r3, r0
 8001170:	bf18      	it	ne
 8001172:	2040      	movne	r0, #64	; 0x40
 8001174:	9902      	ldr	r1, [sp, #8]
 8001176:	4604      	mov	r4, r0
 8001178:	460d      	mov	r5, r1
 800117a:	4616      	mov	r6, r2
 800117c:	461f      	mov	r7, r3
 800117e:	4620      	mov	r0, r4
 8001180:	4629      	mov	r1, r5
 8001182:	4632      	mov	r2, r6
 8001184:	463b      	mov	r3, r7
 8001186:	b004      	add	sp, #16
 8001188:	e8bd 81f0 	ldmia.w	sp!, {r4, r5, r6, r7, r8, pc}
 800118c:	2000      	movs	r0, #0
 800118e:	4602      	mov	r2, r0
 8001190:	4603      	mov	r3, r0
 8001192:	2010      	movs	r0, #16
 8001194:	e7ee      	b.n	8001174 <svcMessageGet+0x30>
 8001196:	2480      	movs	r4, #128	; 0x80
 8001198:	4605      	mov	r5, r0
 800119a:	4606      	mov	r6, r0
 800119c:	4607      	mov	r7, r0
 800119e:	e7ee      	b.n	800117e <svcMessageGet+0x3a>
 80011a0:	2500      	movs	r5, #0
 80011a2:	2480      	movs	r4, #128	; 0x80
 80011a4:	462e      	mov	r6, r5
 80011a6:	462f      	mov	r7, r5
 80011a8:	e7e9      	b.n	800117e <svcMessageGet+0x3a>

080011aa <isrMessagePut>:
 80011aa:	b570      	push	{r4, r5, r6, lr}
 80011ac:	460e      	mov	r6, r1
 80011ae:	4614      	mov	r4, r2
 80011b0:	4605      	mov	r5, r0
 80011b2:	b160      	cbz	r0, 80011ce <isrMessagePut+0x24>
 80011b4:	b95a      	cbnz	r2, 80011ce <isrMessagePut+0x24>
 80011b6:	7803      	ldrb	r3, [r0, #0]
 80011b8:	2b01      	cmp	r3, #1
 80011ba:	d108      	bne.n	80011ce <isrMessagePut+0x24>
 80011bc:	f7ff fc44 	bl	8000a48 <rt_mbx_check>
 80011c0:	b138      	cbz	r0, 80011d2 <isrMessagePut+0x28>
 80011c2:	4628      	mov	r0, r5
 80011c4:	4631      	mov	r1, r6
 80011c6:	f7ff fc43 	bl	8000a50 <isr_mbx_send>
 80011ca:	4620      	mov	r0, r4
 80011cc:	bd70      	pop	{r4, r5, r6, pc}
 80011ce:	2080      	movs	r0, #128	; 0x80
 80011d0:	bd70      	pop	{r4, r5, r6, pc}
 80011d2:	2081      	movs	r0, #129	; 0x81
 80011d4:	bd70      	pop	{r4, r5, r6, pc}
	...

080011d8 <sysTimerTick>:
 80011d8:	b5f8      	push	{r3, r4, r5, r6, r7, lr}
 80011da:	4e11      	ldr	r6, [pc, #68]	; (8001220 <sysTimerTick+0x48>)
 80011dc:	6834      	ldr	r4, [r6, #0]
 80011de:	b12c      	cbz	r4, 80011ec <sysTimerTick+0x14>
 80011e0:	68a3      	ldr	r3, [r4, #8]
 80011e2:	4f10      	ldr	r7, [pc, #64]	; (8001224 <sysTimerTick+0x4c>)
 80011e4:	3b01      	subs	r3, #1
 80011e6:	60a3      	str	r3, [r4, #8]
 80011e8:	68a2      	ldr	r2, [r4, #8]
 80011ea:	b102      	cbz	r2, 80011ee <sysTimerTick+0x16>
 80011ec:	bdf8      	pop	{r3, r4, r5, r6, r7, pc}
 80011ee:	6825      	ldr	r5, [r4, #0]
 80011f0:	6838      	ldr	r0, [r7, #0]
 80011f2:	6035      	str	r5, [r6, #0]
 80011f4:	4621      	mov	r1, r4
 80011f6:	f7ff ffd8 	bl	80011aa <isrMessagePut>
 80011fa:	b110      	cbz	r0, 8001202 <sysTimerTick+0x2a>
 80011fc:	2004      	movs	r0, #4
 80011fe:	f7ff f93b 	bl	8000478 <os_error>
 8001202:	7963      	ldrb	r3, [r4, #5]
 8001204:	2b01      	cmp	r3, #1
 8001206:	d107      	bne.n	8001218 <sysTimerTick+0x40>
 8001208:	68e1      	ldr	r1, [r4, #12]
 800120a:	4620      	mov	r0, r4
 800120c:	f7ff fd1c 	bl	8000c48 <rt_timer_insert>
 8001210:	2d00      	cmp	r5, #0
 8001212:	d0eb      	beq.n	80011ec <sysTimerTick+0x14>
 8001214:	462c      	mov	r4, r5
 8001216:	e7e7      	b.n	80011e8 <sysTimerTick+0x10>
 8001218:	2301      	movs	r3, #1
 800121a:	7123      	strb	r3, [r4, #4]
 800121c:	e7f8      	b.n	8001210 <sysTimerTick+0x38>
 800121e:	bf00      	nop
 8001220:	20001fb8 	.word	0x20001fb8
 8001224:	20001634 	.word	0x20001634

08001228 <isrMessageGet>:
 8001228:	b57f      	push	{r0, r1, r2, r3, r4, r5, r6, lr}
 800122a:	4604      	mov	r4, r0
 800122c:	4616      	mov	r6, r2
 800122e:	4608      	mov	r0, r1
 8001230:	b101      	cbz	r1, 8001234 <isrMessageGet+0xc>
 8001232:	b122      	cbz	r2, 800123e <isrMessageGet+0x16>
 8001234:	2380      	movs	r3, #128	; 0x80
 8001236:	6023      	str	r3, [r4, #0]
 8001238:	4620      	mov	r0, r4
 800123a:	b004      	add	sp, #16
 800123c:	bd70      	pop	{r4, r5, r6, pc}
 800123e:	780b      	ldrb	r3, [r1, #0]
 8001240:	2b01      	cmp	r3, #1
 8001242:	d1f7      	bne.n	8001234 <isrMessageGet+0xc>
 8001244:	a902      	add	r1, sp, #8
 8001246:	f7ff fc0a 	bl	8000a5e <isr_mbx_receive>
 800124a:	2804      	cmp	r0, #4
 800124c:	bf08      	it	eq
 800124e:	2310      	moveq	r3, #16
 8001250:	ad01      	add	r5, sp, #4
 8001252:	bf14      	ite	ne
 8001254:	9601      	strne	r6, [sp, #4]
 8001256:	9301      	streq	r3, [sp, #4]
 8001258:	e895 0007 	ldmia.w	r5, {r0, r1, r2}
 800125c:	e884 0007 	stmia.w	r4, {r0, r1, r2}
 8001260:	e7ea      	b.n	8001238 <isrMessageGet+0x10>
	...

08001264 <osMessageGet>:
 8001264:	b538      	push	{r3, r4, r5, lr}
 8001266:	4604      	mov	r4, r0
 8001268:	4615      	mov	r5, r2
 800126a:	f3ef 8010 	mrs	r0, PRIMASK
 800126e:	b910      	cbnz	r0, 8001276 <osMessageGet+0x12>
 8001270:	f3ef 8005 	mrs	r0, IPSR
 8001274:	b128      	cbz	r0, 8001282 <osMessageGet+0x1e>
 8001276:	462a      	mov	r2, r5
 8001278:	4620      	mov	r0, r4
 800127a:	f7ff ffd5 	bl	8001228 <isrMessageGet>
 800127e:	4620      	mov	r0, r4
 8001280:	bd38      	pop	{r3, r4, r5, pc}
 8001282:	4608      	mov	r0, r1
 8001284:	4611      	mov	r1, r2
 8001286:	f8df c00c 	ldr.w	r12, [pc, #12]	; 8001294 <osMessageGet+0x30>
 800128a:	df00      	svc	0
 800128c:	e884 0007 	stmia.w	r4, {r0, r1, r2}
 8001290:	e7f5      	b.n	800127e <osMessageGet+0x1a>
 8001292:	0000      	.short	0x0000
 8001294:	08001145 	.word	0x08001145

08001298 <osTimerThread>:
 8001298:	b57f      	push	{r0, r1, r2, r3, r4, r5, r6, lr}
 800129a:	4c0a      	ldr	r4, [pc, #40]	; (80012c4 <osTimerThread+0x2c>)
 800129c:	6821      	ldr	r1, [r4, #0]
 800129e:	f04f 32ff 	mov.w	r2, #4294967295	; 0xffffffff
 80012a2:	a803      	add	r0, sp, #12
 80012a4:	f7ff ffde 	bl	8001264 <osMessageGet>
 80012a8:	9b03      	ldr	r3, [sp, #12]
 80012aa:	2b10      	cmp	r3, #16
 80012ac:	d1f6      	bne.n	800129c <osTimerThread+0x4>
 80012ae:	9904      	ldr	r1, [sp, #16]
 80012b0:	a801      	add	r0, sp, #4
 80012b2:	f7ff fe15 	bl	8000ee0 <osTimerCall>
 80012b6:	9b01      	ldr	r3, [sp, #4]
 80012b8:	2b00      	cmp	r3, #0
 80012ba:	d0ef      	beq.n	800129c <osTimerThread+0x4>
 80012bc:	9802      	ldr	r0, [sp, #8]
 80012be:	4798      	blx	r3
 80012c0:	e7ec      	b.n	800129c <osTimerThread+0x4>
 80012c2:	bf00      	nop
 80012c4:	20001634 	.word	0x20001634

080012c8 <rt_switch_req>:
 80012c8:	4b05      	ldr	r3, [pc, #20]	; (80012e0 <rt_switch_req+0x18>)
 80012ca:	6058      	str	r0, [r3, #4]
 80012cc:	2302      	movs	r3, #2
 80012ce:	7043      	strb	r3, [r0, #1]
 80012d0:	4b04      	ldr	r3, [pc, #16]	; (80012e4 <rt_switch_req+0x1c>)
 80012d2:	681b      	ldr	r3, [r3, #0]
 80012d4:	b11b      	cbz	r3, 80012de <rt_switch_req+0x16>
 80012d6:	691b      	ldr	r3, [r3, #16]
 80012d8:	b10b      	cbz	r3, 80012de <rt_switch_req+0x16>
 80012da:	6bc0      	ldr	r0, [r0, #60]	; 0x3c
 80012dc:	4718      	bx	r3
 80012de:	4770      	bx	lr
 80012e0:	20001fbc 	.word	0x20001fbc
 80012e4:	20001fa4 	.word	0x20001fa4

080012e8 <rt_dispatch.part.0>:
 80012e8:	b508      	push	{r3, lr}
 80012ea:	4803      	ldr	r0, [pc, #12]	; (80012f8 <rt_dispatch.part.0+0x10>)
 80012ec:	f7ff f92a 	bl	8000544 <rt_get_first>
 80012f0:	e8bd 4008 	ldmia.w	sp!, {r3, lr}
 80012f4:	f7ff bfe8 	b.w	80012c8 <rt_switch_req>
 80012f8:	20001f70 	.word	0x20001f70

080012fc <rt_dispatch>:
 80012fc:	b570      	push	{r4, r5, r6, lr}
 80012fe:	4604      	mov	r4, r0
 8001300:	b918      	cbnz	r0, 800130a <rt_dispatch+0xe>
 8001302:	e8bd 4070 	ldmia.w	sp!, {r4, r5, r6, lr}
 8001306:	f7ff bfef 	b.w	80012e8 <rt_dispatch.part.0>
 800130a:	4e0c      	ldr	r6, [pc, #48]	; (800133c <rt_dispatch+0x40>)
 800130c:	78a2      	ldrb	r2, [r4, #2]
 800130e:	6830      	ldr	r0, [r6, #0]
 8001310:	7883      	ldrb	r3, [r0, #2]
 8001312:	429a      	cmp	r2, r3
 8001314:	f04f 0501 	mov.w	r5, #1
 8001318:	d908      	bls.n	800132c <rt_dispatch+0x30>
 800131a:	f7ff f925 	bl	8000568 <rt_put_rdy_first>
 800131e:	6833      	ldr	r3, [r6, #0]
 8001320:	705d      	strb	r5, [r3, #1]
 8001322:	4620      	mov	r0, r4
 8001324:	e8bd 4070 	ldmia.w	sp!, {r4, r5, r6, lr}
 8001328:	f7ff bfce 	b.w	80012c8 <rt_switch_req>
 800132c:	7065      	strb	r5, [r4, #1]
 800132e:	4621      	mov	r1, r4
 8001330:	4803      	ldr	r0, [pc, #12]	; (8001340 <rt_dispatch+0x44>)
 8001332:	e8bd 4070 	ldmia.w	sp!, {r4, r5, r6, lr}
 8001336:	f7ff b8ed 	b.w	8000514 <rt_put_prio>
 800133a:	bf00      	nop
 800133c:	20001fbc 	.word	0x20001fbc
 8001340:	20001f70 	.word	0x20001f70

08001344 <rt_block>:
 8001344:	b538      	push	{r3, r4, r5, lr}
 8001346:	460d      	mov	r5, r1
 8001348:	4601      	mov	r1, r0
 800134a:	b180      	cbz	r0, 800136e <rt_block+0x2a>
 800134c:	f64f 73ff 	movw	r3, #65535	; 0xffff
 8001350:	4298      	cmp	r0, r3
 8001352:	4c07      	ldr	r4, [pc, #28]	; (8001370 <rt_block+0x2c>)
 8001354:	d002      	beq.n	800135c <rt_block+0x18>
 8001356:	6820      	ldr	r0, [r4, #0]
 8001358:	f7ff f910 	bl	800057c <rt_put_dly>
 800135c:	6823      	ldr	r3, [r4, #0]
 800135e:	4805      	ldr	r0, [pc, #20]	; (8001374 <rt_block+0x30>)
 8001360:	705d      	strb	r5, [r3, #1]
 8001362:	f7ff f8ef 	bl	8000544 <rt_get_first>
 8001366:	e8bd 4038 	ldmia.w	sp!, {r3, r4, r5, lr}
 800136a:	f7ff bfad 	b.w	80012c8 <rt_switch_req>
 800136e:	bd38      	pop	{r3, r4, r5, pc}
 8001370:	20001fbc 	.word	0x20001fbc
 8001374:	20001f70 	.word	0x20001f70

08001378 <rt_tsk_self>:
 8001378:	4b02      	ldr	r3, [pc, #8]	; (8001384 <rt_tsk_self+0xc>)
 800137a:	6818      	ldr	r0, [r3, #0]
 800137c:	b100      	cbz	r0, 8001380 <rt_tsk_self+0x8>
 800137e:	78c0      	ldrb	r0, [r0, #3]
 8001380:	4770      	bx	lr
 8001382:	bf00      	nop
 8001384:	20001fbc 	.word	0x20001fbc

08001388 <rt_tsk_prio>:
 8001388:	b510      	push	{r4, lr}
 800138a:	b9a8      	cbnz	r0, 80013b8 <rt_tsk_prio+0x30>
 800138c:	4b19      	ldr	r3, [pc, #100]	; (80013f4 <rt_tsk_prio+0x6c>)
 800138e:	681b      	ldr	r3, [r3, #0]
 8001390:	7099      	strb	r1, [r3, #2]
 8001392:	f883 1024 	strb.w	r1, [r3, #36]	; 0x24
 8001396:	4818      	ldr	r0, [pc, #96]	; (80013f8 <rt_tsk_prio+0x70>)
 8001398:	6843      	ldr	r3, [r0, #4]
 800139a:	789b      	ldrb	r3, [r3, #2]
 800139c:	428b      	cmp	r3, r1
 800139e:	d801      	bhi.n	80013a4 <rt_tsk_prio+0x1c>
 80013a0:	2000      	movs	r0, #0
 80013a2:	bd10      	pop	{r4, pc}
 80013a4:	4c13      	ldr	r4, [pc, #76]	; (80013f4 <rt_tsk_prio+0x6c>)
 80013a6:	6821      	ldr	r1, [r4, #0]
 80013a8:	f7ff f8b4 	bl	8000514 <rt_put_prio>
 80013ac:	6823      	ldr	r3, [r4, #0]
 80013ae:	2201      	movs	r2, #1
 80013b0:	705a      	strb	r2, [r3, #1]
 80013b2:	f7ff ff99 	bl	80012e8 <rt_dispatch.part.0>
 80013b6:	e7f3      	b.n	80013a0 <rt_tsk_prio+0x18>
 80013b8:	4b10      	ldr	r3, [pc, #64]	; (80013fc <rt_tsk_prio+0x74>)
 80013ba:	881b      	ldrh	r3, [r3, #0]
 80013bc:	4298      	cmp	r0, r3
 80013be:	d817      	bhi.n	80013f0 <rt_tsk_prio+0x68>
 80013c0:	3801      	subs	r0, #1
 80013c2:	4b0f      	ldr	r3, [pc, #60]	; (8001400 <rt_tsk_prio+0x78>)
 80013c4:	f853 4020 	ldr.w	r4, [r3, r0, lsl #2]
 80013c8:	b194      	cbz	r4, 80013f0 <rt_tsk_prio+0x68>
 80013ca:	4b0a      	ldr	r3, [pc, #40]	; (80013f4 <rt_tsk_prio+0x6c>)
 80013cc:	70a1      	strb	r1, [r4, #2]
 80013ce:	681b      	ldr	r3, [r3, #0]
 80013d0:	f884 1024 	strb.w	r1, [r4, #36]	; 0x24
 80013d4:	429c      	cmp	r4, r3
 80013d6:	d0de      	beq.n	8001396 <rt_tsk_prio+0xe>
 80013d8:	4620      	mov	r0, r4
 80013da:	f7ff f941 	bl	8000660 <rt_resort_prio>
 80013de:	7863      	ldrb	r3, [r4, #1]
 80013e0:	2b01      	cmp	r3, #1
 80013e2:	d1dd      	bne.n	80013a0 <rt_tsk_prio+0x18>
 80013e4:	4804      	ldr	r0, [pc, #16]	; (80013f8 <rt_tsk_prio+0x70>)
 80013e6:	f7ff f8ad 	bl	8000544 <rt_get_first>
 80013ea:	f7ff ff87 	bl	80012fc <rt_dispatch>
 80013ee:	e7d7      	b.n	80013a0 <rt_tsk_prio+0x18>
 80013f0:	20ff      	movs	r0, #255	; 0xff
 80013f2:	bd10      	pop	{r4, pc}
 80013f4:	20001fbc 	.word	0x20001fbc
 80013f8:	20001f70 	.word	0x20001f70
 80013fc:	0800497c 	.word	0x0800497c
 8001400:	20001958 	.word	0x20001958

08001404 <rt_tsk_create>:
 8001404:	e92d 47f0 	stmdb	sp!, {r4, r5, r6, r7, r8, r9, r10, lr}
 8001408:	f011 0fff 	tst.w	r1, #255	; 0xff
 800140c:	460d      	mov	r5, r1
 800140e:	4680      	mov	r8, r0
 8001410:	4823      	ldr	r0, [pc, #140]	; (80014a0 <rt_tsk_create+0x9c>)
 8001412:	4616      	mov	r6, r2
 8001414:	469a      	mov	r10, r3
 8001416:	bf08      	it	eq
 8001418:	3501      	addeq	r5, #1
 800141a:	f7ff fa90 	bl	800093e <rt_alloc_box>
 800141e:	4604      	mov	r4, r0
 8001420:	b920      	cbnz	r0, 800142c <rt_tsk_create+0x28>
 8001422:	f04f 0900 	mov.w	r9, #0
 8001426:	4648      	mov	r0, r9
 8001428:	e8bd 87f0 	ldmia.w	sp!, {r4, r5, r6, r7, r8, r9, r10, pc}
 800142c:	4b1d      	ldr	r3, [pc, #116]	; (80014a4 <rt_tsk_create+0xa0>)
 800142e:	6306      	str	r6, [r0, #48]	; 0x30
 8001430:	881b      	ldrh	r3, [r3, #0]
 8001432:	4e1d      	ldr	r6, [pc, #116]	; (80014a8 <rt_tsk_create+0xa4>)
 8001434:	0a28      	lsrs	r0, r5, #8
 8001436:	62a0      	str	r0, [r4, #40]	; 0x28
 8001438:	2100      	movs	r1, #0
 800143a:	428b      	cmp	r3, r1
 800143c:	f101 0901 	add.w	r9, r1, #1
 8001440:	d0ef      	beq.n	8001422 <rt_tsk_create+0x1e>
 8001442:	eb06 0289 	add.w	r2, r6, r9, lsl #2
 8001446:	460f      	mov	r7, r1
 8001448:	f852 2c04 	ldr.w	r2, [r2, #-4]
 800144c:	4649      	mov	r1, r9
 800144e:	2a00      	cmp	r2, #0
 8001450:	d1f3      	bne.n	800143a <rt_tsk_create+0x36>
 8001452:	b2ed      	uxtb	r5, r5
 8001454:	2301      	movs	r3, #1
 8001456:	f884 9003 	strb.w	r9, [r4, #3]
 800145a:	f8c4 a01c 	str.w	r10, [r4, #28]
 800145e:	f8c4 a038 	str.w	r10, [r4, #56]	; 0x38
 8001462:	7022      	strb	r2, [r4, #0]
 8001464:	7063      	strb	r3, [r4, #1]
 8001466:	70a5      	strb	r5, [r4, #2]
 8001468:	f884 5024 	strb.w	r5, [r4, #36]	; 0x24
 800146c:	6062      	str	r2, [r4, #4]
 800146e:	60a2      	str	r2, [r4, #8]
 8001470:	60e2      	str	r2, [r4, #12]
 8001472:	6122      	str	r2, [r4, #16]
 8001474:	6222      	str	r2, [r4, #32]
 8001476:	82a2      	strh	r2, [r4, #20]
 8001478:	82e2      	strh	r2, [r4, #22]
 800147a:	8322      	strh	r2, [r4, #24]
 800147c:	8362      	strh	r2, [r4, #26]
 800147e:	f884 2025 	strb.w	r2, [r4, #37]	; 0x25
 8001482:	b918      	cbnz	r0, 800148c <rt_tsk_create+0x88>
 8001484:	4809      	ldr	r0, [pc, #36]	; (80014ac <rt_tsk_create+0xa8>)
 8001486:	f7ff fa5a 	bl	800093e <rt_alloc_box>
 800148a:	6320      	str	r0, [r4, #48]	; 0x30
 800148c:	4620      	mov	r0, r4
 800148e:	4641      	mov	r1, r8
 8001490:	f7ff f9d0 	bl	8000834 <rt_init_stack>
 8001494:	4620      	mov	r0, r4
 8001496:	f846 4027 	str.w	r4, [r6, r7, lsl #2]
 800149a:	f7ff ff2f 	bl	80012fc <rt_dispatch>
 800149e:	e7c2      	b.n	8001426 <rt_tsk_create+0x22>
 80014a0:	20001994 	.word	0x20001994
 80014a4:	0800497c 	.word	0x0800497c
 80014a8:	20001958 	.word	0x20001958
 80014ac:	20001d60 	.word	0x20001d60

080014b0 <rt_tsk_delete>:
 80014b0:	e92d 4ff8 	stmdb	sp!, {r3, r4, r5, r6, r7, r8, r9, r10, r11, lr}
 80014b4:	4d4d      	ldr	r5, [pc, #308]	; (80015ec <rt_tsk_delete+0x13c>)
 80014b6:	b118      	cbz	r0, 80014c0 <rt_tsk_delete+0x10>
 80014b8:	682b      	ldr	r3, [r5, #0]
 80014ba:	78db      	ldrb	r3, [r3, #3]
 80014bc:	4298      	cmp	r0, r3
 80014be:	d141      	bne.n	8001544 <rt_tsk_delete+0x94>
 80014c0:	682c      	ldr	r4, [r5, #0]
 80014c2:	f8df 813c 	ldr.w	r8, [pc, #316]	; 8001600 <rt_tsk_delete+0x150>
 80014c6:	2300      	movs	r3, #0
 80014c8:	7063      	strb	r3, [r4, #1]
 80014ca:	f002 fc80 	bl	8003dce <rt_get_PSP>
 80014ce:	62e0      	str	r0, [r4, #44]	; 0x2c
 80014d0:	f7ff f99e 	bl	8000810 <rt_stk_check>
 80014d4:	682b      	ldr	r3, [r5, #0]
 80014d6:	6a1c      	ldr	r4, [r3, #32]
 80014d8:	2701      	movs	r7, #1
 80014da:	b9a4      	cbnz	r4, 8001506 <rt_tsk_delete+0x56>
 80014dc:	682a      	ldr	r2, [r5, #0]
 80014de:	4944      	ldr	r1, [pc, #272]	; (80015f0 <rt_tsk_delete+0x140>)
 80014e0:	78d3      	ldrb	r3, [r2, #3]
 80014e2:	4844      	ldr	r0, [pc, #272]	; (80015f4 <rt_tsk_delete+0x144>)
 80014e4:	3b01      	subs	r3, #1
 80014e6:	f841 4023 	str.w	r4, [r1, r3, lsl #2]
 80014ea:	6b11      	ldr	r1, [r2, #48]	; 0x30
 80014ec:	f7ff fa34 	bl	8000958 <rt_free_box>
 80014f0:	6829      	ldr	r1, [r5, #0]
 80014f2:	4841      	ldr	r0, [pc, #260]	; (80015f8 <rt_tsk_delete+0x148>)
 80014f4:	630c      	str	r4, [r1, #48]	; 0x30
 80014f6:	f7ff fa2f 	bl	8000958 <rt_free_box>
 80014fa:	602c      	str	r4, [r5, #0]
 80014fc:	f7ff fef4 	bl	80012e8 <rt_dispatch.part.0>
 8001500:	4620      	mov	r0, r4
 8001502:	e8bd 8ff8 	ldmia.w	sp!, {r3, r4, r5, r6, r7, r8, r9, r10, r11, pc}
 8001506:	6863      	ldr	r3, [r4, #4]
 8001508:	b1b3      	cbz	r3, 8001538 <rt_tsk_delete+0x88>
 800150a:	4620      	mov	r0, r4
 800150c:	f7ff f81a 	bl	8000544 <rt_get_first>
 8001510:	2100      	movs	r1, #0
 8001512:	4606      	mov	r6, r0
 8001514:	f7ff f9da 	bl	80008cc <rt_ret_val>
 8001518:	4630      	mov	r0, r6
 800151a:	f7ff f8b9 	bl	8000690 <rt_rmv_dly>
 800151e:	7077      	strb	r7, [r6, #1]
 8001520:	4631      	mov	r1, r6
 8001522:	4640      	mov	r0, r8
 8001524:	f7fe fff6 	bl	8000514 <rt_put_prio>
 8001528:	68e3      	ldr	r3, [r4, #12]
 800152a:	6a32      	ldr	r2, [r6, #32]
 800152c:	8067      	strh	r7, [r4, #2]
 800152e:	60a6      	str	r6, [r4, #8]
 8001530:	60e2      	str	r2, [r4, #12]
 8001532:	6234      	str	r4, [r6, #32]
 8001534:	461c      	mov	r4, r3
 8001536:	e7d0      	b.n	80014da <rt_tsk_delete+0x2a>
 8001538:	68e2      	ldr	r2, [r4, #12]
 800153a:	8063      	strh	r3, [r4, #2]
 800153c:	60a3      	str	r3, [r4, #8]
 800153e:	60e3      	str	r3, [r4, #12]
 8001540:	4614      	mov	r4, r2
 8001542:	e7ca      	b.n	80014da <rt_tsk_delete+0x2a>
 8001544:	4b2d      	ldr	r3, [pc, #180]	; (80015fc <rt_tsk_delete+0x14c>)
 8001546:	881b      	ldrh	r3, [r3, #0]
 8001548:	4298      	cmp	r0, r3
 800154a:	d84d      	bhi.n	80015e8 <rt_tsk_delete+0x138>
 800154c:	4b28      	ldr	r3, [pc, #160]	; (80015f0 <rt_tsk_delete+0x140>)
 800154e:	1e47      	subs	r7, r0, #1
 8001550:	4699      	mov	r9, r3
 8001552:	f853 6027 	ldr.w	r6, [r3, r7, lsl #2]
 8001556:	2e00      	cmp	r6, #0
 8001558:	d046      	beq.n	80015e8 <rt_tsk_delete+0x138>
 800155a:	4630      	mov	r0, r6
 800155c:	f7ff f86a 	bl	8000634 <rt_rmv_list>
 8001560:	4630      	mov	r0, r6
 8001562:	f7ff f895 	bl	8000690 <rt_rmv_dly>
 8001566:	f8df b098 	ldr.w	r11, [pc, #152]	; 8001600 <rt_tsk_delete+0x150>
 800156a:	6a34      	ldr	r4, [r6, #32]
 800156c:	f04f 0a01 	mov.w	r10, #1
 8001570:	b9b4      	cbnz	r4, 80015a0 <rt_tsk_delete+0xf0>
 8001572:	6b31      	ldr	r1, [r6, #48]	; 0x30
 8001574:	481f      	ldr	r0, [pc, #124]	; (80015f4 <rt_tsk_delete+0x144>)
 8001576:	f849 4027 	str.w	r4, [r9, r7, lsl #2]
 800157a:	f7ff f9ed 	bl	8000958 <rt_free_box>
 800157e:	4631      	mov	r1, r6
 8001580:	6334      	str	r4, [r6, #48]	; 0x30
 8001582:	481d      	ldr	r0, [pc, #116]	; (80015f8 <rt_tsk_delete+0x148>)
 8001584:	f7ff f9e8 	bl	8000958 <rt_free_box>
 8001588:	481d      	ldr	r0, [pc, #116]	; (8001600 <rt_tsk_delete+0x150>)
 800158a:	6829      	ldr	r1, [r5, #0]
 800158c:	6843      	ldr	r3, [r0, #4]
 800158e:	789a      	ldrb	r2, [r3, #2]
 8001590:	788b      	ldrb	r3, [r1, #2]
 8001592:	429a      	cmp	r2, r3
 8001594:	d9b4      	bls.n	8001500 <rt_tsk_delete+0x50>
 8001596:	2301      	movs	r3, #1
 8001598:	704b      	strb	r3, [r1, #1]
 800159a:	f7fe ffbb 	bl	8000514 <rt_put_prio>
 800159e:	e7ad      	b.n	80014fc <rt_tsk_delete+0x4c>
 80015a0:	6863      	ldr	r3, [r4, #4]
 80015a2:	b1db      	cbz	r3, 80015dc <rt_tsk_delete+0x12c>
 80015a4:	4620      	mov	r0, r4
 80015a6:	f7fe ffcd 	bl	8000544 <rt_get_first>
 80015aa:	2100      	movs	r1, #0
 80015ac:	4680      	mov	r8, r0
 80015ae:	f7ff f98d 	bl	80008cc <rt_ret_val>
 80015b2:	4640      	mov	r0, r8
 80015b4:	f7ff f86c 	bl	8000690 <rt_rmv_dly>
 80015b8:	f888 a001 	strb.w	r10, [r8, #1]
 80015bc:	4641      	mov	r1, r8
 80015be:	4658      	mov	r0, r11
 80015c0:	f7fe ffa8 	bl	8000514 <rt_put_prio>
 80015c4:	68e3      	ldr	r3, [r4, #12]
 80015c6:	f8d8 2020 	ldr.w	r2, [r8, #32]
 80015ca:	f8a4 a002 	strh.w	r10, [r4, #2]
 80015ce:	f8c4 8008 	str.w	r8, [r4, #8]
 80015d2:	60e2      	str	r2, [r4, #12]
 80015d4:	f8c8 4020 	str.w	r4, [r8, #32]
 80015d8:	461c      	mov	r4, r3
 80015da:	e7c9      	b.n	8001570 <rt_tsk_delete+0xc0>
 80015dc:	68e2      	ldr	r2, [r4, #12]
 80015de:	8063      	strh	r3, [r4, #2]
 80015e0:	60a3      	str	r3, [r4, #8]
 80015e2:	60e3      	str	r3, [r4, #12]
 80015e4:	4614      	mov	r4, r2
 80015e6:	e7c3      	b.n	8001570 <rt_tsk_delete+0xc0>
 80015e8:	24ff      	movs	r4, #255	; 0xff
 80015ea:	e789      	b.n	8001500 <rt_tsk_delete+0x50>
 80015ec:	20001fbc 	.word	0x20001fbc
 80015f0:	20001958 	.word	0x20001958
 80015f4:	20001d60 	.word	0x20001d60
 80015f8:	20001994 	.word	0x20001994
 80015fc:	0800497c 	.word	0x0800497c
 8001600:	20001f70 	.word	0x20001f70

08001604 <rt_sys_init>:
 8001604:	b538      	push	{r3, r4, r5, lr}
 8001606:	4b2c      	ldr	r3, [pc, #176]	; (80016b8 <rt_sys_init+0xb4>)
 8001608:	492c      	ldr	r1, [pc, #176]	; (80016bc <rt_sys_init+0xb8>)
 800160a:	881a      	ldrh	r2, [r3, #0]
 800160c:	2300      	movs	r3, #0
 800160e:	4618      	mov	r0, r3
 8001610:	4293      	cmp	r3, r2
 8001612:	d34d      	bcc.n	80016b0 <rt_sys_init+0xac>
 8001614:	4b2a      	ldr	r3, [pc, #168]	; (80016c0 <rt_sys_init+0xbc>)
 8001616:	482b      	ldr	r0, [pc, #172]	; (80016c4 <rt_sys_init+0xc0>)
 8001618:	8819      	ldrh	r1, [r3, #0]
 800161a:	4c2b      	ldr	r4, [pc, #172]	; (80016c8 <rt_sys_init+0xc4>)
 800161c:	2240      	movs	r2, #64	; 0x40
 800161e:	f7ff f969 	bl	80008f4 <_init_box>
 8001622:	4b2a      	ldr	r3, [pc, #168]	; (80016cc <rt_sys_init+0xc8>)
 8001624:	482a      	ldr	r0, [pc, #168]	; (80016d0 <rt_sys_init+0xcc>)
 8001626:	881a      	ldrh	r2, [r3, #0]
 8001628:	4b2a      	ldr	r3, [pc, #168]	; (80016d4 <rt_sys_init+0xd0>)
 800162a:	f042 4200 	orr.w	r2, r2, #2147483648	; 0x80000000
 800162e:	6819      	ldr	r1, [r3, #0]
 8001630:	f7ff f960 	bl	80008f4 <_init_box>
 8001634:	4b28      	ldr	r3, [pc, #160]	; (80016d8 <rt_sys_init+0xd4>)
 8001636:	8819      	ldrh	r1, [r3, #0]
 8001638:	4b28      	ldr	r3, [pc, #160]	; (80016dc <rt_sys_init+0xd8>)
 800163a:	2208      	movs	r2, #8
 800163c:	6818      	ldr	r0, [r3, #0]
 800163e:	f7ff f959 	bl	80008f4 <_init_box>
 8001642:	23ff      	movs	r3, #255	; 0xff
 8001644:	2500      	movs	r5, #0
 8001646:	70e3      	strb	r3, [r4, #3]
 8001648:	4821      	ldr	r0, [pc, #132]	; (80016d0 <rt_sys_init+0xcc>)
 800164a:	62a5      	str	r5, [r4, #40]	; 0x28
 800164c:	2301      	movs	r3, #1
 800164e:	7063      	strb	r3, [r4, #1]
 8001650:	7025      	strb	r5, [r4, #0]
 8001652:	70a5      	strb	r5, [r4, #2]
 8001654:	f884 5024 	strb.w	r5, [r4, #36]	; 0x24
 8001658:	6065      	str	r5, [r4, #4]
 800165a:	60a5      	str	r5, [r4, #8]
 800165c:	60e5      	str	r5, [r4, #12]
 800165e:	6125      	str	r5, [r4, #16]
 8001660:	6225      	str	r5, [r4, #32]
 8001662:	82a5      	strh	r5, [r4, #20]
 8001664:	82e5      	strh	r5, [r4, #22]
 8001666:	8325      	strh	r5, [r4, #24]
 8001668:	8365      	strh	r5, [r4, #26]
 800166a:	f884 5025 	strb.w	r5, [r4, #37]	; 0x25
 800166e:	f7ff f966 	bl	800093e <rt_alloc_box>
 8001672:	491b      	ldr	r1, [pc, #108]	; (80016e0 <rt_sys_init+0xdc>)
 8001674:	6320      	str	r0, [r4, #48]	; 0x30
 8001676:	4620      	mov	r0, r4
 8001678:	f7ff f8dc 	bl	8000834 <rt_init_stack>
 800167c:	4b19      	ldr	r3, [pc, #100]	; (80016e4 <rt_sys_init+0xe0>)
 800167e:	2204      	movs	r2, #4
 8001680:	701a      	strb	r2, [r3, #0]
 8001682:	605d      	str	r5, [r3, #4]
 8001684:	4b18      	ldr	r3, [pc, #96]	; (80016e8 <rt_sys_init+0xe4>)
 8001686:	701a      	strb	r2, [r3, #0]
 8001688:	60dd      	str	r5, [r3, #12]
 800168a:	611d      	str	r5, [r3, #16]
 800168c:	829d      	strh	r5, [r3, #20]
 800168e:	4b17      	ldr	r3, [pc, #92]	; (80016ec <rt_sys_init+0xe8>)
 8001690:	4620      	mov	r0, r4
 8001692:	601c      	str	r4, [r3, #0]
 8001694:	2302      	movs	r3, #2
 8001696:	7063      	strb	r3, [r4, #1]
 8001698:	f7ff fe16 	bl	80012c8 <rt_switch_req>
 800169c:	4a14      	ldr	r2, [pc, #80]	; (80016f0 <rt_sys_init+0xec>)
 800169e:	4b15      	ldr	r3, [pc, #84]	; (80016f4 <rt_sys_init+0xf0>)
 80016a0:	7812      	ldrb	r2, [r2, #0]
 80016a2:	701d      	strb	r5, [r3, #0]
 80016a4:	705d      	strb	r5, [r3, #1]
 80016a6:	70da      	strb	r2, [r3, #3]
 80016a8:	e8bd 4038 	ldmia.w	sp!, {r3, r4, r5, lr}
 80016ac:	f7ff ba9c 	b.w	8000be8 <rt_init_robin>
 80016b0:	f841 0023 	str.w	r0, [r1, r3, lsl #2]
 80016b4:	3301      	adds	r3, #1
 80016b6:	e7ab      	b.n	8001610 <rt_sys_init+0xc>
 80016b8:	0800497c 	.word	0x0800497c
 80016bc:	20001958 	.word	0x20001958
 80016c0:	08004948 	.word	0x08004948
 80016c4:	20001994 	.word	0x20001994
 80016c8:	20001fc4 	.word	0x20001fc4
 80016cc:	08004998 	.word	0x08004998
 80016d0:	20001d60 	.word	0x20001d60
 80016d4:	08004944 	.word	0x08004944
 80016d8:	0800494a 	.word	0x0800494a
 80016dc:	200000c8 	.word	0x200000c8
 80016e0:	08000475 	.word	0x08000475
 80016e4:	20001f70 	.word	0x20001f70
 80016e8:	20001f88 	.word	0x20001f88
 80016ec:	20001fbc 	.word	0x20001fbc
 80016f0:	08004979 	.word	0x08004979
 80016f4:	200015a8 	.word	0x200015a8

080016f8 <rt_sys_start>:
 80016f8:	b508      	push	{r3, lr}
 80016fa:	4b1e      	ldr	r3, [pc, #120]	; (8001774 <rt_sys_start+0x7c>)
 80016fc:	681a      	ldr	r2, [r3, #0]
 80016fe:	f442 027f 	orr.w	r2, r2, #16711680	; 0xff0000
 8001702:	601a      	str	r2, [r3, #0]
 8001704:	681b      	ldr	r3, [r3, #0]
 8001706:	021b      	lsls	r3, r3, #8
 8001708:	f003 437f 	and.w	r3, r3, #4278190080	; 0xff000000
 800170c:	43db      	mvns	r3, r3
 800170e:	fab3 f383 	clz	r3, r3
 8001712:	4a19      	ldr	r2, [pc, #100]	; (8001778 <rt_sys_start+0x80>)
 8001714:	4819      	ldr	r0, [pc, #100]	; (800177c <rt_sys_start+0x84>)
 8001716:	6812      	ldr	r2, [r2, #0]
 8001718:	6801      	ldr	r1, [r0, #0]
 800171a:	b2db      	uxtb	r3, r3
 800171c:	f1c3 0308 	rsb	r3, r3, #8
 8001720:	f3c2 2202 	ubfx	r2, r2, #8, #3
 8001724:	4293      	cmp	r3, r2
 8001726:	bf98      	it	ls
 8001728:	1c53      	addls	r3, r2, #1
 800172a:	f06f 7280 	mvn.w	r2, #16777216	; 0x1000000
 800172e:	fa02 f303 	lsl.w	r3, r2, r3
 8001732:	f003 437f 	and.w	r3, r3, #4278190080	; 0xff000000
 8001736:	f021 427f 	bic.w	r2, r1, #4278190080	; 0xff000000
 800173a:	4313      	orrs	r3, r2
 800173c:	6003      	str	r3, [r0, #0]
 800173e:	f7ff f82f 	bl	80007a0 <os_tick_init>
 8001742:	4b0f      	ldr	r3, [pc, #60]	; (8001780 <rt_sys_start+0x88>)
 8001744:	2800      	cmp	r0, #0
 8001746:	6018      	str	r0, [r3, #0]
 8001748:	db12      	blt.n	8001770 <rt_sys_start+0x78>
 800174a:	f100 4060 	add.w	r0, r0, #3758096384	; 0xe0000000
 800174e:	f500 4064 	add.w	r0, r0, #58368	; 0xe400
 8001752:	22ff      	movs	r2, #255	; 0xff
 8001754:	7002      	strb	r2, [r0, #0]
 8001756:	681a      	ldr	r2, [r3, #0]
 8001758:	0953      	lsrs	r3, r2, #5
 800175a:	009b      	lsls	r3, r3, #2
 800175c:	f103 4360 	add.w	r3, r3, #3758096384	; 0xe0000000
 8001760:	f503 4361 	add.w	r3, r3, #57600	; 0xe100
 8001764:	f002 021f 	and.w	r2, r2, #31
 8001768:	2101      	movs	r1, #1
 800176a:	fa01 f202 	lsl.w	r2, r1, r2
 800176e:	601a      	str	r2, [r3, #0]
 8001770:	bd08      	pop	{r3, pc}
 8001772:	bf00      	nop
 8001774:	e000ed20 	.word	0xe000ed20
 8001778:	e000ed0c 	.word	0xe000ed0c
 800177c:	e000ed1c 	.word	0xe000ed1c
 8001780:	20001fa0 	.word	0x20001fa0

08001784 <rt_mut_init>:
 8001784:	2303      	movs	r3, #3
 8001786:	7003      	strb	r3, [r0, #0]
 8001788:	2300      	movs	r3, #0
 800178a:	8043      	strh	r3, [r0, #2]
 800178c:	6043      	str	r3, [r0, #4]
 800178e:	6083      	str	r3, [r0, #8]
 8001790:	60c3      	str	r3, [r0, #12]
 8001792:	4770      	bx	lr

08001794 <rt_mut_release>:
 8001794:	e92d 43f8 	stmdb	sp!, {r3, r4, r5, r6, r7, r8, r9, lr}
 8001798:	8843      	ldrh	r3, [r0, #2]
 800179a:	4605      	mov	r5, r0
 800179c:	2b00      	cmp	r3, #0
 800179e:	d063      	beq.n	8001868 <rt_mut_release+0xd4>
 80017a0:	4f32      	ldr	r7, [pc, #200]	; (800186c <rt_mut_release+0xd8>)
 80017a2:	6881      	ldr	r1, [r0, #8]
 80017a4:	683a      	ldr	r2, [r7, #0]
 80017a6:	4291      	cmp	r1, r2
 80017a8:	d15e      	bne.n	8001868 <rt_mut_release+0xd4>
 80017aa:	3b01      	subs	r3, #1
 80017ac:	b29b      	uxth	r3, r3
 80017ae:	8043      	strh	r3, [r0, #2]
 80017b0:	b11b      	cbz	r3, 80017ba <rt_mut_release+0x26>
 80017b2:	2400      	movs	r4, #0
 80017b4:	4620      	mov	r0, r4
 80017b6:	e8bd 83f8 	ldmia.w	sp!, {r3, r4, r5, r6, r7, r8, r9, pc}
 80017ba:	6a0b      	ldr	r3, [r1, #32]
 80017bc:	4298      	cmp	r0, r3
 80017be:	d129      	bne.n	8001814 <rt_mut_release+0x80>
 80017c0:	68c3      	ldr	r3, [r0, #12]
 80017c2:	620b      	str	r3, [r1, #32]
 80017c4:	f891 3024 	ldrb.w	r3, [r1, #36]	; 0x24
 80017c8:	6a0c      	ldr	r4, [r1, #32]
 80017ca:	bb5c      	cbnz	r4, 8001824 <rt_mut_release+0x90>
 80017cc:	708b      	strb	r3, [r1, #2]
 80017ce:	686a      	ldr	r2, [r5, #4]
 80017d0:	f8df 809c 	ldr.w	r8, [pc, #156]	; 8001870 <rt_mut_release+0xdc>
 80017d4:	2a00      	cmp	r2, #0
 80017d6:	d03b      	beq.n	8001850 <rt_mut_release+0xbc>
 80017d8:	4628      	mov	r0, r5
 80017da:	f7fe feb3 	bl	8000544 <rt_get_first>
 80017de:	4621      	mov	r1, r4
 80017e0:	4606      	mov	r6, r0
 80017e2:	f7ff f873 	bl	80008cc <rt_ret_val>
 80017e6:	4630      	mov	r0, r6
 80017e8:	f7fe ff52 	bl	8000690 <rt_rmv_dly>
 80017ec:	6a33      	ldr	r3, [r6, #32]
 80017ee:	60eb      	str	r3, [r5, #12]
 80017f0:	f04f 0901 	mov.w	r9, #1
 80017f4:	6839      	ldr	r1, [r7, #0]
 80017f6:	f8d8 3004 	ldr.w	r3, [r8, #4]
 80017fa:	f8a5 9002 	strh.w	r9, [r5, #2]
 80017fe:	60ae      	str	r6, [r5, #8]
 8001800:	6235      	str	r5, [r6, #32]
 8001802:	788a      	ldrb	r2, [r1, #2]
 8001804:	789b      	ldrb	r3, [r3, #2]
 8001806:	429a      	cmp	r2, r3
 8001808:	d314      	bcc.n	8001834 <rt_mut_release+0xa0>
 800180a:	4630      	mov	r0, r6
 800180c:	f7ff fd76 	bl	80012fc <rt_dispatch>
 8001810:	e7d0      	b.n	80017b4 <rt_mut_release+0x20>
 8001812:	4613      	mov	r3, r2
 8001814:	2b00      	cmp	r3, #0
 8001816:	d0d5      	beq.n	80017c4 <rt_mut_release+0x30>
 8001818:	68da      	ldr	r2, [r3, #12]
 800181a:	4295      	cmp	r5, r2
 800181c:	d1f9      	bne.n	8001812 <rt_mut_release+0x7e>
 800181e:	68ea      	ldr	r2, [r5, #12]
 8001820:	60da      	str	r2, [r3, #12]
 8001822:	e7cf      	b.n	80017c4 <rt_mut_release+0x30>
 8001824:	6862      	ldr	r2, [r4, #4]
 8001826:	b11a      	cbz	r2, 8001830 <rt_mut_release+0x9c>
 8001828:	7892      	ldrb	r2, [r2, #2]
 800182a:	4293      	cmp	r3, r2
 800182c:	bf38      	it	cc
 800182e:	4613      	movcc	r3, r2
 8001830:	68e4      	ldr	r4, [r4, #12]
 8001832:	e7ca      	b.n	80017ca <rt_mut_release+0x36>
 8001834:	4640      	mov	r0, r8
 8001836:	f7fe fe6d 	bl	8000514 <rt_put_prio>
 800183a:	4631      	mov	r1, r6
 800183c:	4640      	mov	r0, r8
 800183e:	f7fe fe69 	bl	8000514 <rt_put_prio>
 8001842:	683b      	ldr	r3, [r7, #0]
 8001844:	f883 9001 	strb.w	r9, [r3, #1]
 8001848:	f886 9001 	strb.w	r9, [r6, #1]
 800184c:	4620      	mov	r0, r4
 800184e:	e7dd      	b.n	800180c <rt_mut_release+0x78>
 8001850:	f8d8 2004 	ldr.w	r2, [r8, #4]
 8001854:	7892      	ldrb	r2, [r2, #2]
 8001856:	429a      	cmp	r2, r3
 8001858:	d9ab      	bls.n	80017b2 <rt_mut_release+0x1e>
 800185a:	4640      	mov	r0, r8
 800185c:	f7fe fe5a 	bl	8000514 <rt_put_prio>
 8001860:	683b      	ldr	r3, [r7, #0]
 8001862:	2201      	movs	r2, #1
 8001864:	705a      	strb	r2, [r3, #1]
 8001866:	e7f1      	b.n	800184c <rt_mut_release+0xb8>
 8001868:	24ff      	movs	r4, #255	; 0xff
 800186a:	e7a3      	b.n	80017b4 <rt_mut_release+0x20>
 800186c:	20001fbc 	.word	0x20001fbc
 8001870:	20001f70 	.word	0x20001f70

08001874 <rt_mut_wait>:
 8001874:	8843      	ldrh	r3, [r0, #2]
 8001876:	b570      	push	{r4, r5, r6, lr}
 8001878:	4604      	mov	r4, r0
 800187a:	460e      	mov	r6, r1
 800187c:	4d13      	ldr	r5, [pc, #76]	; (80018cc <rt_mut_wait+0x58>)
 800187e:	b943      	cbnz	r3, 8001892 <rt_mut_wait+0x1e>
 8001880:	682a      	ldr	r2, [r5, #0]
 8001882:	6082      	str	r2, [r0, #8]
 8001884:	6a11      	ldr	r1, [r2, #32]
 8001886:	60c1      	str	r1, [r0, #12]
 8001888:	6210      	str	r0, [r2, #32]
 800188a:	3301      	adds	r3, #1
 800188c:	8063      	strh	r3, [r4, #2]
 800188e:	2000      	movs	r0, #0
 8001890:	bd70      	pop	{r4, r5, r6, pc}
 8001892:	6880      	ldr	r0, [r0, #8]
 8001894:	682a      	ldr	r2, [r5, #0]
 8001896:	4290      	cmp	r0, r2
 8001898:	d0f7      	beq.n	800188a <rt_mut_wait+0x16>
 800189a:	b181      	cbz	r1, 80018be <rt_mut_wait+0x4a>
 800189c:	7893      	ldrb	r3, [r2, #2]
 800189e:	7882      	ldrb	r2, [r0, #2]
 80018a0:	429a      	cmp	r2, r3
 80018a2:	d202      	bcs.n	80018aa <rt_mut_wait+0x36>
 80018a4:	7083      	strb	r3, [r0, #2]
 80018a6:	f7fe fedb 	bl	8000660 <rt_resort_prio>
 80018aa:	6862      	ldr	r2, [r4, #4]
 80018ac:	b14a      	cbz	r2, 80018c2 <rt_mut_wait+0x4e>
 80018ae:	6829      	ldr	r1, [r5, #0]
 80018b0:	4620      	mov	r0, r4
 80018b2:	f7fe fe2f 	bl	8000514 <rt_put_prio>
 80018b6:	2109      	movs	r1, #9
 80018b8:	4630      	mov	r0, r6
 80018ba:	f7ff fd43 	bl	8001344 <rt_block>
 80018be:	2001      	movs	r0, #1
 80018c0:	bd70      	pop	{r4, r5, r6, pc}
 80018c2:	682b      	ldr	r3, [r5, #0]
 80018c4:	6063      	str	r3, [r4, #4]
 80018c6:	605a      	str	r2, [r3, #4]
 80018c8:	609c      	str	r4, [r3, #8]
 80018ca:	e7f4      	b.n	80018b6 <rt_mut_wait+0x42>
 80018cc:	20001fbc 	.word	0x20001fbc

080018d0 <rt_dly_wait>:
 80018d0:	2103      	movs	r1, #3
 80018d2:	f7ff bd37 	b.w	8001344 <rt_block>
	...

080018d8 <rt_sem_psh>:
 80018d8:	6842      	ldr	r2, [r0, #4]
 80018da:	b510      	push	{r4, lr}
 80018dc:	b17a      	cbz	r2, 80018fe <rt_sem_psh+0x26>
 80018de:	f7fe fe31 	bl	8000544 <rt_get_first>
 80018e2:	4604      	mov	r4, r0
 80018e4:	f7fe fed4 	bl	8000690 <rt_rmv_dly>
 80018e8:	2101      	movs	r1, #1
 80018ea:	7061      	strb	r1, [r4, #1]
 80018ec:	4620      	mov	r0, r4
 80018ee:	f7fe ffed 	bl	80008cc <rt_ret_val>
 80018f2:	4621      	mov	r1, r4
 80018f4:	4804      	ldr	r0, [pc, #16]	; (8001908 <rt_sem_psh+0x30>)
 80018f6:	e8bd 4010 	ldmia.w	sp!, {r4, lr}
 80018fa:	f7fe be0b 	b.w	8000514 <rt_put_prio>
 80018fe:	8842      	ldrh	r2, [r0, #2]
 8001900:	3201      	adds	r2, #1
 8001902:	8042      	strh	r2, [r0, #2]
 8001904:	bd10      	pop	{r4, pc}
 8001906:	bf00      	nop
 8001908:	20001f70 	.word	0x20001f70

0800190c <timer_irq_handler>:
 800190c:	b570      	push	{r4, r5, r6, lr}
 800190e:	4c13      	ldr	r4, [pc, #76]	; (800195c <timer_irq_handler+0x50>)
 8001910:	6823      	ldr	r3, [r4, #0]
 8001912:	691a      	ldr	r2, [r3, #16]
 8001914:	0795      	lsls	r5, r2, #30
 8001916:	d507      	bpl.n	8001928 <timer_irq_handler+0x1c>
 8001918:	68da      	ldr	r2, [r3, #12]
 800191a:	0790      	lsls	r0, r2, #30
 800191c:	d504      	bpl.n	8001928 <timer_irq_handler+0x1c>
 800191e:	f06f 0202 	mvn.w	r2, #2
 8001922:	611a      	str	r2, [r3, #16]
 8001924:	f7fe fcd6 	bl	80002d4 <us_ticker_irq_handler>
 8001928:	6823      	ldr	r3, [r4, #0]
 800192a:	691a      	ldr	r2, [r3, #16]
 800192c:	0751      	lsls	r1, r2, #29
 800192e:	d513      	bpl.n	8001958 <timer_irq_handler+0x4c>
 8001930:	68da      	ldr	r2, [r3, #12]
 8001932:	0752      	lsls	r2, r2, #29
 8001934:	d510      	bpl.n	8001958 <timer_irq_handler+0x4c>
 8001936:	f06f 0204 	mvn.w	r2, #4
 800193a:	4e09      	ldr	r6, [pc, #36]	; (8001960 <timer_irq_handler+0x54>)
 800193c:	611a      	str	r2, [r3, #16]
 800193e:	6a5d      	ldr	r5, [r3, #36]	; 0x24
 8001940:	6833      	ldr	r3, [r6, #0]
 8001942:	1aeb      	subs	r3, r5, r3
 8001944:	f5b3 7f7a 	cmp.w	r3, #1000	; 0x3e8
 8001948:	d306      	bcc.n	8001958 <timer_irq_handler+0x4c>
 800194a:	f000 fdaf 	bl	80024ac <HAL_IncTick>
 800194e:	6823      	ldr	r3, [r4, #0]
 8001950:	f505 727a 	add.w	r2, r5, #1000	; 0x3e8
 8001954:	639a      	str	r2, [r3, #56]	; 0x38
 8001956:	6035      	str	r5, [r6, #0]
 8001958:	bd70      	pop	{r4, r5, r6, pc}
 800195a:	bf00      	nop
 800195c:	20002008 	.word	0x20002008
 8001960:	2000113c 	.word	0x2000113c

08001964 <HAL_InitTick>:
 8001964:	b530      	push	{r4, r5, lr}
 8001966:	b089      	sub	sp, #36	; 0x24
 8001968:	a901      	add	r1, sp, #4
 800196a:	a803      	add	r0, sp, #12
 800196c:	f002 f856 	bl	8003a1c <HAL_RCC_GetClockConfig>
 8001970:	f002 f824 	bl	80039bc <HAL_RCC_GetPCLK1Freq>
 8001974:	4b24      	ldr	r3, [pc, #144]	; (8001a08 <HAL_InitTick+0xa4>)
 8001976:	9001      	str	r0, [sp, #4]
 8001978:	6d9a      	ldr	r2, [r3, #88]	; 0x58
 800197a:	4c24      	ldr	r4, [pc, #144]	; (8001a0c <HAL_InitTick+0xa8>)
 800197c:	f042 0208 	orr.w	r2, r2, #8
 8001980:	659a      	str	r2, [r3, #88]	; 0x58
 8001982:	6d9a      	ldr	r2, [r3, #88]	; 0x58
 8001984:	f002 0208 	and.w	r2, r2, #8
 8001988:	9202      	str	r2, [sp, #8]
 800198a:	9a02      	ldr	r2, [sp, #8]
 800198c:	6b9a      	ldr	r2, [r3, #56]	; 0x38
 800198e:	f042 0208 	orr.w	r2, r2, #8
 8001992:	639a      	str	r2, [r3, #56]	; 0x38
 8001994:	6b9a      	ldr	r2, [r3, #56]	; 0x38
 8001996:	f022 0208 	bic.w	r2, r2, #8
 800199a:	639a      	str	r2, [r3, #56]	; 0x38
 800199c:	9a06      	ldr	r2, [sp, #24]
 800199e:	f5a3 3301 	sub.w	r3, r3, #132096	; 0x20400
 80019a2:	6023      	str	r3, [r4, #0]
 80019a4:	f04f 33ff 	mov.w	r3, #4294967295	; 0xffffffff
 80019a8:	60e3      	str	r3, [r4, #12]
 80019aa:	4b19      	ldr	r3, [pc, #100]	; (8001a10 <HAL_InitTick+0xac>)
 80019ac:	bb4a      	cbnz	r2, 8001a02 <HAL_InitTick+0x9e>
 80019ae:	fbb0 f0f3 	udiv	r0, r0, r3
 80019b2:	3801      	subs	r0, #1
 80019b4:	2500      	movs	r5, #0
 80019b6:	6060      	str	r0, [r4, #4]
 80019b8:	4814      	ldr	r0, [pc, #80]	; (8001a0c <HAL_InitTick+0xa8>)
 80019ba:	6125      	str	r5, [r4, #16]
 80019bc:	60a5      	str	r5, [r4, #8]
 80019be:	6165      	str	r5, [r4, #20]
 80019c0:	f001 fbaa 	bl	8003118 <HAL_TIM_OC_Init>
 80019c4:	4913      	ldr	r1, [pc, #76]	; (8001a14 <HAL_InitTick+0xb0>)
 80019c6:	2032      	movs	r0, #50	; 0x32
 80019c8:	f000 fd44 	bl	8002454 <__NVIC_SetVector>
 80019cc:	4b12      	ldr	r3, [pc, #72]	; (8001a18 <HAL_InitTick+0xb4>)
 80019ce:	480f      	ldr	r0, [pc, #60]	; (8001a0c <HAL_InitTick+0xa8>)
 80019d0:	f44f 2280 	mov.w	r2, #262144	; 0x40000
 80019d4:	605a      	str	r2, [r3, #4]
 80019d6:	4629      	mov	r1, r5
 80019d8:	f001 fbea 	bl	80031b0 <HAL_TIM_OC_Start>
 80019dc:	2104      	movs	r1, #4
 80019de:	480b      	ldr	r0, [pc, #44]	; (8001a0c <HAL_InitTick+0xa8>)
 80019e0:	f001 fbe6 	bl	80031b0 <HAL_TIM_OC_Start>
 80019e4:	6823      	ldr	r3, [r4, #0]
 80019e6:	4a0d      	ldr	r2, [pc, #52]	; (8001a1c <HAL_InitTick+0xb8>)
 80019e8:	6a59      	ldr	r1, [r3, #36]	; 0x24
 80019ea:	6011      	str	r1, [r2, #0]
 80019ec:	6812      	ldr	r2, [r2, #0]
 80019ee:	f502 727a 	add.w	r2, r2, #1000	; 0x3e8
 80019f2:	639a      	str	r2, [r3, #56]	; 0x38
 80019f4:	68da      	ldr	r2, [r3, #12]
 80019f6:	4628      	mov	r0, r5
 80019f8:	f042 0204 	orr.w	r2, r2, #4
 80019fc:	60da      	str	r2, [r3, #12]
 80019fe:	b009      	add	sp, #36	; 0x24
 8001a00:	bd30      	pop	{r4, r5, pc}
 8001a02:	0040      	lsls	r0, r0, #1
 8001a04:	e7d3      	b.n	80019ae <HAL_InitTick+0x4a>
 8001a06:	bf00      	nop
 8001a08:	40021000 	.word	0x40021000
 8001a0c:	20002008 	.word	0x20002008
 8001a10:	000f4240 	.word	0x000f4240
 8001a14:	0800190d 	.word	0x0800190d
 8001a18:	e000e100 	.word	0xe000e100
 8001a1c:	2000113c 	.word	0x2000113c

08001a20 <HAL_SuspendTick>:
 8001a20:	4b03      	ldr	r3, [pc, #12]	; (8001a30 <HAL_SuspendTick+0x10>)
 8001a22:	4a04      	ldr	r2, [pc, #16]	; (8001a34 <HAL_SuspendTick+0x14>)
 8001a24:	6013      	str	r3, [r2, #0]
 8001a26:	68da      	ldr	r2, [r3, #12]
 8001a28:	f022 0204 	bic.w	r2, r2, #4
 8001a2c:	60da      	str	r2, [r3, #12]
 8001a2e:	4770      	bx	lr
 8001a30:	40000c00 	.word	0x40000c00
 8001a34:	20002008 	.word	0x20002008

08001a38 <HAL_ResumeTick>:
 8001a38:	4b03      	ldr	r3, [pc, #12]	; (8001a48 <HAL_ResumeTick+0x10>)
 8001a3a:	4a04      	ldr	r2, [pc, #16]	; (8001a4c <HAL_ResumeTick+0x14>)
 8001a3c:	6013      	str	r3, [r2, #0]
 8001a3e:	68da      	ldr	r2, [r3, #12]
 8001a40:	f042 0204 	orr.w	r2, r2, #4
 8001a44:	60da      	str	r2, [r3, #12]
 8001a46:	4770      	bx	lr
 8001a48:	40000c00 	.word	0x40000c00
 8001a4c:	20002008 	.word	0x20002008

08001a50 <Set_GPIO_Clock>:
 8001a50:	b510      	push	{r4, lr}
 8001a52:	b08a      	sub	sp, #40	; 0x28
 8001a54:	2807      	cmp	r0, #7
 8001a56:	d872      	bhi.n	8001b3e <Set_GPIO_Clock+0xee>
 8001a58:	e8df f000 	tbb	[pc, r0]
 8001a5c:	2a1e1204 	.word	0x2a1e1204
 8001a60:	654e4236 	.word	0x654e4236
 8001a64:	4b38      	ldr	r3, [pc, #224]	; (8001b48 <Set_GPIO_Clock+0xf8>)
 8001a66:	6cda      	ldr	r2, [r3, #76]	; 0x4c
 8001a68:	f042 0201 	orr.w	r2, r2, #1
 8001a6c:	64da      	str	r2, [r3, #76]	; 0x4c
 8001a6e:	6cdb      	ldr	r3, [r3, #76]	; 0x4c
 8001a70:	f003 0301 	and.w	r3, r3, #1
 8001a74:	9301      	str	r3, [sp, #4]
 8001a76:	9b01      	ldr	r3, [sp, #4]
 8001a78:	f04f 4090 	mov.w	r0, #1207959552	; 0x48000000
 8001a7c:	b00a      	add	sp, #40	; 0x28
 8001a7e:	bd10      	pop	{r4, pc}
 8001a80:	4b31      	ldr	r3, [pc, #196]	; (8001b48 <Set_GPIO_Clock+0xf8>)
 8001a82:	4832      	ldr	r0, [pc, #200]	; (8001b4c <Set_GPIO_Clock+0xfc>)
 8001a84:	6cda      	ldr	r2, [r3, #76]	; 0x4c
 8001a86:	f042 0202 	orr.w	r2, r2, #2
 8001a8a:	64da      	str	r2, [r3, #76]	; 0x4c
 8001a8c:	6cdb      	ldr	r3, [r3, #76]	; 0x4c
 8001a8e:	f003 0302 	and.w	r3, r3, #2
 8001a92:	9302      	str	r3, [sp, #8]
 8001a94:	9b02      	ldr	r3, [sp, #8]
 8001a96:	e7f1      	b.n	8001a7c <Set_GPIO_Clock+0x2c>
 8001a98:	4b2b      	ldr	r3, [pc, #172]	; (8001b48 <Set_GPIO_Clock+0xf8>)
 8001a9a:	482d      	ldr	r0, [pc, #180]	; (8001b50 <Set_GPIO_Clock+0x100>)
 8001a9c:	6cda      	ldr	r2, [r3, #76]	; 0x4c
 8001a9e:	f042 0204 	orr.w	r2, r2, #4
 8001aa2:	64da      	str	r2, [r3, #76]	; 0x4c
 8001aa4:	6cdb      	ldr	r3, [r3, #76]	; 0x4c
 8001aa6:	f003 0304 	and.w	r3, r3, #4
 8001aaa:	9303      	str	r3, [sp, #12]
 8001aac:	9b03      	ldr	r3, [sp, #12]
 8001aae:	e7e5      	b.n	8001a7c <Set_GPIO_Clock+0x2c>
 8001ab0:	4b25      	ldr	r3, [pc, #148]	; (8001b48 <Set_GPIO_Clock+0xf8>)
 8001ab2:	4828      	ldr	r0, [pc, #160]	; (8001b54 <Set_GPIO_Clock+0x104>)
 8001ab4:	6cda      	ldr	r2, [r3, #76]	; 0x4c
 8001ab6:	f042 0208 	orr.w	r2, r2, #8
 8001aba:	64da      	str	r2, [r3, #76]	; 0x4c
 8001abc:	6cdb      	ldr	r3, [r3, #76]	; 0x4c
 8001abe:	f003 0308 	and.w	r3, r3, #8
 8001ac2:	9304      	str	r3, [sp, #16]
 8001ac4:	9b04      	ldr	r3, [sp, #16]
 8001ac6:	e7d9      	b.n	8001a7c <Set_GPIO_Clock+0x2c>
 8001ac8:	4b1f      	ldr	r3, [pc, #124]	; (8001b48 <Set_GPIO_Clock+0xf8>)
 8001aca:	4823      	ldr	r0, [pc, #140]	; (8001b58 <Set_GPIO_Clock+0x108>)
 8001acc:	6cda      	ldr	r2, [r3, #76]	; 0x4c
 8001ace:	f042 0210 	orr.w	r2, r2, #16
 8001ad2:	64da      	str	r2, [r3, #76]	; 0x4c
 8001ad4:	6cdb      	ldr	r3, [r3, #76]	; 0x4c
 8001ad6:	f003 0310 	and.w	r3, r3, #16
 8001ada:	9305      	str	r3, [sp, #20]
 8001adc:	9b05      	ldr	r3, [sp, #20]
 8001ade:	e7cd      	b.n	8001a7c <Set_GPIO_Clock+0x2c>
 8001ae0:	4b19      	ldr	r3, [pc, #100]	; (8001b48 <Set_GPIO_Clock+0xf8>)
 8001ae2:	481e      	ldr	r0, [pc, #120]	; (8001b5c <Set_GPIO_Clock+0x10c>)
 8001ae4:	6cda      	ldr	r2, [r3, #76]	; 0x4c
 8001ae6:	f042 0220 	orr.w	r2, r2, #32
 8001aea:	64da      	str	r2, [r3, #76]	; 0x4c
 8001aec:	6cdb      	ldr	r3, [r3, #76]	; 0x4c
 8001aee:	f003 0320 	and.w	r3, r3, #32
 8001af2:	9306      	str	r3, [sp, #24]
 8001af4:	9b06      	ldr	r3, [sp, #24]
 8001af6:	e7c1      	b.n	8001a7c <Set_GPIO_Clock+0x2c>
 8001af8:	4c13      	ldr	r4, [pc, #76]	; (8001b48 <Set_GPIO_Clock+0xf8>)
 8001afa:	6da3      	ldr	r3, [r4, #88]	; 0x58
 8001afc:	f043 5380 	orr.w	r3, r3, #268435456	; 0x10000000
 8001b00:	65a3      	str	r3, [r4, #88]	; 0x58
 8001b02:	6da3      	ldr	r3, [r4, #88]	; 0x58
 8001b04:	f003 5380 	and.w	r3, r3, #268435456	; 0x10000000
 8001b08:	9307      	str	r3, [sp, #28]
 8001b0a:	9b07      	ldr	r3, [sp, #28]
 8001b0c:	f001 ffac 	bl	8003a68 <HAL_PWREx_EnableVddIO2>
 8001b10:	6ce3      	ldr	r3, [r4, #76]	; 0x4c
 8001b12:	4813      	ldr	r0, [pc, #76]	; (8001b60 <Set_GPIO_Clock+0x110>)
 8001b14:	f043 0340 	orr.w	r3, r3, #64	; 0x40
 8001b18:	64e3      	str	r3, [r4, #76]	; 0x4c
 8001b1a:	6ce3      	ldr	r3, [r4, #76]	; 0x4c
 8001b1c:	f003 0340 	and.w	r3, r3, #64	; 0x40
 8001b20:	9308      	str	r3, [sp, #32]
 8001b22:	9b08      	ldr	r3, [sp, #32]
 8001b24:	e7aa      	b.n	8001a7c <Set_GPIO_Clock+0x2c>
 8001b26:	4b08      	ldr	r3, [pc, #32]	; (8001b48 <Set_GPIO_Clock+0xf8>)
 8001b28:	480e      	ldr	r0, [pc, #56]	; (8001b64 <Set_GPIO_Clock+0x114>)
 8001b2a:	6cda      	ldr	r2, [r3, #76]	; 0x4c
 8001b2c:	f042 0280 	orr.w	r2, r2, #128	; 0x80
 8001b30:	64da      	str	r2, [r3, #76]	; 0x4c
 8001b32:	6cdb      	ldr	r3, [r3, #76]	; 0x4c
 8001b34:	f003 0380 	and.w	r3, r3, #128	; 0x80
 8001b38:	9309      	str	r3, [sp, #36]	; 0x24
 8001b3a:	9b09      	ldr	r3, [sp, #36]	; 0x24
 8001b3c:	e79e      	b.n	8001a7c <Set_GPIO_Clock+0x2c>
 8001b3e:	480a      	ldr	r0, [pc, #40]	; (8001b68 <Set_GPIO_Clock+0x118>)
 8001b40:	f7fe fc64 	bl	800040c <error>
 8001b44:	2000      	movs	r0, #0
 8001b46:	e799      	b.n	8001a7c <Set_GPIO_Clock+0x2c>
 8001b48:	40021000 	.word	0x40021000
 8001b4c:	48000400 	.word	0x48000400
 8001b50:	48000800 	.word	0x48000800
 8001b54:	48000c00 	.word	0x48000c00
 8001b58:	48001000 	.word	0x48001000
 8001b5c:	48001400 	.word	0x48001400
 8001b60:	48001800 	.word	0x48001800
 8001b64:	48001c00 	.word	0x48001c00
 8001b68:	080049b8 	.word	0x080049b8

08001b6c <gpio_set>:
 8001b6c:	b510      	push	{r4, lr}
 8001b6e:	2100      	movs	r1, #0
 8001b70:	4604      	mov	r4, r0
 8001b72:	f004 040f 	and.w	r4, r4, #15
 8001b76:	f000 f945 	bl	8001e04 <pin_function>
 8001b7a:	2001      	movs	r0, #1
 8001b7c:	40a0      	lsls	r0, r4
 8001b7e:	bd10      	pop	{r4, pc}

08001b80 <gpio_init>:
 8001b80:	b570      	push	{r4, r5, r6, lr}
 8001b82:	4604      	mov	r4, r0
 8001b84:	1c4b      	adds	r3, r1, #1
 8001b86:	460e      	mov	r6, r1
 8001b88:	8221      	strh	r1, [r4, #16]
 8001b8a:	d018      	beq.n	8001bbe <gpio_init+0x3e>
 8001b8c:	f3c1 1003 	ubfx	r0, r1, #4, #4
 8001b90:	f7ff ff5e 	bl	8001a50 <Set_GPIO_Clock>
 8001b94:	4605      	mov	r5, r0
 8001b96:	4630      	mov	r0, r6
 8001b98:	f7ff ffe8 	bl	8001b6c <gpio_set>
 8001b9c:	8a23      	ldrh	r3, [r4, #16]
 8001b9e:	4a08      	ldr	r2, [pc, #32]	; (8001bc0 <gpio_init+0x40>)
 8001ba0:	6165      	str	r5, [r4, #20]
 8001ba2:	f003 030f 	and.w	r3, r3, #15
 8001ba6:	6020      	str	r0, [r4, #0]
 8001ba8:	f852 3023 	ldr.w	r3, [r2, r3, lsl #2]
 8001bac:	61a3      	str	r3, [r4, #24]
 8001bae:	f105 0310 	add.w	r3, r5, #16
 8001bb2:	6063      	str	r3, [r4, #4]
 8001bb4:	f105 0318 	add.w	r3, r5, #24
 8001bb8:	3528      	adds	r5, #40	; 0x28
 8001bba:	60a3      	str	r3, [r4, #8]
 8001bbc:	60e5      	str	r5, [r4, #12]
 8001bbe:	bd70      	pop	{r4, r5, r6, pc}
 8001bc0:	080049dc 	.word	0x080049dc

08001bc4 <gpio_mode>:
 8001bc4:	f9b0 0010 	ldrsh.w	r0, [r0, #16]
 8001bc8:	f000 b9a6 	b.w	8001f18 <pin_mode>

08001bcc <gpio_dir>:
 8001bcc:	b510      	push	{r4, lr}
 8001bce:	6983      	ldr	r3, [r0, #24]
 8001bd0:	6944      	ldr	r4, [r0, #20]
 8001bd2:	b971      	cbnz	r1, 8001bf2 <gpio_dir+0x26>
 8001bd4:	6821      	ldr	r1, [r4, #0]
 8001bd6:	fa93 f2a3 	rbit	r2, r3
 8001bda:	fab2 f282 	clz	r2, r2
 8001bde:	2003      	movs	r0, #3
 8001be0:	0052      	lsls	r2, r2, #1
 8001be2:	fa00 f202 	lsl.w	r2, r0, r2
 8001be6:	ea21 0202 	bic.w	r2, r1, r2
 8001bea:	fa93 f3a3 	rbit	r3, r3
 8001bee:	6022      	str	r2, [r4, #0]
 8001bf0:	bd10      	pop	{r4, pc}
 8001bf2:	6822      	ldr	r2, [r4, #0]
 8001bf4:	fa93 f1a3 	rbit	r1, r3
 8001bf8:	fab1 f181 	clz	r1, r1
 8001bfc:	fa93 f3a3 	rbit	r3, r3
 8001c00:	2003      	movs	r0, #3
 8001c02:	0049      	lsls	r1, r1, #1
 8001c04:	fa00 f101 	lsl.w	r1, r0, r1
 8001c08:	fab3 f383 	clz	r3, r3
 8001c0c:	ea22 0201 	bic.w	r2, r2, r1
 8001c10:	005b      	lsls	r3, r3, #1
 8001c12:	2101      	movs	r1, #1
 8001c14:	fa01 f303 	lsl.w	r3, r1, r3
 8001c18:	4313      	orrs	r3, r2
 8001c1a:	6023      	str	r3, [r4, #0]
 8001c1c:	bd10      	pop	{r4, pc}

08001c1e <hal_sleep>:
 8001c1e:	b508      	push	{r3, lr}
 8001c20:	f7ff fefe 	bl	8001a20 <HAL_SuspendTick>
 8001c24:	2101      	movs	r1, #1
 8001c26:	2000      	movs	r0, #0
 8001c28:	f001 fad6 	bl	80031d8 <HAL_PWR_EnterSLEEPMode>
 8001c2c:	e8bd 4008 	ldmia.w	sp!, {r3, lr}
 8001c30:	f7ff bf02 	b.w	8001a38 <HAL_ResumeTick>

08001c34 <CAN1_SCE_IRQHandler>:
 8001c34:	4b38      	ldr	r3, [pc, #224]	; (8001d18 <CAN1_SCE_IRQHandler+0xe4>)
 8001c36:	695a      	ldr	r2, [r3, #20]
 8001c38:	e92d 41f0 	stmdb	sp!, {r4, r5, r6, r7, r8, lr}
 8001c3c:	4c37      	ldr	r4, [pc, #220]	; (8001d1c <CAN1_SCE_IRQHandler+0xe8>)
 8001c3e:	07d2      	lsls	r2, r2, #31
 8001c40:	6023      	str	r3, [r4, #0]
 8001c42:	d52a      	bpl.n	8001c9a <CAN1_SCE_IRQHandler+0x66>
 8001c44:	6898      	ldr	r0, [r3, #8]
 8001c46:	4f36      	ldr	r7, [pc, #216]	; (8001d20 <CAN1_SCE_IRQHandler+0xec>)
 8001c48:	6899      	ldr	r1, [r3, #8]
 8001c4a:	4e36      	ldr	r6, [pc, #216]	; (8001d24 <CAN1_SCE_IRQHandler+0xf0>)
 8001c4c:	689a      	ldr	r2, [r3, #8]
 8001c4e:	4d36      	ldr	r5, [pc, #216]	; (8001d28 <CAN1_SCE_IRQHandler+0xf4>)
 8001c50:	4038      	ands	r0, r7
 8001c52:	42b8      	cmp	r0, r7
 8001c54:	ea01 0106 	and.w	r1, r1, r6
 8001c58:	bf04      	itt	eq
 8001c5a:	2701      	moveq	r7, #1
 8001c5c:	609f      	streq	r7, [r3, #8]
 8001c5e:	42b1      	cmp	r1, r6
 8001c60:	bf08      	it	eq
 8001c62:	4b2d      	ldreq	r3, [pc, #180]	; (8001d18 <CAN1_SCE_IRQHandler+0xe4>)
 8001c64:	ea02 0205 	and.w	r2, r2, r5
 8001c68:	bf04      	itt	eq
 8001c6a:	f44f 7680 	moveq.w	r6, #256	; 0x100
 8001c6e:	609e      	streq	r6, [r3, #8]
 8001c70:	42aa      	cmp	r2, r5
 8001c72:	bf02      	ittt	eq
 8001c74:	4b28      	ldreq	r3, [pc, #160]	; (8001d18 <CAN1_SCE_IRQHandler+0xe4>)
 8001c76:	f44f 3580 	moveq.w	r5, #65536	; 0x10000
 8001c7a:	609d      	streq	r5, [r3, #8]
 8001c7c:	4b28      	ldr	r3, [pc, #160]	; (8001d20 <CAN1_SCE_IRQHandler+0xec>)
 8001c7e:	4298      	cmp	r0, r3
 8001c80:	d005      	beq.n	8001c8e <CAN1_SCE_IRQHandler+0x5a>
 8001c82:	4b28      	ldr	r3, [pc, #160]	; (8001d24 <CAN1_SCE_IRQHandler+0xf0>)
 8001c84:	4299      	cmp	r1, r3
 8001c86:	d002      	beq.n	8001c8e <CAN1_SCE_IRQHandler+0x5a>
 8001c88:	4b27      	ldr	r3, [pc, #156]	; (8001d28 <CAN1_SCE_IRQHandler+0xf4>)
 8001c8a:	429a      	cmp	r2, r3
 8001c8c:	d105      	bne.n	8001c9a <CAN1_SCE_IRQHandler+0x66>
 8001c8e:	4b27      	ldr	r3, [pc, #156]	; (8001d2c <CAN1_SCE_IRQHandler+0xf8>)
 8001c90:	4a27      	ldr	r2, [pc, #156]	; (8001d30 <CAN1_SCE_IRQHandler+0xfc>)
 8001c92:	681b      	ldr	r3, [r3, #0]
 8001c94:	6810      	ldr	r0, [r2, #0]
 8001c96:	2101      	movs	r1, #1
 8001c98:	4798      	blx	r3
 8001c9a:	6823      	ldr	r3, [r4, #0]
 8001c9c:	68da      	ldr	r2, [r3, #12]
 8001c9e:	695b      	ldr	r3, [r3, #20]
 8001ca0:	0797      	lsls	r7, r2, #30
 8001ca2:	d007      	beq.n	8001cb4 <CAN1_SCE_IRQHandler+0x80>
 8001ca4:	079e      	lsls	r6, r3, #30
 8001ca6:	d505      	bpl.n	8001cb4 <CAN1_SCE_IRQHandler+0x80>
 8001ca8:	4b20      	ldr	r3, [pc, #128]	; (8001d2c <CAN1_SCE_IRQHandler+0xf8>)
 8001caa:	4a21      	ldr	r2, [pc, #132]	; (8001d30 <CAN1_SCE_IRQHandler+0xfc>)
 8001cac:	681b      	ldr	r3, [r3, #0]
 8001cae:	6810      	ldr	r0, [r2, #0]
 8001cb0:	2100      	movs	r1, #0
 8001cb2:	4798      	blx	r3
 8001cb4:	6823      	ldr	r3, [r4, #0]
 8001cb6:	6999      	ldr	r1, [r3, #24]
 8001cb8:	695a      	ldr	r2, [r3, #20]
 8001cba:	695b      	ldr	r3, [r3, #20]
 8001cbc:	078d      	lsls	r5, r1, #30
 8001cbe:	d509      	bpl.n	8001cd4 <CAN1_SCE_IRQHandler+0xa0>
 8001cc0:	0590      	lsls	r0, r2, #22
 8001cc2:	d507      	bpl.n	8001cd4 <CAN1_SCE_IRQHandler+0xa0>
 8001cc4:	0419      	lsls	r1, r3, #16
 8001cc6:	d505      	bpl.n	8001cd4 <CAN1_SCE_IRQHandler+0xa0>
 8001cc8:	4b18      	ldr	r3, [pc, #96]	; (8001d2c <CAN1_SCE_IRQHandler+0xf8>)
 8001cca:	4a19      	ldr	r2, [pc, #100]	; (8001d30 <CAN1_SCE_IRQHandler+0xfc>)
 8001ccc:	681b      	ldr	r3, [r3, #0]
 8001cce:	6810      	ldr	r0, [r2, #0]
 8001cd0:	2105      	movs	r1, #5
 8001cd2:	4798      	blx	r3
 8001cd4:	6822      	ldr	r2, [r4, #0]
 8001cd6:	6996      	ldr	r6, [r2, #24]
 8001cd8:	6955      	ldr	r5, [r2, #20]
 8001cda:	6952      	ldr	r2, [r2, #20]
 8001cdc:	f016 0604 	ands.w	r6, r6, #4
 8001ce0:	f405 6580 	and.w	r5, r5, #1024	; 0x400
 8001ce4:	d008      	beq.n	8001cf8 <CAN1_SCE_IRQHandler+0xc4>
 8001ce6:	b13d      	cbz	r5, 8001cf8 <CAN1_SCE_IRQHandler+0xc4>
 8001ce8:	0412      	lsls	r2, r2, #16
 8001cea:	d505      	bpl.n	8001cf8 <CAN1_SCE_IRQHandler+0xc4>
 8001cec:	4b0f      	ldr	r3, [pc, #60]	; (8001d2c <CAN1_SCE_IRQHandler+0xf8>)
 8001cee:	4a10      	ldr	r2, [pc, #64]	; (8001d30 <CAN1_SCE_IRQHandler+0xfc>)
 8001cf0:	681b      	ldr	r3, [r3, #0]
 8001cf2:	6810      	ldr	r0, [r2, #0]
 8001cf4:	2107      	movs	r1, #7
 8001cf6:	4798      	blx	r3
 8001cf8:	6823      	ldr	r3, [r4, #0]
 8001cfa:	695b      	ldr	r3, [r3, #20]
 8001cfc:	b156      	cbz	r6, 8001d14 <CAN1_SCE_IRQHandler+0xe0>
 8001cfe:	b14d      	cbz	r5, 8001d14 <CAN1_SCE_IRQHandler+0xe0>
 8001d00:	041b      	lsls	r3, r3, #16
 8001d02:	d507      	bpl.n	8001d14 <CAN1_SCE_IRQHandler+0xe0>
 8001d04:	4b09      	ldr	r3, [pc, #36]	; (8001d2c <CAN1_SCE_IRQHandler+0xf8>)
 8001d06:	4a0a      	ldr	r2, [pc, #40]	; (8001d30 <CAN1_SCE_IRQHandler+0xfc>)
 8001d08:	681b      	ldr	r3, [r3, #0]
 8001d0a:	6810      	ldr	r0, [r2, #0]
 8001d0c:	2102      	movs	r1, #2
 8001d0e:	e8bd 41f0 	ldmia.w	sp!, {r4, r5, r6, r7, r8, lr}
 8001d12:	4718      	bx	r3
 8001d14:	e8bd 81f0 	ldmia.w	sp!, {r4, r5, r6, r7, r8, pc}
 8001d18:	40006400 	.word	0x40006400
 8001d1c:	20001140 	.word	0x20001140
 8001d20:	04000003 	.word	0x04000003
 8001d24:	08000300 	.word	0x08000300
 8001d28:	10030000 	.word	0x10030000
 8001d2c:	20001184 	.word	0x20001184
 8001d30:	20001180 	.word	0x20001180

08001d34 <CAN1_TX_IRQHandler>:
 8001d34:	f7ff bf7e 	b.w	8001c34 <CAN1_SCE_IRQHandler>

08001d38 <CAN1_RX0_IRQHandler>:
 8001d38:	f7ff bf7c 	b.w	8001c34 <CAN1_SCE_IRQHandler>

08001d3c <us_ticker_init>:
 8001d3c:	4b05      	ldr	r3, [pc, #20]	; (8001d54 <us_ticker_init+0x18>)
 8001d3e:	6818      	ldr	r0, [r3, #0]
 8001d40:	b930      	cbnz	r0, 8001d50 <us_ticker_init+0x14>
 8001d42:	2201      	movs	r2, #1
 8001d44:	601a      	str	r2, [r3, #0]
 8001d46:	4b04      	ldr	r3, [pc, #16]	; (8001d58 <us_ticker_init+0x1c>)
 8001d48:	4a04      	ldr	r2, [pc, #16]	; (8001d5c <us_ticker_init+0x20>)
 8001d4a:	601a      	str	r2, [r3, #0]
 8001d4c:	f7ff be0a 	b.w	8001964 <HAL_InitTick>
 8001d50:	4770      	bx	lr
 8001d52:	bf00      	nop
 8001d54:	20001188 	.word	0x20001188
 8001d58:	20002008 	.word	0x20002008
 8001d5c:	40000c00 	.word	0x40000c00

08001d60 <us_ticker_read>:
 8001d60:	b508      	push	{r3, lr}
 8001d62:	4b04      	ldr	r3, [pc, #16]	; (8001d74 <us_ticker_read+0x14>)
 8001d64:	681b      	ldr	r3, [r3, #0]
 8001d66:	b90b      	cbnz	r3, 8001d6c <us_ticker_read+0xc>
 8001d68:	f7ff ffe8 	bl	8001d3c <us_ticker_init>
 8001d6c:	4b02      	ldr	r3, [pc, #8]	; (8001d78 <us_ticker_read+0x18>)
 8001d6e:	6a58      	ldr	r0, [r3, #36]	; 0x24
 8001d70:	bd08      	pop	{r3, pc}
 8001d72:	bf00      	nop
 8001d74:	20001188 	.word	0x20001188
 8001d78:	40000c00 	.word	0x40000c00

08001d7c <us_ticker_set_interrupt>:
 8001d7c:	4b04      	ldr	r3, [pc, #16]	; (8001d90 <us_ticker_set_interrupt+0x14>)
 8001d7e:	4a05      	ldr	r2, [pc, #20]	; (8001d94 <us_ticker_set_interrupt+0x18>)
 8001d80:	6013      	str	r3, [r2, #0]
 8001d82:	6358      	str	r0, [r3, #52]	; 0x34
 8001d84:	68da      	ldr	r2, [r3, #12]
 8001d86:	f042 0202 	orr.w	r2, r2, #2
 8001d8a:	60da      	str	r2, [r3, #12]
 8001d8c:	4770      	bx	lr
 8001d8e:	bf00      	nop
 8001d90:	40000c00 	.word	0x40000c00
 8001d94:	20002008 	.word	0x20002008

08001d98 <us_ticker_disable_interrupt>:
 8001d98:	4b03      	ldr	r3, [pc, #12]	; (8001da8 <us_ticker_disable_interrupt+0x10>)
 8001d9a:	4a04      	ldr	r2, [pc, #16]	; (8001dac <us_ticker_disable_interrupt+0x14>)
 8001d9c:	6013      	str	r3, [r2, #0]
 8001d9e:	68da      	ldr	r2, [r3, #12]
 8001da0:	f022 0202 	bic.w	r2, r2, #2
 8001da4:	60da      	str	r2, [r3, #12]
 8001da6:	4770      	bx	lr
 8001da8:	40000c00 	.word	0x40000c00
 8001dac:	20002008 	.word	0x20002008

08001db0 <us_ticker_clear_interrupt>:
 8001db0:	4a03      	ldr	r2, [pc, #12]	; (8001dc0 <us_ticker_clear_interrupt+0x10>)
 8001db2:	4b04      	ldr	r3, [pc, #16]	; (8001dc4 <us_ticker_clear_interrupt+0x14>)
 8001db4:	6013      	str	r3, [r2, #0]
 8001db6:	f06f 0202 	mvn.w	r2, #2
 8001dba:	611a      	str	r2, [r3, #16]
 8001dbc:	4770      	bx	lr
 8001dbe:	bf00      	nop
 8001dc0:	20002008 	.word	0x20002008
 8001dc4:	40000c00 	.word	0x40000c00

08001dc8 <LL_GPIO_SetPinPull>:
 8001dc8:	b530      	push	{r4, r5, lr}
 8001dca:	68c3      	ldr	r3, [r0, #12]
 8001dcc:	fa91 f4a1 	rbit	r4, r1
 8001dd0:	fab4 f484 	clz	r4, r4
 8001dd4:	fa91 f1a1 	rbit	r1, r1
 8001dd8:	2503      	movs	r5, #3
 8001dda:	fab1 f181 	clz	r1, r1
 8001dde:	0064      	lsls	r4, r4, #1
 8001de0:	fa05 f404 	lsl.w	r4, r5, r4
 8001de4:	0049      	lsls	r1, r1, #1
 8001de6:	ea23 0304 	bic.w	r3, r3, r4
 8001dea:	fa02 f101 	lsl.w	r1, r2, r1
 8001dee:	4319      	orrs	r1, r3
 8001df0:	60c1      	str	r1, [r0, #12]
 8001df2:	bd30      	pop	{r4, r5, pc}

08001df4 <stm_pin_PullConfig>:
 8001df4:	2a01      	cmp	r2, #1
 8001df6:	d002      	beq.n	8001dfe <stm_pin_PullConfig+0xa>
 8001df8:	2a02      	cmp	r2, #2
 8001dfa:	bf18      	it	ne
 8001dfc:	2200      	movne	r2, #0
 8001dfe:	f7ff bfe3 	b.w	8001dc8 <LL_GPIO_SetPinPull>
	...

08001e04 <pin_function>:
 8001e04:	e92d 41f0 	stmdb	sp!, {r4, r5, r6, r7, r8, lr}
 8001e08:	4b42      	ldr	r3, [pc, #264]	; (8001f14 <pin_function+0x110>)
 8001e0a:	f000 080f 	and.w	r8, r0, #15
 8001e0e:	f3c0 1003 	ubfx	r0, r0, #4, #4
 8001e12:	f853 4028 	ldr.w	r4, [r3, r8, lsl #2]
 8001e16:	460e      	mov	r6, r1
 8001e18:	f001 0507 	and.w	r5, r1, #7
 8001e1c:	f7ff fe18 	bl	8001a50 <Set_GPIO_Clock>
 8001e20:	6883      	ldr	r3, [r0, #8]
 8001e22:	fa94 f1a4 	rbit	r1, r4
 8001e26:	fab1 f181 	clz	r1, r1
 8001e2a:	fa94 f2a4 	rbit	r2, r4
 8001e2e:	2703      	movs	r7, #3
 8001e30:	0049      	lsls	r1, r1, #1
 8001e32:	fa07 f101 	lsl.w	r1, r7, r1
 8001e36:	fab2 f282 	clz	r2, r2
 8001e3a:	ea23 0301 	bic.w	r3, r3, r1
 8001e3e:	0052      	lsls	r2, r2, #1
 8001e40:	2102      	movs	r1, #2
 8001e42:	fa01 f202 	lsl.w	r2, r1, r2
 8001e46:	4313      	orrs	r3, r2
 8001e48:	428d      	cmp	r5, r1
 8001e4a:	6083      	str	r3, [r0, #8]
 8001e4c:	d02f      	beq.n	8001eae <pin_function+0xaa>
 8001e4e:	42bd      	cmp	r5, r7
 8001e50:	d048      	beq.n	8001ee4 <pin_function+0xe0>
 8001e52:	2d01      	cmp	r5, #1
 8001e54:	d046      	beq.n	8001ee4 <pin_function+0xe0>
 8001e56:	2300      	movs	r3, #0
 8001e58:	6802      	ldr	r2, [r0, #0]
 8001e5a:	fa94 f7a4 	rbit	r7, r4
 8001e5e:	fab7 f787 	clz	r7, r7
 8001e62:	fa94 f1a4 	rbit	r1, r4
 8001e66:	f04f 0e03 	mov.w	lr, #3
 8001e6a:	fab1 f181 	clz	r1, r1
 8001e6e:	007f      	lsls	r7, r7, #1
 8001e70:	0049      	lsls	r1, r1, #1
 8001e72:	fa0e f707 	lsl.w	r7, lr, r7
 8001e76:	408b      	lsls	r3, r1
 8001e78:	ea22 0207 	bic.w	r2, r2, r7
 8001e7c:	4313      	orrs	r3, r2
 8001e7e:	6003      	str	r3, [r0, #0]
 8001e80:	6ac3      	ldr	r3, [r0, #44]	; 0x2c
 8001e82:	0371      	lsls	r1, r6, #13
 8001e84:	f105 35ff 	add.w	r5, r5, #4294967295	; 0xffffffff
 8001e88:	bf4c      	ite	mi
 8001e8a:	4323      	orrmi	r3, r4
 8001e8c:	43a3      	bicpl	r3, r4
 8001e8e:	2d01      	cmp	r5, #1
 8001e90:	62c3      	str	r3, [r0, #44]	; 0x2c
 8001e92:	d805      	bhi.n	8001ea0 <pin_function+0x9c>
 8001e94:	6843      	ldr	r3, [r0, #4]
 8001e96:	0732      	lsls	r2, r6, #28
 8001e98:	bf4c      	ite	mi
 8001e9a:	4323      	orrmi	r3, r4
 8001e9c:	43a3      	bicpl	r3, r4
 8001e9e:	6043      	str	r3, [r0, #4]
 8001ea0:	f3c6 1201 	ubfx	r2, r6, #4, #2
 8001ea4:	4621      	mov	r1, r4
 8001ea6:	e8bd 41f0 	ldmia.w	sp!, {r4, r5, r6, r7, r8, lr}
 8001eaa:	f7ff bfa3 	b.w	8001df4 <stm_pin_PullConfig>
 8001eae:	f1b8 0f07 	cmp.w	r8, #7
 8001eb2:	f3c6 2703 	ubfx	r7, r6, #8, #4
 8001eb6:	d917      	bls.n	8001ee8 <pin_function+0xe4>
 8001eb8:	6a42      	ldr	r2, [r0, #36]	; 0x24
 8001eba:	0a23      	lsrs	r3, r4, #8
 8001ebc:	fa93 f1a3 	rbit	r1, r3
 8001ec0:	fab1 f181 	clz	r1, r1
 8001ec4:	fa93 f3a3 	rbit	r3, r3
 8001ec8:	f04f 0e0f 	mov.w	lr, #15
 8001ecc:	fab3 f383 	clz	r3, r3
 8001ed0:	0089      	lsls	r1, r1, #2
 8001ed2:	fa0e f101 	lsl.w	r1, lr, r1
 8001ed6:	009b      	lsls	r3, r3, #2
 8001ed8:	ea22 0201 	bic.w	r2, r2, r1
 8001edc:	fa07 f303 	lsl.w	r3, r7, r3
 8001ee0:	4313      	orrs	r3, r2
 8001ee2:	6243      	str	r3, [r0, #36]	; 0x24
 8001ee4:	462b      	mov	r3, r5
 8001ee6:	e7b7      	b.n	8001e58 <pin_function+0x54>
 8001ee8:	6a02      	ldr	r2, [r0, #32]
 8001eea:	fa94 f3a4 	rbit	r3, r4
 8001eee:	fab3 f383 	clz	r3, r3
 8001ef2:	fa94 f1a4 	rbit	r1, r4
 8001ef6:	f04f 0e0f 	mov.w	lr, #15
 8001efa:	fab1 f181 	clz	r1, r1
 8001efe:	009b      	lsls	r3, r3, #2
 8001f00:	fa0e f303 	lsl.w	r3, lr, r3
 8001f04:	0089      	lsls	r1, r1, #2
 8001f06:	ea22 0203 	bic.w	r2, r2, r3
 8001f0a:	fa07 f301 	lsl.w	r3, r7, r1
 8001f0e:	4313      	orrs	r3, r2
 8001f10:	6203      	str	r3, [r0, #32]
 8001f12:	e7e7      	b.n	8001ee4 <pin_function+0xe0>
 8001f14:	080049dc 	.word	0x080049dc

08001f18 <pin_mode>:
 8001f18:	f000 020f 	and.w	r2, r0, #15
 8001f1c:	4b1c      	ldr	r3, [pc, #112]	; (8001f90 <pin_mode+0x78>)
 8001f1e:	b570      	push	{r4, r5, r6, lr}
 8001f20:	f3c0 1003 	ubfx	r0, r0, #4, #4
 8001f24:	460d      	mov	r5, r1
 8001f26:	f853 4022 	ldr.w	r4, [r3, r2, lsl #2]
 8001f2a:	f7ff fd91 	bl	8001a50 <Set_GPIO_Clock>
 8001f2e:	6806      	ldr	r6, [r0, #0]
 8001f30:	fa94 f1a4 	rbit	r1, r4
 8001f34:	fab1 f381 	clz	r3, r1
 8001f38:	fa94 f2a4 	rbit	r2, r4
 8001f3c:	0059      	lsls	r1, r3, #1
 8001f3e:	2303      	movs	r3, #3
 8001f40:	fab2 f282 	clz	r2, r2
 8001f44:	408b      	lsls	r3, r1
 8001f46:	4033      	ands	r3, r6
 8001f48:	0052      	lsls	r2, r2, #1
 8001f4a:	40d3      	lsrs	r3, r2
 8001f4c:	3b01      	subs	r3, #1
 8001f4e:	2b01      	cmp	r3, #1
 8001f50:	d805      	bhi.n	8001f5e <pin_mode+0x46>
 8001f52:	1eeb      	subs	r3, r5, #3
 8001f54:	2b02      	cmp	r3, #2
 8001f56:	6843      	ldr	r3, [r0, #4]
 8001f58:	d809      	bhi.n	8001f6e <pin_mode+0x56>
 8001f5a:	4323      	orrs	r3, r4
 8001f5c:	6043      	str	r3, [r0, #4]
 8001f5e:	2d03      	cmp	r5, #3
 8001f60:	d108      	bne.n	8001f74 <pin_mode+0x5c>
 8001f62:	2201      	movs	r2, #1
 8001f64:	4621      	mov	r1, r4
 8001f66:	e8bd 4070 	ldmia.w	sp!, {r4, r5, r6, lr}
 8001f6a:	f7ff bf43 	b.w	8001df4 <stm_pin_PullConfig>
 8001f6e:	ea23 0304 	bic.w	r3, r3, r4
 8001f72:	6043      	str	r3, [r0, #4]
 8001f74:	2d01      	cmp	r5, #1
 8001f76:	d0f4      	beq.n	8001f62 <pin_mode+0x4a>
 8001f78:	2d05      	cmp	r5, #5
 8001f7a:	d001      	beq.n	8001f80 <pin_mode+0x68>
 8001f7c:	2d02      	cmp	r5, #2
 8001f7e:	d101      	bne.n	8001f84 <pin_mode+0x6c>
 8001f80:	2202      	movs	r2, #2
 8001f82:	e7ef      	b.n	8001f64 <pin_mode+0x4c>
 8001f84:	4621      	mov	r1, r4
 8001f86:	2200      	movs	r2, #0
 8001f88:	e8bd 4070 	ldmia.w	sp!, {r4, r5, r6, lr}
 8001f8c:	f7ff bf1c 	b.w	8001dc8 <LL_GPIO_SetPinPull>
 8001f90:	080049dc 	.word	0x080049dc

08001f94 <init_uart>:
 8001f94:	6843      	ldr	r3, [r0, #4]
 8001f96:	4918      	ldr	r1, [pc, #96]	; (8001ff8 <init_uart+0x64>)
 8001f98:	2270      	movs	r2, #112	; 0x70
 8001f9a:	435a      	muls	r2, r3
 8001f9c:	b510      	push	{r4, lr}
 8001f9e:	188b      	adds	r3, r1, r2
 8001fa0:	6804      	ldr	r4, [r0, #0]
 8001fa2:	508c      	str	r4, [r1, r2]
 8001fa4:	6882      	ldr	r2, [r0, #8]
 8001fa6:	605a      	str	r2, [r3, #4]
 8001fa8:	68c2      	ldr	r2, [r0, #12]
 8001faa:	609a      	str	r2, [r3, #8]
 8001fac:	6902      	ldr	r2, [r0, #16]
 8001fae:	60da      	str	r2, [r3, #12]
 8001fb0:	6942      	ldr	r2, [r0, #20]
 8001fb2:	611a      	str	r2, [r3, #16]
 8001fb4:	6a02      	ldr	r2, [r0, #32]
 8001fb6:	619a      	str	r2, [r3, #24]
 8001fb8:	2200      	movs	r2, #0
 8001fba:	f8a3 2052 	strh.w	r2, [r3, #82]	; 0x52
 8001fbe:	f8a3 2050 	strh.w	r2, [r3, #80]	; 0x50
 8001fc2:	f8a3 205a 	strh.w	r2, [r3, #90]	; 0x5a
 8001fc6:	f8a3 2058 	strh.w	r2, [r3, #88]	; 0x58
 8001fca:	f9b0 201a 	ldrsh.w	r2, [r0, #26]
 8001fce:	3201      	adds	r2, #1
 8001fd0:	d10a      	bne.n	8001fe8 <init_uart+0x54>
 8001fd2:	2208      	movs	r2, #8
 8001fd4:	615a      	str	r2, [r3, #20]
 8001fd6:	4618      	mov	r0, r3
 8001fd8:	f001 f809 	bl	8002fee <HAL_UART_Init>
 8001fdc:	b158      	cbz	r0, 8001ff6 <init_uart+0x62>
 8001fde:	4807      	ldr	r0, [pc, #28]	; (8001ffc <init_uart+0x68>)
 8001fe0:	e8bd 4010 	ldmia.w	sp!, {r4, lr}
 8001fe4:	f7fe ba12 	b.w	800040c <error>
 8001fe8:	f9b0 2018 	ldrsh.w	r2, [r0, #24]
 8001fec:	3201      	adds	r2, #1
 8001fee:	bf0c      	ite	eq
 8001ff0:	2204      	moveq	r2, #4
 8001ff2:	220c      	movne	r2, #12
 8001ff4:	e7ee      	b.n	8001fd4 <init_uart+0x40>
 8001ff6:	bd10      	pop	{r4, pc}
 8001ff8:	20001190 	.word	0x20001190
 8001ffc:	08004a1c 	.word	0x08004a1c

08002000 <serial_init>:
 8002000:	b5f0      	push	{r4, r5, r6, r7, lr}
 8002002:	460e      	mov	r6, r1
 8002004:	b087      	sub	sp, #28
 8002006:	4604      	mov	r4, r0
 8002008:	4967      	ldr	r1, [pc, #412]	; (80021a8 <serial_init+0x1a8>)
 800200a:	4630      	mov	r0, r6
 800200c:	4615      	mov	r5, r2
 800200e:	f7fe f9c7 	bl	80003a0 <pinmap_peripheral>
 8002012:	4966      	ldr	r1, [pc, #408]	; (80021ac <serial_init+0x1ac>)
 8002014:	4607      	mov	r7, r0
 8002016:	4628      	mov	r0, r5
 8002018:	f7fe f9c2 	bl	80003a0 <pinmap_peripheral>
 800201c:	4601      	mov	r1, r0
 800201e:	4638      	mov	r0, r7
 8002020:	f7fe f9a0 	bl	8000364 <pinmap_merge>
 8002024:	4b62      	ldr	r3, [pc, #392]	; (80021b0 <serial_init+0x1b0>)
 8002026:	6020      	str	r0, [r4, #0]
 8002028:	4298      	cmp	r0, r3
 800202a:	d12c      	bne.n	8002086 <serial_init+0x86>
 800202c:	f503 4358 	add.w	r3, r3, #55296	; 0xd800
 8002030:	6c1a      	ldr	r2, [r3, #64]	; 0x40
 8002032:	f442 4280 	orr.w	r2, r2, #16384	; 0x4000
 8002036:	641a      	str	r2, [r3, #64]	; 0x40
 8002038:	6c1a      	ldr	r2, [r3, #64]	; 0x40
 800203a:	f422 4280 	bic.w	r2, r2, #16384	; 0x4000
 800203e:	641a      	str	r2, [r3, #64]	; 0x40
 8002040:	6e1a      	ldr	r2, [r3, #96]	; 0x60
 8002042:	f442 4280 	orr.w	r2, r2, #16384	; 0x4000
 8002046:	661a      	str	r2, [r3, #96]	; 0x60
 8002048:	6e1b      	ldr	r3, [r3, #96]	; 0x60
 800204a:	f403 4380 	and.w	r3, r3, #16384	; 0x4000
 800204e:	9300      	str	r3, [sp, #0]
 8002050:	9b00      	ldr	r3, [sp, #0]
 8002052:	2300      	movs	r3, #0
 8002054:	6063      	str	r3, [r4, #4]
 8002056:	4b57      	ldr	r3, [pc, #348]	; (80021b4 <serial_init+0x1b4>)
 8002058:	4298      	cmp	r0, r3
 800205a:	d144      	bne.n	80020e6 <serial_init+0xe6>
 800205c:	f503 33c8 	add.w	r3, r3, #102400	; 0x19000
 8002060:	6bda      	ldr	r2, [r3, #60]	; 0x3c
 8002062:	f042 0201 	orr.w	r2, r2, #1
 8002066:	63da      	str	r2, [r3, #60]	; 0x3c
 8002068:	6bda      	ldr	r2, [r3, #60]	; 0x3c
 800206a:	f022 0201 	bic.w	r2, r2, #1
 800206e:	63da      	str	r2, [r3, #60]	; 0x3c
 8002070:	6dda      	ldr	r2, [r3, #92]	; 0x5c
 8002072:	f042 0201 	orr.w	r2, r2, #1
 8002076:	65da      	str	r2, [r3, #92]	; 0x5c
 8002078:	6ddb      	ldr	r3, [r3, #92]	; 0x5c
 800207a:	f003 0301 	and.w	r3, r3, #1
 800207e:	9305      	str	r3, [sp, #20]
 8002080:	9b05      	ldr	r3, [sp, #20]
 8002082:	2305      	movs	r3, #5
 8002084:	e02e      	b.n	80020e4 <serial_init+0xe4>
 8002086:	4b4c      	ldr	r3, [pc, #304]	; (80021b8 <serial_init+0x1b8>)
 8002088:	4298      	cmp	r0, r3
 800208a:	d114      	bne.n	80020b6 <serial_init+0xb6>
 800208c:	f503 33e6 	add.w	r3, r3, #117760	; 0x1cc00
 8002090:	6b9a      	ldr	r2, [r3, #56]	; 0x38
 8002092:	f442 3200 	orr.w	r2, r2, #131072	; 0x20000
 8002096:	639a      	str	r2, [r3, #56]	; 0x38
 8002098:	6b9a      	ldr	r2, [r3, #56]	; 0x38
 800209a:	f422 3200 	bic.w	r2, r2, #131072	; 0x20000
 800209e:	639a      	str	r2, [r3, #56]	; 0x38
 80020a0:	6d9a      	ldr	r2, [r3, #88]	; 0x58
 80020a2:	f442 3200 	orr.w	r2, r2, #131072	; 0x20000
 80020a6:	659a      	str	r2, [r3, #88]	; 0x58
 80020a8:	6d9b      	ldr	r3, [r3, #88]	; 0x58
 80020aa:	f403 3300 	and.w	r3, r3, #131072	; 0x20000
 80020ae:	9301      	str	r3, [sp, #4]
 80020b0:	9b01      	ldr	r3, [sp, #4]
 80020b2:	2301      	movs	r3, #1
 80020b4:	e7ce      	b.n	8002054 <serial_init+0x54>
 80020b6:	4b41      	ldr	r3, [pc, #260]	; (80021bc <serial_init+0x1bc>)
 80020b8:	4298      	cmp	r0, r3
 80020ba:	d143      	bne.n	8002144 <serial_init+0x144>
 80020bc:	f503 33e4 	add.w	r3, r3, #116736	; 0x1c800
 80020c0:	6b9a      	ldr	r2, [r3, #56]	; 0x38
 80020c2:	f442 2280 	orr.w	r2, r2, #262144	; 0x40000
 80020c6:	639a      	str	r2, [r3, #56]	; 0x38
 80020c8:	6b9a      	ldr	r2, [r3, #56]	; 0x38
 80020ca:	f422 2280 	bic.w	r2, r2, #262144	; 0x40000
 80020ce:	639a      	str	r2, [r3, #56]	; 0x38
 80020d0:	6d9a      	ldr	r2, [r3, #88]	; 0x58
 80020d2:	f442 2280 	orr.w	r2, r2, #262144	; 0x40000
 80020d6:	659a      	str	r2, [r3, #88]	; 0x58
 80020d8:	6d9b      	ldr	r3, [r3, #88]	; 0x58
 80020da:	f403 2380 	and.w	r3, r3, #262144	; 0x40000
 80020de:	9302      	str	r3, [sp, #8]
 80020e0:	9b02      	ldr	r3, [sp, #8]
 80020e2:	2302      	movs	r3, #2
 80020e4:	6063      	str	r3, [r4, #4]
 80020e6:	4930      	ldr	r1, [pc, #192]	; (80021a8 <serial_init+0x1a8>)
 80020e8:	4630      	mov	r0, r6
 80020ea:	f7fe f91d 	bl	8000328 <pinmap_pinout>
 80020ee:	492f      	ldr	r1, [pc, #188]	; (80021ac <serial_init+0x1ac>)
 80020f0:	4628      	mov	r0, r5
 80020f2:	f7fe f919 	bl	8000328 <pinmap_pinout>
 80020f6:	1c72      	adds	r2, r6, #1
 80020f8:	d003      	beq.n	8002102 <serial_init+0x102>
 80020fa:	2101      	movs	r1, #1
 80020fc:	4630      	mov	r0, r6
 80020fe:	f7ff ff0b 	bl	8001f18 <pin_mode>
 8002102:	1c6b      	adds	r3, r5, #1
 8002104:	d003      	beq.n	800210e <serial_init+0x10e>
 8002106:	2101      	movs	r1, #1
 8002108:	4628      	mov	r0, r5
 800210a:	f7ff ff05 	bl	8001f18 <pin_mode>
 800210e:	f44f 5316 	mov.w	r3, #9600	; 0x2580
 8002112:	60a3      	str	r3, [r4, #8]
 8002114:	2300      	movs	r3, #0
 8002116:	60e3      	str	r3, [r4, #12]
 8002118:	6123      	str	r3, [r4, #16]
 800211a:	6163      	str	r3, [r4, #20]
 800211c:	6223      	str	r3, [r4, #32]
 800211e:	8326      	strh	r6, [r4, #24]
 8002120:	8365      	strh	r5, [r4, #26]
 8002122:	4620      	mov	r0, r4
 8002124:	f7ff ff36 	bl	8001f94 <init_uart>
 8002128:	6822      	ldr	r2, [r4, #0]
 800212a:	4b23      	ldr	r3, [pc, #140]	; (80021b8 <serial_init+0x1b8>)
 800212c:	429a      	cmp	r2, r3
 800212e:	d107      	bne.n	8002140 <serial_init+0x140>
 8002130:	4b23      	ldr	r3, [pc, #140]	; (80021c0 <serial_init+0x1c0>)
 8002132:	4824      	ldr	r0, [pc, #144]	; (80021c4 <serial_init+0x1c4>)
 8002134:	2201      	movs	r2, #1
 8002136:	601a      	str	r2, [r3, #0]
 8002138:	4621      	mov	r1, r4
 800213a:	224c      	movs	r2, #76	; 0x4c
 800213c:	f002 fa6c 	bl	8004618 <memcpy>
 8002140:	b007      	add	sp, #28
 8002142:	bdf0      	pop	{r4, r5, r6, r7, pc}
 8002144:	4b20      	ldr	r3, [pc, #128]	; (80021c8 <serial_init+0x1c8>)
 8002146:	4298      	cmp	r0, r3
 8002148:	d114      	bne.n	8002174 <serial_init+0x174>
 800214a:	f503 33e2 	add.w	r3, r3, #115712	; 0x1c400
 800214e:	6b9a      	ldr	r2, [r3, #56]	; 0x38
 8002150:	f442 2200 	orr.w	r2, r2, #524288	; 0x80000
 8002154:	639a      	str	r2, [r3, #56]	; 0x38
 8002156:	6b9a      	ldr	r2, [r3, #56]	; 0x38
 8002158:	f422 2200 	bic.w	r2, r2, #524288	; 0x80000
 800215c:	639a      	str	r2, [r3, #56]	; 0x38
 800215e:	6d9a      	ldr	r2, [r3, #88]	; 0x58
 8002160:	f442 2200 	orr.w	r2, r2, #524288	; 0x80000
 8002164:	659a      	str	r2, [r3, #88]	; 0x58
 8002166:	6d9b      	ldr	r3, [r3, #88]	; 0x58
 8002168:	f403 2300 	and.w	r3, r3, #524288	; 0x80000
 800216c:	9303      	str	r3, [sp, #12]
 800216e:	9b03      	ldr	r3, [sp, #12]
 8002170:	2303      	movs	r3, #3
 8002172:	e7b7      	b.n	80020e4 <serial_init+0xe4>
 8002174:	4b15      	ldr	r3, [pc, #84]	; (80021cc <serial_init+0x1cc>)
 8002176:	4298      	cmp	r0, r3
 8002178:	f47f af6d 	bne.w	8002056 <serial_init+0x56>
 800217c:	f503 33e0 	add.w	r3, r3, #114688	; 0x1c000
 8002180:	6b9a      	ldr	r2, [r3, #56]	; 0x38
 8002182:	f442 1280 	orr.w	r2, r2, #1048576	; 0x100000
 8002186:	639a      	str	r2, [r3, #56]	; 0x38
 8002188:	6b9a      	ldr	r2, [r3, #56]	; 0x38
 800218a:	f422 1280 	bic.w	r2, r2, #1048576	; 0x100000
 800218e:	639a      	str	r2, [r3, #56]	; 0x38
 8002190:	6d9a      	ldr	r2, [r3, #88]	; 0x58
 8002192:	f442 1280 	orr.w	r2, r2, #1048576	; 0x100000
 8002196:	659a      	str	r2, [r3, #88]	; 0x58
 8002198:	6d9b      	ldr	r3, [r3, #88]	; 0x58
 800219a:	f403 1380 	and.w	r3, r3, #1048576	; 0x100000
 800219e:	9304      	str	r3, [sp, #16]
 80021a0:	9b04      	ldr	r3, [sp, #16]
 80021a2:	2304      	movs	r3, #4
 80021a4:	e79e      	b.n	80020e4 <serial_init+0xe4>
 80021a6:	bf00      	nop
 80021a8:	08004b00 	.word	0x08004b00
 80021ac:	08004a7c 	.word	0x08004a7c
 80021b0:	40013800 	.word	0x40013800
 80021b4:	40008000 	.word	0x40008000
 80021b8:	40004400 	.word	0x40004400
 80021bc:	40004800 	.word	0x40004800
 80021c0:	2000118c 	.word	0x2000118c
 80021c4:	20002044 	.word	0x20002044
 80021c8:	40004c00 	.word	0x40004c00
 80021cc:	40005000 	.word	0x40005000

080021d0 <serial_baud>:
 80021d0:	6081      	str	r1, [r0, #8]
 80021d2:	f7ff bedf 	b.w	8001f94 <init_uart>
	...

080021d8 <serial_readable>:
 80021d8:	6842      	ldr	r2, [r0, #4]
 80021da:	2370      	movs	r3, #112	; 0x70
 80021dc:	4353      	muls	r3, r2
 80021de:	4a03      	ldr	r2, [pc, #12]	; (80021ec <serial_readable+0x14>)
 80021e0:	58d3      	ldr	r3, [r2, r3]
 80021e2:	69d8      	ldr	r0, [r3, #28]
 80021e4:	f3c0 1040 	ubfx	r0, r0, #5, #1
 80021e8:	4770      	bx	lr
 80021ea:	bf00      	nop
 80021ec:	20001190 	.word	0x20001190

080021f0 <serial_getc>:
 80021f0:	b510      	push	{r4, lr}
 80021f2:	6844      	ldr	r4, [r0, #4]
 80021f4:	4601      	mov	r1, r0
 80021f6:	4608      	mov	r0, r1
 80021f8:	f7ff ffee 	bl	80021d8 <serial_readable>
 80021fc:	2800      	cmp	r0, #0
 80021fe:	d0fa      	beq.n	80021f6 <serial_getc+0x6>
 8002200:	2370      	movs	r3, #112	; 0x70
 8002202:	4a05      	ldr	r2, [pc, #20]	; (8002218 <serial_getc+0x28>)
 8002204:	68c9      	ldr	r1, [r1, #12]
 8002206:	4363      	muls	r3, r4
 8002208:	58d3      	ldr	r3, [r2, r3]
 800220a:	8c98      	ldrh	r0, [r3, #36]	; 0x24
 800220c:	b909      	cbnz	r1, 8002212 <serial_getc+0x22>
 800220e:	b2c0      	uxtb	r0, r0
 8002210:	bd10      	pop	{r4, pc}
 8002212:	f3c0 0008 	ubfx	r0, r0, #0, #9
 8002216:	bd10      	pop	{r4, pc}
 8002218:	20001190 	.word	0x20001190

0800221c <serial_writable>:
 800221c:	6842      	ldr	r2, [r0, #4]
 800221e:	2370      	movs	r3, #112	; 0x70
 8002220:	4353      	muls	r3, r2
 8002222:	4a03      	ldr	r2, [pc, #12]	; (8002230 <serial_writable+0x14>)
 8002224:	58d3      	ldr	r3, [r2, r3]
 8002226:	69d8      	ldr	r0, [r3, #28]
 8002228:	f3c0 10c0 	ubfx	r0, r0, #7, #1
 800222c:	4770      	bx	lr
 800222e:	bf00      	nop
 8002230:	20001190 	.word	0x20001190

08002234 <serial_putc>:
 8002234:	b538      	push	{r3, r4, r5, lr}
 8002236:	6845      	ldr	r5, [r0, #4]
 8002238:	4604      	mov	r4, r0
 800223a:	4620      	mov	r0, r4
 800223c:	f7ff ffee 	bl	800221c <serial_writable>
 8002240:	2800      	cmp	r0, #0
 8002242:	d0fa      	beq.n	800223a <serial_putc+0x6>
 8002244:	2370      	movs	r3, #112	; 0x70
 8002246:	4a05      	ldr	r2, [pc, #20]	; (800225c <serial_putc+0x28>)
 8002248:	68e0      	ldr	r0, [r4, #12]
 800224a:	436b      	muls	r3, r5
 800224c:	58d3      	ldr	r3, [r2, r3]
 800224e:	b910      	cbnz	r0, 8002256 <serial_putc+0x22>
 8002250:	b2c9      	uxtb	r1, r1
 8002252:	8519      	strh	r1, [r3, #40]	; 0x28
 8002254:	bd38      	pop	{r3, r4, r5, pc}
 8002256:	f3c1 0108 	ubfx	r1, r1, #0, #9
 800225a:	e7fa      	b.n	8002252 <serial_putc+0x1e>
 800225c:	20001190 	.word	0x20001190

08002260 <mbed_sdk_init>:
 8002260:	b508      	push	{r3, lr}
 8002262:	f000 f805 	bl	8002270 <SystemCoreClockUpdate>
 8002266:	e8bd 4008 	ldmia.w	sp!, {r3, lr}
 800226a:	f000 b913 	b.w	8002494 <HAL_Init>
	...

08002270 <SystemCoreClockUpdate>:
 8002270:	4a26      	ldr	r2, [pc, #152]	; (800230c <SystemCoreClockUpdate+0x9c>)
 8002272:	4927      	ldr	r1, [pc, #156]	; (8002310 <SystemCoreClockUpdate+0xa0>)
 8002274:	6813      	ldr	r3, [r2, #0]
 8002276:	071b      	lsls	r3, r3, #28
 8002278:	bf54      	ite	pl
 800227a:	f8d2 3094 	ldrpl.w	r3, [r2, #148]	; 0x94
 800227e:	6813      	ldrmi	r3, [r2, #0]
 8002280:	6890      	ldr	r0, [r2, #8]
 8002282:	bf54      	ite	pl
 8002284:	f3c3 2303 	ubfxpl	r3, r3, #8, #4
 8002288:	f3c3 1303 	ubfxmi	r3, r3, #4, #4
 800228c:	f000 000c 	and.w	r0, r0, #12
 8002290:	b510      	push	{r4, lr}
 8002292:	f851 4023 	ldr.w	r4, [r1, r3, lsl #2]
 8002296:	491f      	ldr	r1, [pc, #124]	; (8002314 <SystemCoreClockUpdate+0xa4>)
 8002298:	280c      	cmp	r0, #12
 800229a:	d835      	bhi.n	8002308 <SystemCoreClockUpdate+0x98>
 800229c:	e8df f000 	tbb	[pc, r0]
 80022a0:	34343434 	.word	0x34343434
 80022a4:	34343407 	.word	0x34343407
 80022a8:	34343412 	.word	0x34343412
 80022ac:	14          	.byte	0x14
 80022ad:	00          	.byte	0x00
 80022ae:	4b1a      	ldr	r3, [pc, #104]	; (8002318 <SystemCoreClockUpdate+0xa8>)
 80022b0:	600b      	str	r3, [r1, #0]
 80022b2:	6893      	ldr	r3, [r2, #8]
 80022b4:	4a19      	ldr	r2, [pc, #100]	; (800231c <SystemCoreClockUpdate+0xac>)
 80022b6:	f3c3 1303 	ubfx	r3, r3, #4, #4
 80022ba:	5cd2      	ldrb	r2, [r2, r3]
 80022bc:	680b      	ldr	r3, [r1, #0]
 80022be:	40d3      	lsrs	r3, r2
 80022c0:	600b      	str	r3, [r1, #0]
 80022c2:	bd10      	pop	{r4, pc}
 80022c4:	4b16      	ldr	r3, [pc, #88]	; (8002320 <SystemCoreClockUpdate+0xb0>)
 80022c6:	e7f3      	b.n	80022b0 <SystemCoreClockUpdate+0x40>
 80022c8:	68d0      	ldr	r0, [r2, #12]
 80022ca:	68d3      	ldr	r3, [r2, #12]
 80022cc:	f000 0003 	and.w	r0, r0, #3
 80022d0:	f3c3 1302 	ubfx	r3, r3, #4, #3
 80022d4:	2802      	cmp	r0, #2
 80022d6:	f103 0301 	add.w	r3, r3, #1
 80022da:	d004      	beq.n	80022e6 <SystemCoreClockUpdate+0x76>
 80022dc:	2803      	cmp	r0, #3
 80022de:	d011      	beq.n	8002304 <SystemCoreClockUpdate+0x94>
 80022e0:	fbb4 f3f3 	udiv	r3, r4, r3
 80022e4:	e002      	b.n	80022ec <SystemCoreClockUpdate+0x7c>
 80022e6:	480c      	ldr	r0, [pc, #48]	; (8002318 <SystemCoreClockUpdate+0xa8>)
 80022e8:	fbb0 f3f3 	udiv	r3, r0, r3
 80022ec:	68d4      	ldr	r4, [r2, #12]
 80022ee:	68d0      	ldr	r0, [r2, #12]
 80022f0:	f3c0 6041 	ubfx	r0, r0, #25, #2
 80022f4:	f3c4 2406 	ubfx	r4, r4, #8, #7
 80022f8:	3001      	adds	r0, #1
 80022fa:	4363      	muls	r3, r4
 80022fc:	0040      	lsls	r0, r0, #1
 80022fe:	fbb3 f3f0 	udiv	r3, r3, r0
 8002302:	e7d5      	b.n	80022b0 <SystemCoreClockUpdate+0x40>
 8002304:	4806      	ldr	r0, [pc, #24]	; (8002320 <SystemCoreClockUpdate+0xb0>)
 8002306:	e7ef      	b.n	80022e8 <SystemCoreClockUpdate+0x78>
 8002308:	600c      	str	r4, [r1, #0]
 800230a:	e7d2      	b.n	80022b2 <SystemCoreClockUpdate+0x42>
 800230c:	40021000 	.word	0x40021000
 8002310:	08004a4c 	.word	0x08004a4c
 8002314:	2000001c 	.word	0x2000001c
 8002318:	00f42400 	.word	0x00f42400
 800231c:	08004a34 	.word	0x08004a34
 8002320:	007a1200 	.word	0x007a1200

08002324 <SetSysClock_PLL_MSI>:
 8002324:	b570      	push	{r4, r5, r6, lr}
 8002326:	b0b8      	sub	sp, #224	; 0xe0
 8002328:	2214      	movs	r2, #20
 800232a:	2100      	movs	r1, #0
 800232c:	4668      	mov	r0, sp
 800232e:	f002 f97e 	bl	800462e <memset>
 8002332:	2244      	movs	r2, #68	; 0x44
 8002334:	2100      	movs	r1, #0
 8002336:	a805      	add	r0, sp, #20
 8002338:	f002 f979 	bl	800462e <memset>
 800233c:	2288      	movs	r2, #136	; 0x88
 800233e:	2100      	movs	r1, #0
 8002340:	a816      	add	r0, sp, #88	; 0x58
 8002342:	f002 f974 	bl	800462e <memset>
 8002346:	2304      	movs	r3, #4
 8002348:	9305      	str	r3, [sp, #20]
 800234a:	a805      	add	r0, sp, #20
 800234c:	2301      	movs	r3, #1
 800234e:	9307      	str	r3, [sp, #28]
 8002350:	f001 f83a 	bl	80033c8 <HAL_RCC_OscConfig>
 8002354:	b920      	cbnz	r0, 8002360 <SetSysClock_PLL_MSI+0x3c>
 8002356:	4a1f      	ldr	r2, [pc, #124]	; (80023d4 <SetSysClock_PLL_MSI+0xb0>)
 8002358:	6813      	ldr	r3, [r2, #0]
 800235a:	f043 0304 	orr.w	r3, r3, #4
 800235e:	6013      	str	r3, [r2, #0]
 8002360:	f000 fbf2 	bl	8002b48 <HAL_RCCEx_DisableLSECSS>
 8002364:	2313      	movs	r3, #19
 8002366:	9305      	str	r3, [sp, #20]
 8002368:	2301      	movs	r3, #1
 800236a:	930b      	str	r3, [sp, #44]	; 0x2c
 800236c:	9310      	str	r3, [sp, #64]	; 0x40
 800236e:	2306      	movs	r3, #6
 8002370:	22b0      	movs	r2, #176	; 0xb0
 8002372:	9311      	str	r3, [sp, #68]	; 0x44
 8002374:	2328      	movs	r3, #40	; 0x28
 8002376:	2400      	movs	r4, #0
 8002378:	920d      	str	r2, [sp, #52]	; 0x34
 800237a:	9312      	str	r3, [sp, #72]	; 0x48
 800237c:	2202      	movs	r2, #2
 800237e:	2307      	movs	r3, #7
 8002380:	2604      	movs	r6, #4
 8002382:	a805      	add	r0, sp, #20
 8002384:	9406      	str	r4, [sp, #24]
 8002386:	9408      	str	r4, [sp, #32]
 8002388:	940c      	str	r4, [sp, #48]	; 0x30
 800238a:	920f      	str	r2, [sp, #60]	; 0x3c
 800238c:	9313      	str	r3, [sp, #76]	; 0x4c
 800238e:	9614      	str	r6, [sp, #80]	; 0x50
 8002390:	9615      	str	r6, [sp, #84]	; 0x54
 8002392:	f001 f819 	bl	80033c8 <HAL_RCC_OscConfig>
 8002396:	4605      	mov	r5, r0
 8002398:	b9d0      	cbnz	r0, 80023d0 <SetSysClock_PLL_MSI+0xac>
 800239a:	f000 fbe3 	bl	8002b64 <HAL_RCCEx_EnableMSIPLLMode>
 800239e:	f44f 5300 	mov.w	r3, #8192	; 0x2000
 80023a2:	9316      	str	r3, [sp, #88]	; 0x58
 80023a4:	a816      	add	r0, sp, #88	; 0x58
 80023a6:	f04f 6340 	mov.w	r3, #201326592	; 0xc000000
 80023aa:	9331      	str	r3, [sp, #196]	; 0xc4
 80023ac:	f000 f9e4 	bl	8002778 <HAL_RCCEx_PeriphCLKConfig>
 80023b0:	220f      	movs	r2, #15
 80023b2:	2303      	movs	r3, #3
 80023b4:	4631      	mov	r1, r6
 80023b6:	4668      	mov	r0, sp
 80023b8:	e88d 000c 	stmia.w	sp, {r2, r3}
 80023bc:	9502      	str	r5, [sp, #8]
 80023be:	9503      	str	r5, [sp, #12]
 80023c0:	9504      	str	r5, [sp, #16]
 80023c2:	f001 fa3f 	bl	8003844 <HAL_RCC_ClockConfig>
 80023c6:	fab0 f080 	clz	r0, r0
 80023ca:	0940      	lsrs	r0, r0, #5
 80023cc:	b038      	add	sp, #224	; 0xe0
 80023ce:	bd70      	pop	{r4, r5, r6, pc}
 80023d0:	4620      	mov	r0, r4
 80023d2:	e7fb      	b.n	80023cc <SetSysClock_PLL_MSI+0xa8>
 80023d4:	40021000 	.word	0x40021000

080023d8 <SetSysClock>:
 80023d8:	b508      	push	{r3, lr}
 80023da:	f7ff ffa3 	bl	8002324 <SetSysClock_PLL_MSI>
 80023de:	b900      	cbnz	r0, 80023e2 <SetSysClock+0xa>
 80023e0:	e7fe      	b.n	80023e0 <SetSysClock+0x8>
 80023e2:	bd08      	pop	{r3, pc}

080023e4 <SystemInit>:
 80023e4:	4a17      	ldr	r2, [pc, #92]	; (8002444 <SystemInit+0x60>)
 80023e6:	f8d2 3088 	ldr.w	r3, [r2, #136]	; 0x88
 80023ea:	b510      	push	{r4, lr}
 80023ec:	f443 0370 	orr.w	r3, r3, #15728640	; 0xf00000
 80023f0:	4c15      	ldr	r4, [pc, #84]	; (8002448 <SystemInit+0x64>)
 80023f2:	f8c2 3088 	str.w	r3, [r2, #136]	; 0x88
 80023f6:	6823      	ldr	r3, [r4, #0]
 80023f8:	2100      	movs	r1, #0
 80023fa:	f043 0301 	orr.w	r3, r3, #1
 80023fe:	6023      	str	r3, [r4, #0]
 8002400:	60a1      	str	r1, [r4, #8]
 8002402:	6823      	ldr	r3, [r4, #0]
 8002404:	f023 53a8 	bic.w	r3, r3, #352321536	; 0x15000000
 8002408:	f423 2310 	bic.w	r3, r3, #589824	; 0x90000
 800240c:	6023      	str	r3, [r4, #0]
 800240e:	f44f 5380 	mov.w	r3, #4096	; 0x1000
 8002412:	60e3      	str	r3, [r4, #12]
 8002414:	6823      	ldr	r3, [r4, #0]
 8002416:	f423 2380 	bic.w	r3, r3, #262144	; 0x40000
 800241a:	6023      	str	r3, [r4, #0]
 800241c:	f04f 6300 	mov.w	r3, #134217728	; 0x8000000
 8002420:	61a1      	str	r1, [r4, #24]
 8002422:	6093      	str	r3, [r2, #8]
 8002424:	4b09      	ldr	r3, [pc, #36]	; (800244c <SystemInit+0x68>)
 8002426:	4a0a      	ldr	r2, [pc, #40]	; (8002450 <SystemInit+0x6c>)
 8002428:	601a      	str	r2, [r3, #0]
 800242a:	f000 f833 	bl	8002494 <HAL_Init>
 800242e:	f7ff ffd3 	bl	80023d8 <SetSysClock>
 8002432:	6ba3      	ldr	r3, [r4, #56]	; 0x38
 8002434:	f043 0308 	orr.w	r3, r3, #8
 8002438:	63a3      	str	r3, [r4, #56]	; 0x38
 800243a:	6ba3      	ldr	r3, [r4, #56]	; 0x38
 800243c:	f023 0308 	bic.w	r3, r3, #8
 8002440:	63a3      	str	r3, [r4, #56]	; 0x38
 8002442:	bd10      	pop	{r4, pc}
 8002444:	e000ed00 	.word	0xe000ed00
 8002448:	40021000 	.word	0x40021000
 800244c:	2000001c 	.word	0x2000001c
 8002450:	003d0900 	.word	0x003d0900

08002454 <__NVIC_SetVector>:
 8002454:	b530      	push	{r4, r5, lr}
 8002456:	4c0c      	ldr	r4, [pc, #48]	; (8002488 <__NVIC_SetVector+0x34>)
 8002458:	68a2      	ldr	r2, [r4, #8]
 800245a:	68a4      	ldr	r4, [r4, #8]
 800245c:	f1b4 6f00 	cmp.w	r4, #134217728	; 0x8000000
 8002460:	4613      	mov	r3, r2
 8002462:	d10c      	bne.n	800247e <__NVIC_SetVector+0x2a>
 8002464:	1f13      	subs	r3, r2, #4
 8002466:	4c09      	ldr	r4, [pc, #36]	; (800248c <__NVIC_SetVector+0x38>)
 8002468:	4a09      	ldr	r2, [pc, #36]	; (8002490 <__NVIC_SetVector+0x3c>)
 800246a:	f853 5f04 	ldr.w	r5, [r3, #4]!
 800246e:	f842 5f04 	str.w	r5, [r2, #4]!
 8002472:	42a2      	cmp	r2, r4
 8002474:	d1f9      	bne.n	800246a <__NVIC_SetVector+0x16>
 8002476:	4a04      	ldr	r2, [pc, #16]	; (8002488 <__NVIC_SetVector+0x34>)
 8002478:	f04f 5380 	mov.w	r3, #268435456	; 0x10000000
 800247c:	6093      	str	r3, [r2, #8]
 800247e:	3010      	adds	r0, #16
 8002480:	f843 1020 	str.w	r1, [r3, r0, lsl #2]
 8002484:	bd30      	pop	{r4, r5, pc}
 8002486:	bf00      	nop
 8002488:	e000ed00 	.word	0xe000ed00
 800248c:	10000184 	.word	0x10000184
 8002490:	0ffffffc 	.word	0x0ffffffc

08002494 <HAL_Init>:
 8002494:	b508      	push	{r3, lr}
 8002496:	2003      	movs	r0, #3
 8002498:	f000 fe8c 	bl	80031b4 <HAL_NVIC_SetPriorityGrouping>
 800249c:	200f      	movs	r0, #15
 800249e:	f7ff fa61 	bl	8001964 <HAL_InitTick>
 80024a2:	f000 f811 	bl	80024c8 <HAL_MspInit>
 80024a6:	2000      	movs	r0, #0
 80024a8:	bd08      	pop	{r3, pc}
	...

080024ac <HAL_IncTick>:
 80024ac:	4a02      	ldr	r2, [pc, #8]	; (80024b8 <HAL_IncTick+0xc>)
 80024ae:	6813      	ldr	r3, [r2, #0]
 80024b0:	3301      	adds	r3, #1
 80024b2:	6013      	str	r3, [r2, #0]
 80024b4:	4770      	bx	lr
 80024b6:	bf00      	nop
 80024b8:	20002090 	.word	0x20002090

080024bc <HAL_GetTick>:
 80024bc:	4b01      	ldr	r3, [pc, #4]	; (80024c4 <HAL_GetTick+0x8>)
 80024be:	6818      	ldr	r0, [r3, #0]
 80024c0:	4770      	bx	lr
 80024c2:	bf00      	nop
 80024c4:	20002090 	.word	0x20002090

080024c8 <HAL_MspInit>:
 80024c8:	4770      	bx	lr
	...

080024cc <RCCEx_PLLSAI1_Config>:
 80024cc:	b5f8      	push	{r3, r4, r5, r6, r7, lr}
 80024ce:	4b59      	ldr	r3, [pc, #356]	; (8002634 <RCCEx_PLLSAI1_Config+0x168>)
 80024d0:	68da      	ldr	r2, [r3, #12]
 80024d2:	f012 0f03 	tst.w	r2, #3
 80024d6:	4604      	mov	r4, r0
 80024d8:	460e      	mov	r6, r1
 80024da:	461d      	mov	r5, r3
 80024dc:	6800      	ldr	r0, [r0, #0]
 80024de:	d03b      	beq.n	8002558 <RCCEx_PLLSAI1_Config+0x8c>
 80024e0:	68da      	ldr	r2, [r3, #12]
 80024e2:	f002 0203 	and.w	r2, r2, #3
 80024e6:	4282      	cmp	r2, r0
 80024e8:	d152      	bne.n	8002590 <RCCEx_PLLSAI1_Config+0xc4>
 80024ea:	2a00      	cmp	r2, #0
 80024ec:	d050      	beq.n	8002590 <RCCEx_PLLSAI1_Config+0xc4>
 80024ee:	68db      	ldr	r3, [r3, #12]
 80024f0:	2270      	movs	r2, #112	; 0x70
 80024f2:	fa92 f2a2 	rbit	r2, r2
 80024f6:	fab2 f282 	clz	r2, r2
 80024fa:	f003 0370 	and.w	r3, r3, #112	; 0x70
 80024fe:	40d3      	lsrs	r3, r2
 8002500:	6862      	ldr	r2, [r4, #4]
 8002502:	3301      	adds	r3, #1
 8002504:	4293      	cmp	r3, r2
 8002506:	d143      	bne.n	8002590 <RCCEx_PLLSAI1_Config+0xc4>
 8002508:	682b      	ldr	r3, [r5, #0]
 800250a:	f023 6380 	bic.w	r3, r3, #67108864	; 0x4000000
 800250e:	602b      	str	r3, [r5, #0]
 8002510:	f7ff ffd4 	bl	80024bc <HAL_GetTick>
 8002514:	4607      	mov	r7, r0
 8002516:	682b      	ldr	r3, [r5, #0]
 8002518:	011a      	lsls	r2, r3, #4
 800251a:	d442      	bmi.n	80025a2 <RCCEx_PLLSAI1_Config+0xd6>
 800251c:	f44f 43fe 	mov.w	r3, #32512	; 0x7f00
 8002520:	68a1      	ldr	r1, [r4, #8]
 8002522:	2e00      	cmp	r6, #0
 8002524:	d044      	beq.n	80025b0 <RCCEx_PLLSAI1_Config+0xe4>
 8002526:	2e01      	cmp	r6, #1
 8002528:	6928      	ldr	r0, [r5, #16]
 800252a:	d168      	bne.n	80025fe <RCCEx_PLLSAI1_Config+0x132>
 800252c:	fa93 f3a3 	rbit	r3, r3
 8002530:	f44f 02c0 	mov.w	r2, #6291456	; 0x600000
 8002534:	fab3 f383 	clz	r3, r3
 8002538:	fa92 f2a2 	rbit	r2, r2
 800253c:	fab2 f682 	clz	r6, r2
 8002540:	6922      	ldr	r2, [r4, #16]
 8002542:	0852      	lsrs	r2, r2, #1
 8002544:	3a01      	subs	r2, #1
 8002546:	40b2      	lsls	r2, r6
 8002548:	fa01 f303 	lsl.w	r3, r1, r3
 800254c:	4313      	orrs	r3, r2
 800254e:	f420 02c0 	bic.w	r2, r0, #6291456	; 0x600000
 8002552:	f422 42fe 	bic.w	r2, r2, #32512	; 0x7f00
 8002556:	e040      	b.n	80025da <RCCEx_PLLSAI1_Config+0x10e>
 8002558:	2802      	cmp	r0, #2
 800255a:	d015      	beq.n	8002588 <RCCEx_PLLSAI1_Config+0xbc>
 800255c:	2803      	cmp	r0, #3
 800255e:	d019      	beq.n	8002594 <RCCEx_PLLSAI1_Config+0xc8>
 8002560:	2801      	cmp	r0, #1
 8002562:	d115      	bne.n	8002590 <RCCEx_PLLSAI1_Config+0xc4>
 8002564:	681b      	ldr	r3, [r3, #0]
 8002566:	079f      	lsls	r7, r3, #30
 8002568:	d548      	bpl.n	80025fc <RCCEx_PLLSAI1_Config+0x130>
 800256a:	68ea      	ldr	r2, [r5, #12]
 800256c:	2370      	movs	r3, #112	; 0x70
 800256e:	fa93 f3a3 	rbit	r3, r3
 8002572:	fab3 f183 	clz	r1, r3
 8002576:	6863      	ldr	r3, [r4, #4]
 8002578:	f022 0273 	bic.w	r2, r2, #115	; 0x73
 800257c:	3b01      	subs	r3, #1
 800257e:	408b      	lsls	r3, r1
 8002580:	4310      	orrs	r0, r2
 8002582:	4318      	orrs	r0, r3
 8002584:	60e8      	str	r0, [r5, #12]
 8002586:	e7bf      	b.n	8002508 <RCCEx_PLLSAI1_Config+0x3c>
 8002588:	681b      	ldr	r3, [r3, #0]
 800258a:	f413 6f80 	tst.w	r3, #1024	; 0x400
 800258e:	d1ec      	bne.n	800256a <RCCEx_PLLSAI1_Config+0x9e>
 8002590:	2001      	movs	r0, #1
 8002592:	bdf8      	pop	{r3, r4, r5, r6, r7, pc}
 8002594:	681a      	ldr	r2, [r3, #0]
 8002596:	0391      	lsls	r1, r2, #14
 8002598:	d4e7      	bmi.n	800256a <RCCEx_PLLSAI1_Config+0x9e>
 800259a:	681b      	ldr	r3, [r3, #0]
 800259c:	f413 2f80 	tst.w	r3, #262144	; 0x40000
 80025a0:	e7f5      	b.n	800258e <RCCEx_PLLSAI1_Config+0xc2>
 80025a2:	f7ff ff8b 	bl	80024bc <HAL_GetTick>
 80025a6:	1bc0      	subs	r0, r0, r7
 80025a8:	2802      	cmp	r0, #2
 80025aa:	d9b4      	bls.n	8002516 <RCCEx_PLLSAI1_Config+0x4a>
 80025ac:	2003      	movs	r0, #3
 80025ae:	bdf8      	pop	{r3, r4, r5, r6, r7, pc}
 80025b0:	6928      	ldr	r0, [r5, #16]
 80025b2:	fa93 f3a3 	rbit	r3, r3
 80025b6:	f44f 3200 	mov.w	r2, #131072	; 0x20000
 80025ba:	fab3 f383 	clz	r3, r3
 80025be:	fa92 f2a2 	rbit	r2, r2
 80025c2:	fab2 f682 	clz	r6, r2
 80025c6:	68e2      	ldr	r2, [r4, #12]
 80025c8:	0912      	lsrs	r2, r2, #4
 80025ca:	40b2      	lsls	r2, r6
 80025cc:	fa01 f303 	lsl.w	r3, r1, r3
 80025d0:	4313      	orrs	r3, r2
 80025d2:	f420 321f 	bic.w	r2, r0, #162816	; 0x27c00
 80025d6:	f422 7240 	bic.w	r2, r2, #768	; 0x300
 80025da:	4313      	orrs	r3, r2
 80025dc:	612b      	str	r3, [r5, #16]
 80025de:	682b      	ldr	r3, [r5, #0]
 80025e0:	f043 6380 	orr.w	r3, r3, #67108864	; 0x4000000
 80025e4:	602b      	str	r3, [r5, #0]
 80025e6:	f7ff ff69 	bl	80024bc <HAL_GetTick>
 80025ea:	4606      	mov	r6, r0
 80025ec:	682b      	ldr	r3, [r5, #0]
 80025ee:	011b      	lsls	r3, r3, #4
 80025f0:	d519      	bpl.n	8002626 <RCCEx_PLLSAI1_Config+0x15a>
 80025f2:	692b      	ldr	r3, [r5, #16]
 80025f4:	69a2      	ldr	r2, [r4, #24]
 80025f6:	4313      	orrs	r3, r2
 80025f8:	612b      	str	r3, [r5, #16]
 80025fa:	2000      	movs	r0, #0
 80025fc:	bdf8      	pop	{r3, r4, r5, r6, r7, pc}
 80025fe:	fa93 f3a3 	rbit	r3, r3
 8002602:	f04f 62c0 	mov.w	r2, #100663296	; 0x6000000
 8002606:	fab3 f383 	clz	r3, r3
 800260a:	fa92 f2a2 	rbit	r2, r2
 800260e:	fab2 f682 	clz	r6, r2
 8002612:	6962      	ldr	r2, [r4, #20]
 8002614:	0852      	lsrs	r2, r2, #1
 8002616:	3a01      	subs	r2, #1
 8002618:	40b2      	lsls	r2, r6
 800261a:	fa01 f303 	lsl.w	r3, r1, r3
 800261e:	4313      	orrs	r3, r2
 8002620:	f020 62c0 	bic.w	r2, r0, #100663296	; 0x6000000
 8002624:	e795      	b.n	8002552 <RCCEx_PLLSAI1_Config+0x86>
 8002626:	f7ff ff49 	bl	80024bc <HAL_GetTick>
 800262a:	1b80      	subs	r0, r0, r6
 800262c:	2802      	cmp	r0, #2
 800262e:	d9dd      	bls.n	80025ec <RCCEx_PLLSAI1_Config+0x120>
 8002630:	e7bc      	b.n	80025ac <RCCEx_PLLSAI1_Config+0xe0>
 8002632:	bf00      	nop
 8002634:	40021000 	.word	0x40021000

08002638 <RCCEx_PLLSAI2_Config>:
 8002638:	b5f8      	push	{r3, r4, r5, r6, r7, lr}
 800263a:	4b4e      	ldr	r3, [pc, #312]	; (8002774 <RCCEx_PLLSAI2_Config+0x13c>)
 800263c:	68da      	ldr	r2, [r3, #12]
 800263e:	f012 0f03 	tst.w	r2, #3
 8002642:	4605      	mov	r5, r0
 8002644:	460e      	mov	r6, r1
 8002646:	461c      	mov	r4, r3
 8002648:	6800      	ldr	r0, [r0, #0]
 800264a:	d039      	beq.n	80026c0 <RCCEx_PLLSAI2_Config+0x88>
 800264c:	68da      	ldr	r2, [r3, #12]
 800264e:	f002 0203 	and.w	r2, r2, #3
 8002652:	4282      	cmp	r2, r0
 8002654:	d150      	bne.n	80026f8 <RCCEx_PLLSAI2_Config+0xc0>
 8002656:	2a00      	cmp	r2, #0
 8002658:	d04e      	beq.n	80026f8 <RCCEx_PLLSAI2_Config+0xc0>
 800265a:	68db      	ldr	r3, [r3, #12]
 800265c:	2270      	movs	r2, #112	; 0x70
 800265e:	fa92 f2a2 	rbit	r2, r2
 8002662:	fab2 f282 	clz	r2, r2
 8002666:	f003 0370 	and.w	r3, r3, #112	; 0x70
 800266a:	40d3      	lsrs	r3, r2
 800266c:	686a      	ldr	r2, [r5, #4]
 800266e:	3301      	adds	r3, #1
 8002670:	4293      	cmp	r3, r2
 8002672:	d141      	bne.n	80026f8 <RCCEx_PLLSAI2_Config+0xc0>
 8002674:	6823      	ldr	r3, [r4, #0]
 8002676:	f023 5380 	bic.w	r3, r3, #268435456	; 0x10000000
 800267a:	6023      	str	r3, [r4, #0]
 800267c:	f7ff ff1e 	bl	80024bc <HAL_GetTick>
 8002680:	4607      	mov	r7, r0
 8002682:	6823      	ldr	r3, [r4, #0]
 8002684:	009a      	lsls	r2, r3, #2
 8002686:	d440      	bmi.n	800270a <RCCEx_PLLSAI2_Config+0xd2>
 8002688:	f44f 43fe 	mov.w	r3, #32512	; 0x7f00
 800268c:	68a9      	ldr	r1, [r5, #8]
 800268e:	2e00      	cmp	r6, #0
 8002690:	d042      	beq.n	8002718 <RCCEx_PLLSAI2_Config+0xe0>
 8002692:	6960      	ldr	r0, [r4, #20]
 8002694:	fa93 f3a3 	rbit	r3, r3
 8002698:	f04f 62c0 	mov.w	r2, #100663296	; 0x6000000
 800269c:	fab3 f383 	clz	r3, r3
 80026a0:	fa92 f2a2 	rbit	r2, r2
 80026a4:	fab2 f682 	clz	r6, r2
 80026a8:	692a      	ldr	r2, [r5, #16]
 80026aa:	0852      	lsrs	r2, r2, #1
 80026ac:	3a01      	subs	r2, #1
 80026ae:	40b2      	lsls	r2, r6
 80026b0:	fa01 f303 	lsl.w	r3, r1, r3
 80026b4:	4313      	orrs	r3, r2
 80026b6:	f020 62c0 	bic.w	r2, r0, #100663296	; 0x6000000
 80026ba:	f422 42fe 	bic.w	r2, r2, #32512	; 0x7f00
 80026be:	e040      	b.n	8002742 <RCCEx_PLLSAI2_Config+0x10a>
 80026c0:	2802      	cmp	r0, #2
 80026c2:	d015      	beq.n	80026f0 <RCCEx_PLLSAI2_Config+0xb8>
 80026c4:	2803      	cmp	r0, #3
 80026c6:	d019      	beq.n	80026fc <RCCEx_PLLSAI2_Config+0xc4>
 80026c8:	2801      	cmp	r0, #1
 80026ca:	d115      	bne.n	80026f8 <RCCEx_PLLSAI2_Config+0xc0>
 80026cc:	681b      	ldr	r3, [r3, #0]
 80026ce:	079f      	lsls	r7, r3, #30
 80026d0:	d548      	bpl.n	8002764 <RCCEx_PLLSAI2_Config+0x12c>
 80026d2:	68e2      	ldr	r2, [r4, #12]
 80026d4:	2370      	movs	r3, #112	; 0x70
 80026d6:	fa93 f3a3 	rbit	r3, r3
 80026da:	fab3 f183 	clz	r1, r3
 80026de:	686b      	ldr	r3, [r5, #4]
 80026e0:	f022 0273 	bic.w	r2, r2, #115	; 0x73
 80026e4:	3b01      	subs	r3, #1
 80026e6:	408b      	lsls	r3, r1
 80026e8:	4310      	orrs	r0, r2
 80026ea:	4318      	orrs	r0, r3
 80026ec:	60e0      	str	r0, [r4, #12]
 80026ee:	e7c1      	b.n	8002674 <RCCEx_PLLSAI2_Config+0x3c>
 80026f0:	681b      	ldr	r3, [r3, #0]
 80026f2:	f413 6f80 	tst.w	r3, #1024	; 0x400
 80026f6:	d1ec      	bne.n	80026d2 <RCCEx_PLLSAI2_Config+0x9a>
 80026f8:	2001      	movs	r0, #1
 80026fa:	bdf8      	pop	{r3, r4, r5, r6, r7, pc}
 80026fc:	681a      	ldr	r2, [r3, #0]
 80026fe:	0391      	lsls	r1, r2, #14
 8002700:	d4e7      	bmi.n	80026d2 <RCCEx_PLLSAI2_Config+0x9a>
 8002702:	681b      	ldr	r3, [r3, #0]
 8002704:	f413 2f80 	tst.w	r3, #262144	; 0x40000
 8002708:	e7f5      	b.n	80026f6 <RCCEx_PLLSAI2_Config+0xbe>
 800270a:	f7ff fed7 	bl	80024bc <HAL_GetTick>
 800270e:	1bc0      	subs	r0, r0, r7
 8002710:	2802      	cmp	r0, #2
 8002712:	d9b6      	bls.n	8002682 <RCCEx_PLLSAI2_Config+0x4a>
 8002714:	2003      	movs	r0, #3
 8002716:	bdf8      	pop	{r3, r4, r5, r6, r7, pc}
 8002718:	6960      	ldr	r0, [r4, #20]
 800271a:	fa93 f3a3 	rbit	r3, r3
 800271e:	f44f 3200 	mov.w	r2, #131072	; 0x20000
 8002722:	fab3 f383 	clz	r3, r3
 8002726:	fa92 f2a2 	rbit	r2, r2
 800272a:	fab2 f682 	clz	r6, r2
 800272e:	68ea      	ldr	r2, [r5, #12]
 8002730:	0912      	lsrs	r2, r2, #4
 8002732:	40b2      	lsls	r2, r6
 8002734:	fa01 f303 	lsl.w	r3, r1, r3
 8002738:	4313      	orrs	r3, r2
 800273a:	f420 321f 	bic.w	r2, r0, #162816	; 0x27c00
 800273e:	f422 7240 	bic.w	r2, r2, #768	; 0x300
 8002742:	4313      	orrs	r3, r2
 8002744:	6163      	str	r3, [r4, #20]
 8002746:	6823      	ldr	r3, [r4, #0]
 8002748:	f043 5380 	orr.w	r3, r3, #268435456	; 0x10000000
 800274c:	6023      	str	r3, [r4, #0]
 800274e:	f7ff feb5 	bl	80024bc <HAL_GetTick>
 8002752:	4606      	mov	r6, r0
 8002754:	6823      	ldr	r3, [r4, #0]
 8002756:	009b      	lsls	r3, r3, #2
 8002758:	d505      	bpl.n	8002766 <RCCEx_PLLSAI2_Config+0x12e>
 800275a:	6963      	ldr	r3, [r4, #20]
 800275c:	696a      	ldr	r2, [r5, #20]
 800275e:	4313      	orrs	r3, r2
 8002760:	6163      	str	r3, [r4, #20]
 8002762:	2000      	movs	r0, #0
 8002764:	bdf8      	pop	{r3, r4, r5, r6, r7, pc}
 8002766:	f7ff fea9 	bl	80024bc <HAL_GetTick>
 800276a:	1b80      	subs	r0, r0, r6
 800276c:	2802      	cmp	r0, #2
 800276e:	d9f1      	bls.n	8002754 <RCCEx_PLLSAI2_Config+0x11c>
 8002770:	e7d0      	b.n	8002714 <RCCEx_PLLSAI2_Config+0xdc>
 8002772:	bf00      	nop
 8002774:	40021000 	.word	0x40021000

08002778 <HAL_RCCEx_PeriphCLKConfig>:
 8002778:	e92d 47f3 	stmdb	sp!, {r0, r1, r4, r5, r6, r7, r8, r9, r10, lr}
 800277c:	6806      	ldr	r6, [r0, #0]
 800277e:	f416 6600 	ands.w	r6, r6, #2048	; 0x800
 8002782:	4604      	mov	r4, r0
 8002784:	d024      	beq.n	80027d0 <HAL_RCCEx_PeriphCLKConfig+0x58>
 8002786:	6e41      	ldr	r1, [r0, #100]	; 0x64
 8002788:	f5b1 0f80 	cmp.w	r1, #4194304	; 0x400000
 800278c:	d02c      	beq.n	80027e8 <HAL_RCCEx_PeriphCLKConfig+0x70>
 800278e:	d802      	bhi.n	8002796 <HAL_RCCEx_PeriphCLKConfig+0x1e>
 8002790:	b1c1      	cbz	r1, 80027c4 <HAL_RCCEx_PeriphCLKConfig+0x4c>
 8002792:	2601      	movs	r6, #1
 8002794:	e01c      	b.n	80027d0 <HAL_RCCEx_PeriphCLKConfig+0x58>
 8002796:	f5b1 0f00 	cmp.w	r1, #8388608	; 0x800000
 800279a:	d00d      	beq.n	80027b8 <HAL_RCCEx_PeriphCLKConfig+0x40>
 800279c:	f5b1 0f40 	cmp.w	r1, #12582912	; 0xc00000
 80027a0:	d1f7      	bne.n	8002792 <HAL_RCCEx_PeriphCLKConfig+0x1a>
 80027a2:	4a53      	ldr	r2, [pc, #332]	; (80028f0 <HAL_RCCEx_PeriphCLKConfig+0x178>)
 80027a4:	6e61      	ldr	r1, [r4, #100]	; 0x64
 80027a6:	f8d2 3088 	ldr.w	r3, [r2, #136]	; 0x88
 80027aa:	f423 0340 	bic.w	r3, r3, #12582912	; 0xc00000
 80027ae:	430b      	orrs	r3, r1
 80027b0:	f8c2 3088 	str.w	r3, [r2, #136]	; 0x88
 80027b4:	2600      	movs	r6, #0
 80027b6:	e00b      	b.n	80027d0 <HAL_RCCEx_PeriphCLKConfig+0x58>
 80027b8:	4a4d      	ldr	r2, [pc, #308]	; (80028f0 <HAL_RCCEx_PeriphCLKConfig+0x178>)
 80027ba:	68d3      	ldr	r3, [r2, #12]
 80027bc:	f443 3380 	orr.w	r3, r3, #65536	; 0x10000
 80027c0:	60d3      	str	r3, [r2, #12]
 80027c2:	e7ee      	b.n	80027a2 <HAL_RCCEx_PeriphCLKConfig+0x2a>
 80027c4:	3004      	adds	r0, #4
 80027c6:	f7ff fe81 	bl	80024cc <RCCEx_PLLSAI1_Config>
 80027ca:	4606      	mov	r6, r0
 80027cc:	2800      	cmp	r0, #0
 80027ce:	d0e8      	beq.n	80027a2 <HAL_RCCEx_PeriphCLKConfig+0x2a>
 80027d0:	6823      	ldr	r3, [r4, #0]
 80027d2:	04d8      	lsls	r0, r3, #19
 80027d4:	d506      	bpl.n	80027e4 <HAL_RCCEx_PeriphCLKConfig+0x6c>
 80027d6:	6ea1      	ldr	r1, [r4, #104]	; 0x68
 80027d8:	f1b1 7f80 	cmp.w	r1, #16777216	; 0x1000000
 80027dc:	d07c      	beq.n	80028d8 <HAL_RCCEx_PeriphCLKConfig+0x160>
 80027de:	d808      	bhi.n	80027f2 <HAL_RCCEx_PeriphCLKConfig+0x7a>
 80027e0:	b1a9      	cbz	r1, 800280e <HAL_RCCEx_PeriphCLKConfig+0x96>
 80027e2:	2601      	movs	r6, #1
 80027e4:	4635      	mov	r5, r6
 80027e6:	e021      	b.n	800282c <HAL_RCCEx_PeriphCLKConfig+0xb4>
 80027e8:	2100      	movs	r1, #0
 80027ea:	3020      	adds	r0, #32
 80027ec:	f7ff ff24 	bl	8002638 <RCCEx_PLLSAI2_Config>
 80027f0:	e7eb      	b.n	80027ca <HAL_RCCEx_PeriphCLKConfig+0x52>
 80027f2:	f1b1 7f00 	cmp.w	r1, #33554432	; 0x2000000
 80027f6:	d004      	beq.n	8002802 <HAL_RCCEx_PeriphCLKConfig+0x8a>
 80027f8:	f1b1 7f40 	cmp.w	r1, #50331648	; 0x3000000
 80027fc:	d1f1      	bne.n	80027e2 <HAL_RCCEx_PeriphCLKConfig+0x6a>
 80027fe:	4635      	mov	r5, r6
 8002800:	e009      	b.n	8002816 <HAL_RCCEx_PeriphCLKConfig+0x9e>
 8002802:	4a3b      	ldr	r2, [pc, #236]	; (80028f0 <HAL_RCCEx_PeriphCLKConfig+0x178>)
 8002804:	68d3      	ldr	r3, [r2, #12]
 8002806:	f443 3380 	orr.w	r3, r3, #65536	; 0x10000
 800280a:	60d3      	str	r3, [r2, #12]
 800280c:	e7f7      	b.n	80027fe <HAL_RCCEx_PeriphCLKConfig+0x86>
 800280e:	1d20      	adds	r0, r4, #4
 8002810:	f7ff fe5c 	bl	80024cc <RCCEx_PLLSAI1_Config>
 8002814:	4605      	mov	r5, r0
 8002816:	2d00      	cmp	r5, #0
 8002818:	d164      	bne.n	80028e4 <HAL_RCCEx_PeriphCLKConfig+0x16c>
 800281a:	4a35      	ldr	r2, [pc, #212]	; (80028f0 <HAL_RCCEx_PeriphCLKConfig+0x178>)
 800281c:	6ea1      	ldr	r1, [r4, #104]	; 0x68
 800281e:	f8d2 3088 	ldr.w	r3, [r2, #136]	; 0x88
 8002822:	f023 7340 	bic.w	r3, r3, #50331648	; 0x3000000
 8002826:	430b      	orrs	r3, r1
 8002828:	f8c2 3088 	str.w	r3, [r2, #136]	; 0x88
 800282c:	6823      	ldr	r3, [r4, #0]
 800282e:	0399      	lsls	r1, r3, #14
 8002830:	f140 815b 	bpl.w	8002aea <HAL_RCCEx_PeriphCLKConfig+0x372>
 8002834:	4f2e      	ldr	r7, [pc, #184]	; (80028f0 <HAL_RCCEx_PeriphCLKConfig+0x178>)
 8002836:	6dbb      	ldr	r3, [r7, #88]	; 0x58
 8002838:	00da      	lsls	r2, r3, #3
 800283a:	d455      	bmi.n	80028e8 <HAL_RCCEx_PeriphCLKConfig+0x170>
 800283c:	6dbb      	ldr	r3, [r7, #88]	; 0x58
 800283e:	f043 5380 	orr.w	r3, r3, #268435456	; 0x10000000
 8002842:	65bb      	str	r3, [r7, #88]	; 0x58
 8002844:	6dbb      	ldr	r3, [r7, #88]	; 0x58
 8002846:	f003 5380 	and.w	r3, r3, #268435456	; 0x10000000
 800284a:	9301      	str	r3, [sp, #4]
 800284c:	9b01      	ldr	r3, [sp, #4]
 800284e:	f04f 0801 	mov.w	r8, #1
 8002852:	f8df 90a0 	ldr.w	r9, [pc, #160]	; 80028f4 <HAL_RCCEx_PeriphCLKConfig+0x17c>
 8002856:	f8d9 3000 	ldr.w	r3, [r9]
 800285a:	f443 7380 	orr.w	r3, r3, #256	; 0x100
 800285e:	f8c9 3000 	str.w	r3, [r9]
 8002862:	f7ff fe2b 	bl	80024bc <HAL_GetTick>
 8002866:	4682      	mov	r10, r0
 8002868:	f8d9 3000 	ldr.w	r3, [r9]
 800286c:	05db      	lsls	r3, r3, #23
 800286e:	d543      	bpl.n	80028f8 <HAL_RCCEx_PeriphCLKConfig+0x180>
 8002870:	2d00      	cmp	r5, #0
 8002872:	d148      	bne.n	8002906 <HAL_RCCEx_PeriphCLKConfig+0x18e>
 8002874:	f8d7 3090 	ldr.w	r3, [r7, #144]	; 0x90
 8002878:	f413 7340 	ands.w	r3, r3, #768	; 0x300
 800287c:	d015      	beq.n	80028aa <HAL_RCCEx_PeriphCLKConfig+0x132>
 800287e:	f8d4 2084 	ldr.w	r2, [r4, #132]	; 0x84
 8002882:	4293      	cmp	r3, r2
 8002884:	d011      	beq.n	80028aa <HAL_RCCEx_PeriphCLKConfig+0x132>
 8002886:	f8d7 3090 	ldr.w	r3, [r7, #144]	; 0x90
 800288a:	f8d7 2090 	ldr.w	r2, [r7, #144]	; 0x90
 800288e:	f442 3280 	orr.w	r2, r2, #65536	; 0x10000
 8002892:	f8c7 2090 	str.w	r2, [r7, #144]	; 0x90
 8002896:	f8d7 2090 	ldr.w	r2, [r7, #144]	; 0x90
 800289a:	f423 7340 	bic.w	r3, r3, #768	; 0x300
 800289e:	f422 3280 	bic.w	r2, r2, #65536	; 0x10000
 80028a2:	f8c7 2090 	str.w	r2, [r7, #144]	; 0x90
 80028a6:	f8c7 3090 	str.w	r3, [r7, #144]	; 0x90
 80028aa:	07d8      	lsls	r0, r3, #31
 80028ac:	d509      	bpl.n	80028c2 <HAL_RCCEx_PeriphCLKConfig+0x14a>
 80028ae:	f7ff fe05 	bl	80024bc <HAL_GetTick>
 80028b2:	f241 3988 	movw	r9, #5000	; 0x1388
 80028b6:	4605      	mov	r5, r0
 80028b8:	f8d7 3090 	ldr.w	r3, [r7, #144]	; 0x90
 80028bc:	0799      	lsls	r1, r3, #30
 80028be:	f140 810d 	bpl.w	8002adc <HAL_RCCEx_PeriphCLKConfig+0x364>
 80028c2:	f8d7 3090 	ldr.w	r3, [r7, #144]	; 0x90
 80028c6:	f8d4 2084 	ldr.w	r2, [r4, #132]	; 0x84
 80028ca:	f423 7340 	bic.w	r3, r3, #768	; 0x300
 80028ce:	4313      	orrs	r3, r2
 80028d0:	f8c7 3090 	str.w	r3, [r7, #144]	; 0x90
 80028d4:	4635      	mov	r5, r6
 80028d6:	e016      	b.n	8002906 <HAL_RCCEx_PeriphCLKConfig+0x18e>
 80028d8:	2100      	movs	r1, #0
 80028da:	f104 0020 	add.w	r0, r4, #32
 80028de:	f7ff feab 	bl	8002638 <RCCEx_PLLSAI2_Config>
 80028e2:	e797      	b.n	8002814 <HAL_RCCEx_PeriphCLKConfig+0x9c>
 80028e4:	462e      	mov	r6, r5
 80028e6:	e7a1      	b.n	800282c <HAL_RCCEx_PeriphCLKConfig+0xb4>
 80028e8:	f04f 0800 	mov.w	r8, #0
 80028ec:	e7b1      	b.n	8002852 <HAL_RCCEx_PeriphCLKConfig+0xda>
 80028ee:	bf00      	nop
 80028f0:	40021000 	.word	0x40021000
 80028f4:	40007000 	.word	0x40007000
 80028f8:	f7ff fde0 	bl	80024bc <HAL_GetTick>
 80028fc:	eba0 000a 	sub.w	r0, r0, r10
 8002900:	2802      	cmp	r0, #2
 8002902:	d9b1      	bls.n	8002868 <HAL_RCCEx_PeriphCLKConfig+0xf0>
 8002904:	2503      	movs	r5, #3
 8002906:	f1b8 0f00 	cmp.w	r8, #0
 800290a:	d003      	beq.n	8002914 <HAL_RCCEx_PeriphCLKConfig+0x19c>
 800290c:	6dbb      	ldr	r3, [r7, #88]	; 0x58
 800290e:	f023 5380 	bic.w	r3, r3, #268435456	; 0x10000000
 8002912:	65bb      	str	r3, [r7, #88]	; 0x58
 8002914:	6823      	ldr	r3, [r4, #0]
 8002916:	07da      	lsls	r2, r3, #31
 8002918:	d508      	bpl.n	800292c <HAL_RCCEx_PeriphCLKConfig+0x1b4>
 800291a:	498a      	ldr	r1, [pc, #552]	; (8002b44 <HAL_RCCEx_PeriphCLKConfig+0x3cc>)
 800291c:	6ba0      	ldr	r0, [r4, #56]	; 0x38
 800291e:	f8d1 2088 	ldr.w	r2, [r1, #136]	; 0x88
 8002922:	f022 0203 	bic.w	r2, r2, #3
 8002926:	4302      	orrs	r2, r0
 8002928:	f8c1 2088 	str.w	r2, [r1, #136]	; 0x88
 800292c:	079f      	lsls	r7, r3, #30
 800292e:	d508      	bpl.n	8002942 <HAL_RCCEx_PeriphCLKConfig+0x1ca>
 8002930:	4984      	ldr	r1, [pc, #528]	; (8002b44 <HAL_RCCEx_PeriphCLKConfig+0x3cc>)
 8002932:	6be0      	ldr	r0, [r4, #60]	; 0x3c
 8002934:	f8d1 2088 	ldr.w	r2, [r1, #136]	; 0x88
 8002938:	f022 020c 	bic.w	r2, r2, #12
 800293c:	4302      	orrs	r2, r0
 800293e:	f8c1 2088 	str.w	r2, [r1, #136]	; 0x88
 8002942:	075e      	lsls	r6, r3, #29
 8002944:	d508      	bpl.n	8002958 <HAL_RCCEx_PeriphCLKConfig+0x1e0>
 8002946:	497f      	ldr	r1, [pc, #508]	; (8002b44 <HAL_RCCEx_PeriphCLKConfig+0x3cc>)
 8002948:	6c20      	ldr	r0, [r4, #64]	; 0x40
 800294a:	f8d1 2088 	ldr.w	r2, [r1, #136]	; 0x88
 800294e:	f022 0230 	bic.w	r2, r2, #48	; 0x30
 8002952:	4302      	orrs	r2, r0
 8002954:	f8c1 2088 	str.w	r2, [r1, #136]	; 0x88
 8002958:	0718      	lsls	r0, r3, #28
 800295a:	d508      	bpl.n	800296e <HAL_RCCEx_PeriphCLKConfig+0x1f6>
 800295c:	4979      	ldr	r1, [pc, #484]	; (8002b44 <HAL_RCCEx_PeriphCLKConfig+0x3cc>)
 800295e:	6c60      	ldr	r0, [r4, #68]	; 0x44
 8002960:	f8d1 2088 	ldr.w	r2, [r1, #136]	; 0x88
 8002964:	f022 02c0 	bic.w	r2, r2, #192	; 0xc0
 8002968:	4302      	orrs	r2, r0
 800296a:	f8c1 2088 	str.w	r2, [r1, #136]	; 0x88
 800296e:	06d9      	lsls	r1, r3, #27
 8002970:	d508      	bpl.n	8002984 <HAL_RCCEx_PeriphCLKConfig+0x20c>
 8002972:	4974      	ldr	r1, [pc, #464]	; (8002b44 <HAL_RCCEx_PeriphCLKConfig+0x3cc>)
 8002974:	6ca0      	ldr	r0, [r4, #72]	; 0x48
 8002976:	f8d1 2088 	ldr.w	r2, [r1, #136]	; 0x88
 800297a:	f422 7240 	bic.w	r2, r2, #768	; 0x300
 800297e:	4302      	orrs	r2, r0
 8002980:	f8c1 2088 	str.w	r2, [r1, #136]	; 0x88
 8002984:	069a      	lsls	r2, r3, #26
 8002986:	d508      	bpl.n	800299a <HAL_RCCEx_PeriphCLKConfig+0x222>
 8002988:	496e      	ldr	r1, [pc, #440]	; (8002b44 <HAL_RCCEx_PeriphCLKConfig+0x3cc>)
 800298a:	6ce0      	ldr	r0, [r4, #76]	; 0x4c
 800298c:	f8d1 2088 	ldr.w	r2, [r1, #136]	; 0x88
 8002990:	f422 6240 	bic.w	r2, r2, #3072	; 0xc00
 8002994:	4302      	orrs	r2, r0
 8002996:	f8c1 2088 	str.w	r2, [r1, #136]	; 0x88
 800299a:	059f      	lsls	r7, r3, #22
 800299c:	d508      	bpl.n	80029b0 <HAL_RCCEx_PeriphCLKConfig+0x238>
 800299e:	4969      	ldr	r1, [pc, #420]	; (8002b44 <HAL_RCCEx_PeriphCLKConfig+0x3cc>)
 80029a0:	6de0      	ldr	r0, [r4, #92]	; 0x5c
 80029a2:	f8d1 2088 	ldr.w	r2, [r1, #136]	; 0x88
 80029a6:	f422 2240 	bic.w	r2, r2, #786432	; 0xc0000
 80029aa:	4302      	orrs	r2, r0
 80029ac:	f8c1 2088 	str.w	r2, [r1, #136]	; 0x88
 80029b0:	055e      	lsls	r6, r3, #21
 80029b2:	d508      	bpl.n	80029c6 <HAL_RCCEx_PeriphCLKConfig+0x24e>
 80029b4:	4963      	ldr	r1, [pc, #396]	; (8002b44 <HAL_RCCEx_PeriphCLKConfig+0x3cc>)
 80029b6:	6e20      	ldr	r0, [r4, #96]	; 0x60
 80029b8:	f8d1 2088 	ldr.w	r2, [r1, #136]	; 0x88
 80029bc:	f422 1240 	bic.w	r2, r2, #3145728	; 0x300000
 80029c0:	4302      	orrs	r2, r0
 80029c2:	f8c1 2088 	str.w	r2, [r1, #136]	; 0x88
 80029c6:	0658      	lsls	r0, r3, #25
 80029c8:	d508      	bpl.n	80029dc <HAL_RCCEx_PeriphCLKConfig+0x264>
 80029ca:	495e      	ldr	r1, [pc, #376]	; (8002b44 <HAL_RCCEx_PeriphCLKConfig+0x3cc>)
 80029cc:	6d20      	ldr	r0, [r4, #80]	; 0x50
 80029ce:	f8d1 2088 	ldr.w	r2, [r1, #136]	; 0x88
 80029d2:	f422 5240 	bic.w	r2, r2, #12288	; 0x3000
 80029d6:	4302      	orrs	r2, r0
 80029d8:	f8c1 2088 	str.w	r2, [r1, #136]	; 0x88
 80029dc:	0619      	lsls	r1, r3, #24
 80029de:	d508      	bpl.n	80029f2 <HAL_RCCEx_PeriphCLKConfig+0x27a>
 80029e0:	4958      	ldr	r1, [pc, #352]	; (8002b44 <HAL_RCCEx_PeriphCLKConfig+0x3cc>)
 80029e2:	6d60      	ldr	r0, [r4, #84]	; 0x54
 80029e4:	f8d1 2088 	ldr.w	r2, [r1, #136]	; 0x88
 80029e8:	f422 4240 	bic.w	r2, r2, #49152	; 0xc000
 80029ec:	4302      	orrs	r2, r0
 80029ee:	f8c1 2088 	str.w	r2, [r1, #136]	; 0x88
 80029f2:	05da      	lsls	r2, r3, #23
 80029f4:	d508      	bpl.n	8002a08 <HAL_RCCEx_PeriphCLKConfig+0x290>
 80029f6:	4953      	ldr	r1, [pc, #332]	; (8002b44 <HAL_RCCEx_PeriphCLKConfig+0x3cc>)
 80029f8:	6da0      	ldr	r0, [r4, #88]	; 0x58
 80029fa:	f8d1 2088 	ldr.w	r2, [r1, #136]	; 0x88
 80029fe:	f422 3240 	bic.w	r2, r2, #196608	; 0x30000
 8002a02:	4302      	orrs	r2, r0
 8002a04:	f8c1 2088 	str.w	r2, [r1, #136]	; 0x88
 8002a08:	049b      	lsls	r3, r3, #18
 8002a0a:	d50f      	bpl.n	8002a2c <HAL_RCCEx_PeriphCLKConfig+0x2b4>
 8002a0c:	4a4d      	ldr	r2, [pc, #308]	; (8002b44 <HAL_RCCEx_PeriphCLKConfig+0x3cc>)
 8002a0e:	6ee1      	ldr	r1, [r4, #108]	; 0x6c
 8002a10:	f8d2 3088 	ldr.w	r3, [r2, #136]	; 0x88
 8002a14:	f023 6340 	bic.w	r3, r3, #201326592	; 0xc000000
 8002a18:	430b      	orrs	r3, r1
 8002a1a:	f1b1 6f00 	cmp.w	r1, #134217728	; 0x8000000
 8002a1e:	f8c2 3088 	str.w	r3, [r2, #136]	; 0x88
 8002a22:	d164      	bne.n	8002aee <HAL_RCCEx_PeriphCLKConfig+0x376>
 8002a24:	68d3      	ldr	r3, [r2, #12]
 8002a26:	f443 1380 	orr.w	r3, r3, #1048576	; 0x100000
 8002a2a:	60d3      	str	r3, [r2, #12]
 8002a2c:	6823      	ldr	r3, [r4, #0]
 8002a2e:	031f      	lsls	r7, r3, #12
 8002a30:	d50f      	bpl.n	8002a52 <HAL_RCCEx_PeriphCLKConfig+0x2da>
 8002a32:	4a44      	ldr	r2, [pc, #272]	; (8002b44 <HAL_RCCEx_PeriphCLKConfig+0x3cc>)
 8002a34:	6f21      	ldr	r1, [r4, #112]	; 0x70
 8002a36:	f8d2 3088 	ldr.w	r3, [r2, #136]	; 0x88
 8002a3a:	f023 6340 	bic.w	r3, r3, #201326592	; 0xc000000
 8002a3e:	430b      	orrs	r3, r1
 8002a40:	f1b1 6f00 	cmp.w	r1, #134217728	; 0x8000000
 8002a44:	f8c2 3088 	str.w	r3, [r2, #136]	; 0x88
 8002a48:	d15c      	bne.n	8002b04 <HAL_RCCEx_PeriphCLKConfig+0x38c>
 8002a4a:	68d3      	ldr	r3, [r2, #12]
 8002a4c:	f443 1380 	orr.w	r3, r3, #1048576	; 0x100000
 8002a50:	60d3      	str	r3, [r2, #12]
 8002a52:	6823      	ldr	r3, [r4, #0]
 8002a54:	035e      	lsls	r6, r3, #13
 8002a56:	d50f      	bpl.n	8002a78 <HAL_RCCEx_PeriphCLKConfig+0x300>
 8002a58:	4a3a      	ldr	r2, [pc, #232]	; (8002b44 <HAL_RCCEx_PeriphCLKConfig+0x3cc>)
 8002a5a:	6f61      	ldr	r1, [r4, #116]	; 0x74
 8002a5c:	f8d2 3088 	ldr.w	r3, [r2, #136]	; 0x88
 8002a60:	f023 6340 	bic.w	r3, r3, #201326592	; 0xc000000
 8002a64:	430b      	orrs	r3, r1
 8002a66:	f1b1 6f00 	cmp.w	r1, #134217728	; 0x8000000
 8002a6a:	f8c2 3088 	str.w	r3, [r2, #136]	; 0x88
 8002a6e:	d154      	bne.n	8002b1a <HAL_RCCEx_PeriphCLKConfig+0x3a2>
 8002a70:	68d3      	ldr	r3, [r2, #12]
 8002a72:	f443 1380 	orr.w	r3, r3, #1048576	; 0x100000
 8002a76:	60d3      	str	r3, [r2, #12]
 8002a78:	6823      	ldr	r3, [r4, #0]
 8002a7a:	0458      	lsls	r0, r3, #17
 8002a7c:	d512      	bpl.n	8002aa4 <HAL_RCCEx_PeriphCLKConfig+0x32c>
 8002a7e:	4931      	ldr	r1, [pc, #196]	; (8002b44 <HAL_RCCEx_PeriphCLKConfig+0x3cc>)
 8002a80:	6fa2      	ldr	r2, [r4, #120]	; 0x78
 8002a82:	f8d1 3088 	ldr.w	r3, [r1, #136]	; 0x88
 8002a86:	f023 5340 	bic.w	r3, r3, #805306368	; 0x30000000
 8002a8a:	4313      	orrs	r3, r2
 8002a8c:	f1b2 5f80 	cmp.w	r2, #268435456	; 0x10000000
 8002a90:	f8c1 3088 	str.w	r3, [r1, #136]	; 0x88
 8002a94:	d14c      	bne.n	8002b30 <HAL_RCCEx_PeriphCLKConfig+0x3b8>
 8002a96:	2102      	movs	r1, #2
 8002a98:	1d20      	adds	r0, r4, #4
 8002a9a:	f7ff fd17 	bl	80024cc <RCCEx_PLLSAI1_Config>
 8002a9e:	2800      	cmp	r0, #0
 8002aa0:	bf18      	it	ne
 8002aa2:	4605      	movne	r5, r0
 8002aa4:	6822      	ldr	r2, [r4, #0]
 8002aa6:	0411      	lsls	r1, r2, #16
 8002aa8:	d508      	bpl.n	8002abc <HAL_RCCEx_PeriphCLKConfig+0x344>
 8002aaa:	4926      	ldr	r1, [pc, #152]	; (8002b44 <HAL_RCCEx_PeriphCLKConfig+0x3cc>)
 8002aac:	6fe0      	ldr	r0, [r4, #124]	; 0x7c
 8002aae:	f8d1 3088 	ldr.w	r3, [r1, #136]	; 0x88
 8002ab2:	f023 4380 	bic.w	r3, r3, #1073741824	; 0x40000000
 8002ab6:	4303      	orrs	r3, r0
 8002ab8:	f8c1 3088 	str.w	r3, [r1, #136]	; 0x88
 8002abc:	03d3      	lsls	r3, r2, #15
 8002abe:	d509      	bpl.n	8002ad4 <HAL_RCCEx_PeriphCLKConfig+0x35c>
 8002ac0:	4a20      	ldr	r2, [pc, #128]	; (8002b44 <HAL_RCCEx_PeriphCLKConfig+0x3cc>)
 8002ac2:	f8d4 1080 	ldr.w	r1, [r4, #128]	; 0x80
 8002ac6:	f8d2 3088 	ldr.w	r3, [r2, #136]	; 0x88
 8002aca:	f023 4300 	bic.w	r3, r3, #2147483648	; 0x80000000
 8002ace:	430b      	orrs	r3, r1
 8002ad0:	f8c2 3088 	str.w	r3, [r2, #136]	; 0x88
 8002ad4:	4628      	mov	r0, r5
 8002ad6:	b002      	add	sp, #8
 8002ad8:	e8bd 87f0 	ldmia.w	sp!, {r4, r5, r6, r7, r8, r9, r10, pc}
 8002adc:	f7ff fcee 	bl	80024bc <HAL_GetTick>
 8002ae0:	1b40      	subs	r0, r0, r5
 8002ae2:	4548      	cmp	r0, r9
 8002ae4:	f67f aee8 	bls.w	80028b8 <HAL_RCCEx_PeriphCLKConfig+0x140>
 8002ae8:	e70c      	b.n	8002904 <HAL_RCCEx_PeriphCLKConfig+0x18c>
 8002aea:	4635      	mov	r5, r6
 8002aec:	e712      	b.n	8002914 <HAL_RCCEx_PeriphCLKConfig+0x19c>
 8002aee:	f1b1 6f80 	cmp.w	r1, #67108864	; 0x4000000
 8002af2:	d19b      	bne.n	8002a2c <HAL_RCCEx_PeriphCLKConfig+0x2b4>
 8002af4:	2101      	movs	r1, #1
 8002af6:	1d20      	adds	r0, r4, #4
 8002af8:	f7ff fce8 	bl	80024cc <RCCEx_PLLSAI1_Config>
 8002afc:	2800      	cmp	r0, #0
 8002afe:	bf18      	it	ne
 8002b00:	4605      	movne	r5, r0
 8002b02:	e793      	b.n	8002a2c <HAL_RCCEx_PeriphCLKConfig+0x2b4>
 8002b04:	f1b1 6f80 	cmp.w	r1, #67108864	; 0x4000000
 8002b08:	d1a3      	bne.n	8002a52 <HAL_RCCEx_PeriphCLKConfig+0x2da>
 8002b0a:	2101      	movs	r1, #1
 8002b0c:	1d20      	adds	r0, r4, #4
 8002b0e:	f7ff fcdd 	bl	80024cc <RCCEx_PLLSAI1_Config>
 8002b12:	2800      	cmp	r0, #0
 8002b14:	bf18      	it	ne
 8002b16:	4605      	movne	r5, r0
 8002b18:	e79b      	b.n	8002a52 <HAL_RCCEx_PeriphCLKConfig+0x2da>
 8002b1a:	f1b1 6f80 	cmp.w	r1, #67108864	; 0x4000000
 8002b1e:	d1ab      	bne.n	8002a78 <HAL_RCCEx_PeriphCLKConfig+0x300>
 8002b20:	2101      	movs	r1, #1
 8002b22:	1d20      	adds	r0, r4, #4
 8002b24:	f7ff fcd2 	bl	80024cc <RCCEx_PLLSAI1_Config>
 8002b28:	2800      	cmp	r0, #0
 8002b2a:	bf18      	it	ne
 8002b2c:	4605      	movne	r5, r0
 8002b2e:	e7a3      	b.n	8002a78 <HAL_RCCEx_PeriphCLKConfig+0x300>
 8002b30:	f1b2 5f00 	cmp.w	r2, #536870912	; 0x20000000
 8002b34:	d1b6      	bne.n	8002aa4 <HAL_RCCEx_PeriphCLKConfig+0x32c>
 8002b36:	2102      	movs	r1, #2
 8002b38:	f104 0020 	add.w	r0, r4, #32
 8002b3c:	f7ff fd7c 	bl	8002638 <RCCEx_PLLSAI2_Config>
 8002b40:	e7ad      	b.n	8002a9e <HAL_RCCEx_PeriphCLKConfig+0x326>
 8002b42:	bf00      	nop
 8002b44:	40021000 	.word	0x40021000

08002b48 <HAL_RCCEx_DisableLSECSS>:
 8002b48:	4b05      	ldr	r3, [pc, #20]	; (8002b60 <HAL_RCCEx_DisableLSECSS+0x18>)
 8002b4a:	f8d3 2090 	ldr.w	r2, [r3, #144]	; 0x90
 8002b4e:	f022 0220 	bic.w	r2, r2, #32
 8002b52:	f8c3 2090 	str.w	r2, [r3, #144]	; 0x90
 8002b56:	699a      	ldr	r2, [r3, #24]
 8002b58:	f422 7200 	bic.w	r2, r2, #512	; 0x200
 8002b5c:	619a      	str	r2, [r3, #24]
 8002b5e:	4770      	bx	lr
 8002b60:	40021000 	.word	0x40021000

08002b64 <HAL_RCCEx_EnableMSIPLLMode>:
 8002b64:	4a02      	ldr	r2, [pc, #8]	; (8002b70 <HAL_RCCEx_EnableMSIPLLMode+0xc>)
 8002b66:	6813      	ldr	r3, [r2, #0]
 8002b68:	f043 0304 	orr.w	r3, r3, #4
 8002b6c:	6013      	str	r3, [r2, #0]
 8002b6e:	4770      	bx	lr
 8002b70:	40021000 	.word	0x40021000

08002b74 <HAL_UART_MspInit>:
 8002b74:	4770      	bx	lr
	...

08002b78 <UART_SetConfig>:
 8002b78:	b5f8      	push	{r3, r4, r5, r6, r7, lr}
 8002b7a:	4604      	mov	r4, r0
 8002b7c:	6805      	ldr	r5, [r0, #0]
 8002b7e:	6921      	ldr	r1, [r4, #16]
 8002b80:	68a3      	ldr	r3, [r4, #8]
 8002b82:	69c2      	ldr	r2, [r0, #28]
 8002b84:	6828      	ldr	r0, [r5, #0]
 8002b86:	430b      	orrs	r3, r1
 8002b88:	6961      	ldr	r1, [r4, #20]
 8002b8a:	430b      	orrs	r3, r1
 8002b8c:	49b0      	ldr	r1, [pc, #704]	; (8002e50 <UART_SetConfig+0x2d8>)
 8002b8e:	4313      	orrs	r3, r2
 8002b90:	4001      	ands	r1, r0
 8002b92:	430b      	orrs	r3, r1
 8002b94:	602b      	str	r3, [r5, #0]
 8002b96:	686b      	ldr	r3, [r5, #4]
 8002b98:	68e1      	ldr	r1, [r4, #12]
 8002b9a:	f423 5340 	bic.w	r3, r3, #12288	; 0x3000
 8002b9e:	430b      	orrs	r3, r1
 8002ba0:	606b      	str	r3, [r5, #4]
 8002ba2:	4bac      	ldr	r3, [pc, #688]	; (8002e54 <UART_SetConfig+0x2dc>)
 8002ba4:	69a1      	ldr	r1, [r4, #24]
 8002ba6:	429d      	cmp	r5, r3
 8002ba8:	bf1c      	itt	ne
 8002baa:	6a23      	ldrne	r3, [r4, #32]
 8002bac:	4319      	orrne	r1, r3
 8002bae:	68ab      	ldr	r3, [r5, #8]
 8002bb0:	f423 6330 	bic.w	r3, r3, #2816	; 0xb00
 8002bb4:	430b      	orrs	r3, r1
 8002bb6:	60ab      	str	r3, [r5, #8]
 8002bb8:	4ba7      	ldr	r3, [pc, #668]	; (8002e58 <UART_SetConfig+0x2e0>)
 8002bba:	429d      	cmp	r5, r3
 8002bbc:	d118      	bne.n	8002bf0 <UART_SetConfig+0x78>
 8002bbe:	f503 4358 	add.w	r3, r3, #55296	; 0xd800
 8002bc2:	49a6      	ldr	r1, [pc, #664]	; (8002e5c <UART_SetConfig+0x2e4>)
 8002bc4:	f8d3 3088 	ldr.w	r3, [r3, #136]	; 0x88
 8002bc8:	f003 0303 	and.w	r3, r3, #3
 8002bcc:	f5b2 4f00 	cmp.w	r2, #32768	; 0x8000
 8002bd0:	5ccb      	ldrb	r3, [r1, r3]
 8002bd2:	f040 80c6 	bne.w	8002d62 <UART_SetConfig+0x1ea>
 8002bd6:	2b08      	cmp	r3, #8
 8002bd8:	d828      	bhi.n	8002c2c <UART_SetConfig+0xb4>
 8002bda:	e8df f013 	tbh	[pc, r3, lsl #1]
 8002bde:	011a      	.short	0x011a
 8002be0:	012f00bf 	.word	0x012f00bf
 8002be4:	01140027 	.word	0x01140027
 8002be8:	00270027 	.word	0x00270027
 8002bec:	00330027 	.word	0x00330027
 8002bf0:	4b9b      	ldr	r3, [pc, #620]	; (8002e60 <UART_SetConfig+0x2e8>)
 8002bf2:	429d      	cmp	r5, r3
 8002bf4:	d107      	bne.n	8002c06 <UART_SetConfig+0x8e>
 8002bf6:	f503 33e6 	add.w	r3, r3, #117760	; 0x1cc00
 8002bfa:	499a      	ldr	r1, [pc, #616]	; (8002e64 <UART_SetConfig+0x2ec>)
 8002bfc:	f8d3 3088 	ldr.w	r3, [r3, #136]	; 0x88
 8002c00:	f003 030c 	and.w	r3, r3, #12
 8002c04:	e7e2      	b.n	8002bcc <UART_SetConfig+0x54>
 8002c06:	4b98      	ldr	r3, [pc, #608]	; (8002e68 <UART_SetConfig+0x2f0>)
 8002c08:	429d      	cmp	r5, r3
 8002c0a:	d120      	bne.n	8002c4e <UART_SetConfig+0xd6>
 8002c0c:	f503 33e4 	add.w	r3, r3, #116736	; 0x1c800
 8002c10:	f8d3 3088 	ldr.w	r3, [r3, #136]	; 0x88
 8002c14:	f003 0330 	and.w	r3, r3, #48	; 0x30
 8002c18:	2b10      	cmp	r3, #16
 8002c1a:	f000 80f1 	beq.w	8002e00 <UART_SetConfig+0x288>
 8002c1e:	d808      	bhi.n	8002c32 <UART_SetConfig+0xba>
 8002c20:	2b00      	cmp	r3, #0
 8002c22:	f000 80f3 	beq.w	8002e0c <UART_SetConfig+0x294>
 8002c26:	f5b2 4f00 	cmp.w	r2, #32768	; 0x8000
 8002c2a:	d134      	bne.n	8002c96 <UART_SetConfig+0x11e>
 8002c2c:	2201      	movs	r2, #1
 8002c2e:	2300      	movs	r3, #0
 8002c30:	e0f9      	b.n	8002e26 <UART_SetConfig+0x2ae>
 8002c32:	2b20      	cmp	r3, #32
 8002c34:	f000 80ff 	beq.w	8002e36 <UART_SetConfig+0x2be>
 8002c38:	2b30      	cmp	r3, #48	; 0x30
 8002c3a:	d1f4      	bne.n	8002c26 <UART_SetConfig+0xae>
 8002c3c:	f5b2 4f00 	cmp.w	r2, #32768	; 0x8000
 8002c40:	f040 80c1 	bne.w	8002dc6 <UART_SetConfig+0x24e>
 8002c44:	6860      	ldr	r0, [r4, #4]
 8002c46:	0843      	lsrs	r3, r0, #1
 8002c48:	f503 3380 	add.w	r3, r3, #65536	; 0x10000
 8002c4c:	e0fc      	b.n	8002e48 <UART_SetConfig+0x2d0>
 8002c4e:	4b87      	ldr	r3, [pc, #540]	; (8002e6c <UART_SetConfig+0x2f4>)
 8002c50:	429d      	cmp	r5, r3
 8002c52:	d122      	bne.n	8002c9a <UART_SetConfig+0x122>
 8002c54:	f503 33e2 	add.w	r3, r3, #115712	; 0x1c400
 8002c58:	f8d3 3088 	ldr.w	r3, [r3, #136]	; 0x88
 8002c5c:	f003 03c0 	and.w	r3, r3, #192	; 0xc0
 8002c60:	2b40      	cmp	r3, #64	; 0x40
 8002c62:	f000 80c0 	beq.w	8002de6 <UART_SetConfig+0x26e>
 8002c66:	d806      	bhi.n	8002c76 <UART_SetConfig+0xfe>
 8002c68:	2b00      	cmp	r3, #0
 8002c6a:	f000 80b1 	beq.w	8002dd0 <UART_SetConfig+0x258>
 8002c6e:	4b79      	ldr	r3, [pc, #484]	; (8002e54 <UART_SetConfig+0x2dc>)
 8002c70:	429d      	cmp	r5, r3
 8002c72:	d1d8      	bne.n	8002c26 <UART_SetConfig+0xae>
 8002c74:	e00f      	b.n	8002c96 <UART_SetConfig+0x11e>
 8002c76:	2b80      	cmp	r3, #128	; 0x80
 8002c78:	f000 80bc 	beq.w	8002df4 <UART_SetConfig+0x27c>
 8002c7c:	2bc0      	cmp	r3, #192	; 0xc0
 8002c7e:	d1f6      	bne.n	8002c6e <UART_SetConfig+0xf6>
 8002c80:	4b74      	ldr	r3, [pc, #464]	; (8002e54 <UART_SetConfig+0x2dc>)
 8002c82:	429d      	cmp	r5, r3
 8002c84:	d1da      	bne.n	8002c3c <UART_SetConfig+0xc4>
 8002c86:	2308      	movs	r3, #8
 8002c88:	f44f 4000 	mov.w	r0, #32768	; 0x8000
 8002c8c:	6862      	ldr	r2, [r4, #4]
 8002c8e:	eb02 0142 	add.w	r1, r2, r2, lsl #1
 8002c92:	4281      	cmp	r1, r0
 8002c94:	d92b      	bls.n	8002cee <UART_SetConfig+0x176>
 8002c96:	2201      	movs	r2, #1
 8002c98:	e04b      	b.n	8002d32 <UART_SetConfig+0x1ba>
 8002c9a:	4b75      	ldr	r3, [pc, #468]	; (8002e70 <UART_SetConfig+0x2f8>)
 8002c9c:	429d      	cmp	r5, r3
 8002c9e:	d111      	bne.n	8002cc4 <UART_SetConfig+0x14c>
 8002ca0:	f503 33e0 	add.w	r3, r3, #114688	; 0x1c000
 8002ca4:	f8d3 3088 	ldr.w	r3, [r3, #136]	; 0x88
 8002ca8:	f403 7340 	and.w	r3, r3, #768	; 0x300
 8002cac:	f5b3 7f80 	cmp.w	r3, #256	; 0x100
 8002cb0:	f000 8099 	beq.w	8002de6 <UART_SetConfig+0x26e>
 8002cb4:	d9d8      	bls.n	8002c68 <UART_SetConfig+0xf0>
 8002cb6:	f5b3 7f00 	cmp.w	r3, #512	; 0x200
 8002cba:	f000 809b 	beq.w	8002df4 <UART_SetConfig+0x27c>
 8002cbe:	f5b3 7f40 	cmp.w	r3, #768	; 0x300
 8002cc2:	e7dc      	b.n	8002c7e <UART_SetConfig+0x106>
 8002cc4:	4b63      	ldr	r3, [pc, #396]	; (8002e54 <UART_SetConfig+0x2dc>)
 8002cc6:	429d      	cmp	r5, r3
 8002cc8:	d1ad      	bne.n	8002c26 <UART_SetConfig+0xae>
 8002cca:	f503 33c8 	add.w	r3, r3, #102400	; 0x19000
 8002cce:	f8d3 3088 	ldr.w	r3, [r3, #136]	; 0x88
 8002cd2:	f403 6340 	and.w	r3, r3, #3072	; 0xc00
 8002cd6:	f5b3 6f80 	cmp.w	r3, #1024	; 0x400
 8002cda:	f000 8084 	beq.w	8002de6 <UART_SetConfig+0x26e>
 8002cde:	d9c3      	bls.n	8002c68 <UART_SetConfig+0xf0>
 8002ce0:	f5b3 6f00 	cmp.w	r3, #2048	; 0x800
 8002ce4:	f000 8086 	beq.w	8002df4 <UART_SetConfig+0x27c>
 8002ce8:	f5b3 6f40 	cmp.w	r3, #3072	; 0xc00
 8002cec:	e7c7      	b.n	8002c7e <UART_SetConfig+0x106>
 8002cee:	ebb0 3f02 	cmp.w	r0, r2, lsl #12
 8002cf2:	d8d0      	bhi.n	8002c96 <UART_SetConfig+0x11e>
 8002cf4:	2b08      	cmp	r3, #8
 8002cf6:	d82f      	bhi.n	8002d58 <UART_SetConfig+0x1e0>
 8002cf8:	e8df f003 	tbb	[pc, r3]
 8002cfc:	2e1d2e05 	.word	0x2e1d2e05
 8002d00:	2e2e2e25 	.word	0x2e2e2e25
 8002d04:	28          	.byte	0x28
 8002d05:	00          	.byte	0x00
 8002d06:	f000 fe59 	bl	80039bc <HAL_RCC_GetPCLK1Freq>
 8002d0a:	6862      	ldr	r2, [r4, #4]
 8002d0c:	f44f 7180 	mov.w	r1, #256	; 0x100
 8002d10:	0856      	lsrs	r6, r2, #1
 8002d12:	2700      	movs	r7, #0
 8002d14:	fbe1 6700 	umlal	r6, r7, r1, r0
 8002d18:	2300      	movs	r3, #0
 8002d1a:	4630      	mov	r0, r6
 8002d1c:	4639      	mov	r1, r7
 8002d1e:	f001 f93b 	bl	8003f98 <__aeabi_uldivmod>
 8002d22:	2200      	movs	r2, #0
 8002d24:	4b53      	ldr	r3, [pc, #332]	; (8002e74 <UART_SetConfig+0x2fc>)
 8002d26:	f5a0 7140 	sub.w	r1, r0, #768	; 0x300
 8002d2a:	4299      	cmp	r1, r3
 8002d2c:	d8b3      	bhi.n	8002c96 <UART_SetConfig+0x11e>
 8002d2e:	6823      	ldr	r3, [r4, #0]
 8002d30:	60d8      	str	r0, [r3, #12]
 8002d32:	4610      	mov	r0, r2
 8002d34:	bdf8      	pop	{r3, r4, r5, r6, r7, pc}
 8002d36:	4850      	ldr	r0, [pc, #320]	; (8002e78 <UART_SetConfig+0x300>)
 8002d38:	0855      	lsrs	r5, r2, #1
 8002d3a:	2300      	movs	r3, #0
 8002d3c:	2100      	movs	r1, #0
 8002d3e:	1940      	adds	r0, r0, r5
 8002d40:	f141 0100 	adc.w	r1, r1, #0
 8002d44:	e7eb      	b.n	8002d1e <UART_SetConfig+0x1a6>
 8002d46:	f000 faa9 	bl	800329c <HAL_RCC_GetSysClockFreq>
 8002d4a:	e7de      	b.n	8002d0a <UART_SetConfig+0x192>
 8002d4c:	0850      	lsrs	r0, r2, #1
 8002d4e:	2100      	movs	r1, #0
 8002d50:	2300      	movs	r3, #0
 8002d52:	f510 0000 	adds.w	r0, r0, #8388608	; 0x800000
 8002d56:	e7f3      	b.n	8002d40 <UART_SetConfig+0x1c8>
 8002d58:	2201      	movs	r2, #1
 8002d5a:	e7e3      	b.n	8002d24 <UART_SetConfig+0x1ac>
 8002d5c:	f000 fe46 	bl	80039ec <HAL_RCC_GetPCLK2Freq>
 8002d60:	e059      	b.n	8002e16 <UART_SetConfig+0x29e>
 8002d62:	2b08      	cmp	r3, #8
 8002d64:	d897      	bhi.n	8002c96 <UART_SetConfig+0x11e>
 8002d66:	a201      	add	r2, pc, #4	; (adr r2, 8002d6c <UART_SetConfig+0x1f4>)
 8002d68:	f852 f023 	ldr.w	pc, [r2, r3, lsl #2]
 8002d6c:	08002d91 	.word	0x08002d91
 8002d70:	08002da5 	.word	0x08002da5
 8002d74:	08002dab 	.word	0x08002dab
 8002d78:	08002c97 	.word	0x08002c97
 8002d7c:	08002dc1 	.word	0x08002dc1
 8002d80:	08002c97 	.word	0x08002c97
 8002d84:	08002c97 	.word	0x08002c97
 8002d88:	08002c97 	.word	0x08002c97
 8002d8c:	08002dc7 	.word	0x08002dc7
 8002d90:	f000 fe14 	bl	80039bc <HAL_RCC_GetPCLK1Freq>
 8002d94:	6863      	ldr	r3, [r4, #4]
 8002d96:	eb00 0053 	add.w	r0, r0, r3, lsr #1
 8002d9a:	fbb0 f0f3 	udiv	r0, r0, r3
 8002d9e:	b280      	uxth	r0, r0
 8002da0:	60e8      	str	r0, [r5, #12]
 8002da2:	e01e      	b.n	8002de2 <UART_SetConfig+0x26a>
 8002da4:	f000 fe22 	bl	80039ec <HAL_RCC_GetPCLK2Freq>
 8002da8:	e7f4      	b.n	8002d94 <UART_SetConfig+0x21c>
 8002daa:	6862      	ldr	r2, [r4, #4]
 8002dac:	0853      	lsrs	r3, r2, #1
 8002dae:	f503 0374 	add.w	r3, r3, #15990784	; 0xf40000
 8002db2:	f503 5310 	add.w	r3, r3, #9216	; 0x2400
 8002db6:	fbb3 f3f2 	udiv	r3, r3, r2
 8002dba:	b29b      	uxth	r3, r3
 8002dbc:	60eb      	str	r3, [r5, #12]
